{
  "_format": "hh-sol-artifact-1",
  "contractName": "UniswapV2Router02",
  "sourceName": "contracts/Uni_v2_Router.sol",
  "abi": [
    {
      "inputs": [
        {
          "internalType": "address",
          "name": "_factory",
          "type": "address"
        },
        {
          "internalType": "address",
          "name": "_WETH",
          "type": "address"
        }
      ],
      "stateMutability": "nonpayable",
      "type": "constructor"
    },
    {
      "inputs": [],
      "name": "WETH",
      "outputs": [
        {
          "internalType": "address",
          "name": "",
          "type": "address"
        }
      ],
      "stateMutability": "view",
      "type": "function"
    },
    {
      "inputs": [
        {
          "internalType": "address",
          "name": "tokenA",
          "type": "address"
        },
        {
          "internalType": "address",
          "name": "tokenB",
          "type": "address"
        },
        {
          "internalType": "uint256",
          "name": "amountADesired",
          "type": "uint256"
        },
        {
          "internalType": "uint256",
          "name": "amountBDesired",
          "type": "uint256"
        },
        {
          "internalType": "uint256",
          "name": "amountAMin",
          "type": "uint256"
        },
        {
          "internalType": "uint256",
          "name": "amountBMin",
          "type": "uint256"
        },
        {
          "internalType": "address",
          "name": "to",
          "type": "address"
        }
      ],
      "name": "addLiquidity",
      "outputs": [
        {
          "internalType": "uint256",
          "name": "amountA",
          "type": "uint256"
        },
        {
          "internalType": "uint256",
          "name": "amountB",
          "type": "uint256"
        },
        {
          "internalType": "uint256",
          "name": "liquidity",
          "type": "uint256"
        }
      ],
      "stateMutability": "nonpayable",
      "type": "function"
    },
    {
      "inputs": [
        {
          "internalType": "address",
          "name": "token",
          "type": "address"
        },
        {
          "internalType": "uint256",
          "name": "amountTokenDesired",
          "type": "uint256"
        },
        {
          "internalType": "uint256",
          "name": "amountTokenMin",
          "type": "uint256"
        },
        {
          "internalType": "uint256",
          "name": "amountETHMin",
          "type": "uint256"
        },
        {
          "internalType": "address",
          "name": "to",
          "type": "address"
        }
      ],
      "name": "addLiquidityETH",
      "outputs": [
        {
          "internalType": "uint256",
          "name": "amountToken",
          "type": "uint256"
        },
        {
          "internalType": "uint256",
          "name": "amountETH",
          "type": "uint256"
        },
        {
          "internalType": "uint256",
          "name": "liquidity",
          "type": "uint256"
        }
      ],
      "stateMutability": "payable",
      "type": "function"
    },
    {
      "inputs": [],
      "name": "factory",
      "outputs": [
        {
          "internalType": "address",
          "name": "",
          "type": "address"
        }
      ],
      "stateMutability": "view",
      "type": "function"
    },
    {
      "inputs": [
        {
          "internalType": "uint256",
          "name": "amountOut",
          "type": "uint256"
        },
        {
          "internalType": "uint256",
          "name": "reserveIn",
          "type": "uint256"
        },
        {
          "internalType": "uint256",
          "name": "reserveOut",
          "type": "uint256"
        }
      ],
      "name": "getAmountIn",
      "outputs": [
        {
          "internalType": "uint256",
          "name": "amountIn",
          "type": "uint256"
        }
      ],
      "stateMutability": "pure",
      "type": "function"
    },
    {
      "inputs": [
        {
          "internalType": "uint256",
          "name": "amountIn",
          "type": "uint256"
        },
        {
          "internalType": "uint256",
          "name": "reserveIn",
          "type": "uint256"
        },
        {
          "internalType": "uint256",
          "name": "reserveOut",
          "type": "uint256"
        }
      ],
      "name": "getAmountOut",
      "outputs": [
        {
          "internalType": "uint256",
          "name": "amountOut",
          "type": "uint256"
        }
      ],
      "stateMutability": "pure",
      "type": "function"
    },
    {
      "inputs": [
        {
          "internalType": "uint256",
          "name": "amountOut",
          "type": "uint256"
        },
        {
          "internalType": "address[]",
          "name": "path",
          "type": "address[]"
        }
      ],
      "name": "getAmountsIn",
      "outputs": [
        {
          "internalType": "uint256[]",
          "name": "amounts",
          "type": "uint256[]"
        }
      ],
      "stateMutability": "view",
      "type": "function"
    },
    {
      "inputs": [
        {
          "internalType": "uint256",
          "name": "amountIn",
          "type": "uint256"
        },
        {
          "internalType": "address[]",
          "name": "path",
          "type": "address[]"
        }
      ],
      "name": "getAmountsOut",
      "outputs": [
        {
          "internalType": "uint256[]",
          "name": "amounts",
          "type": "uint256[]"
        }
      ],
      "stateMutability": "view",
      "type": "function"
    },
    {
      "inputs": [
        {
          "internalType": "address",
          "name": "tokenA",
          "type": "address"
        },
        {
          "internalType": "address",
          "name": "tokenB",
          "type": "address"
        }
      ],
      "name": "getFactoryReserves",
      "outputs": [
        {
          "internalType": "uint256",
          "name": "_reserve0",
          "type": "uint256"
        },
        {
          "internalType": "uint256",
          "name": "_reserve1",
          "type": "uint256"
        }
      ],
      "stateMutability": "view",
      "type": "function"
    },
    {
      "inputs": [
        {
          "internalType": "address",
          "name": "tokenA",
          "type": "address"
        },
        {
          "internalType": "address",
          "name": "tokenB",
          "type": "address"
        }
      ],
      "name": "getReserves",
      "outputs": [
        {
          "internalType": "uint256",
          "name": "_reserve0",
          "type": "uint256"
        },
        {
          "internalType": "uint256",
          "name": "_reserve1",
          "type": "uint256"
        }
      ],
      "stateMutability": "view",
      "type": "function"
    },
    {
      "inputs": [
        {
          "internalType": "uint256",
          "name": "amountA",
          "type": "uint256"
        },
        {
          "internalType": "uint256",
          "name": "reserveA",
          "type": "uint256"
        },
        {
          "internalType": "uint256",
          "name": "reserveB",
          "type": "uint256"
        }
      ],
      "name": "quote",
      "outputs": [
        {
          "internalType": "uint256",
          "name": "amountB",
          "type": "uint256"
        }
      ],
      "stateMutability": "pure",
      "type": "function"
    },
    {
      "inputs": [
        {
          "internalType": "address",
          "name": "tokenA",
          "type": "address"
        },
        {
          "internalType": "address",
          "name": "tokenB",
          "type": "address"
        },
        {
          "internalType": "uint256",
          "name": "liquidity",
          "type": "uint256"
        },
        {
          "internalType": "uint256",
          "name": "amountAMin",
          "type": "uint256"
        },
        {
          "internalType": "uint256",
          "name": "amountBMin",
          "type": "uint256"
        },
        {
          "internalType": "address",
          "name": "to",
          "type": "address"
        }
      ],
      "name": "removeLiquidity",
      "outputs": [
        {
          "internalType": "uint256",
          "name": "amountA",
          "type": "uint256"
        },
        {
          "internalType": "uint256",
          "name": "amountB",
          "type": "uint256"
        }
      ],
      "stateMutability": "nonpayable",
      "type": "function"
    },
    {
      "inputs": [
        {
          "internalType": "address",
          "name": "token",
          "type": "address"
        },
        {
          "internalType": "uint256",
          "name": "liquidity",
          "type": "uint256"
        },
        {
          "internalType": "uint256",
          "name": "amountTokenMin",
          "type": "uint256"
        },
        {
          "internalType": "uint256",
          "name": "amountETHMin",
          "type": "uint256"
        },
        {
          "internalType": "address",
          "name": "to",
          "type": "address"
        }
      ],
      "name": "removeLiquidityETH",
      "outputs": [
        {
          "internalType": "uint256",
          "name": "amountToken",
          "type": "uint256"
        },
        {
          "internalType": "uint256",
          "name": "amountETH",
          "type": "uint256"
        }
      ],
      "stateMutability": "nonpayable",
      "type": "function"
    },
    {
      "inputs": [
        {
          "internalType": "uint256",
          "name": "amountOut",
          "type": "uint256"
        },
        {
          "internalType": "address[]",
          "name": "path",
          "type": "address[]"
        },
        {
          "internalType": "address",
          "name": "to",
          "type": "address"
        }
      ],
      "name": "swapETHForExactTokens",
      "outputs": [
        {
          "internalType": "uint256[]",
          "name": "amounts",
          "type": "uint256[]"
        }
      ],
      "stateMutability": "payable",
      "type": "function"
    },
    {
      "inputs": [
        {
          "internalType": "uint256",
          "name": "amountOutMin",
          "type": "uint256"
        },
        {
          "internalType": "address[]",
          "name": "path",
          "type": "address[]"
        },
        {
          "internalType": "address",
          "name": "to",
          "type": "address"
        }
      ],
      "name": "swapExactETHForTokens",
      "outputs": [
        {
          "internalType": "uint256[]",
          "name": "amounts",
          "type": "uint256[]"
        }
      ],
      "stateMutability": "payable",
      "type": "function"
    },
    {
      "inputs": [
        {
          "internalType": "uint256",
          "name": "amountIn",
          "type": "uint256"
        },
        {
          "internalType": "uint256",
          "name": "amountOutMin",
          "type": "uint256"
        },
        {
          "internalType": "address[]",
          "name": "path",
          "type": "address[]"
        },
        {
          "internalType": "address",
          "name": "to",
          "type": "address"
        }
      ],
      "name": "swapExactTokensForETH",
      "outputs": [
        {
          "internalType": "uint256[]",
          "name": "amounts",
          "type": "uint256[]"
        }
      ],
      "stateMutability": "nonpayable",
      "type": "function"
    },
    {
      "inputs": [
        {
          "internalType": "uint256",
          "name": "amountIn",
          "type": "uint256"
        },
        {
          "internalType": "uint256",
          "name": "amountOutMin",
          "type": "uint256"
        },
        {
          "internalType": "address[]",
          "name": "path",
          "type": "address[]"
        },
        {
          "internalType": "address",
          "name": "to",
          "type": "address"
        }
      ],
      "name": "swapExactTokensForTokens",
      "outputs": [
        {
          "internalType": "uint256[]",
          "name": "amounts",
          "type": "uint256[]"
        }
      ],
      "stateMutability": "nonpayable",
      "type": "function"
    },
    {
      "inputs": [
        {
          "internalType": "uint256",
          "name": "amountOut",
          "type": "uint256"
        },
        {
          "internalType": "uint256",
          "name": "amountInMax",
          "type": "uint256"
        },
        {
          "internalType": "address[]",
          "name": "path",
          "type": "address[]"
        },
        {
          "internalType": "address",
          "name": "to",
          "type": "address"
        }
      ],
      "name": "swapTokensForExactETH",
      "outputs": [
        {
          "internalType": "uint256[]",
          "name": "amounts",
          "type": "uint256[]"
        }
      ],
      "stateMutability": "nonpayable",
      "type": "function"
    },
    {
      "inputs": [
        {
          "internalType": "uint256",
          "name": "amountOut",
          "type": "uint256"
        },
        {
          "internalType": "uint256",
          "name": "amountInMax",
          "type": "uint256"
        },
        {
          "internalType": "address[]",
          "name": "path",
          "type": "address[]"
        },
        {
          "internalType": "address",
          "name": "to",
          "type": "address"
        }
      ],
      "name": "swapTokensForExactTokens",
      "outputs": [
        {
          "internalType": "uint256[]",
          "name": "amounts",
          "type": "uint256[]"
        }
      ],
      "stateMutability": "nonpayable",
      "type": "function"
    },
    {
      "stateMutability": "payable",
      "type": "receive"
    }
  ],
  "bytecode": "0x60c06040523480156200001157600080fd5b5060405162004b0f38038062004b0f833981810160405281019062000037919062000117565b8173ffffffffffffffffffffffffffffffffffffffff1660808173ffffffffffffffffffffffffffffffffffffffff1660601b815250508073ffffffffffffffffffffffffffffffffffffffff1660a08173ffffffffffffffffffffffffffffffffffffffff1660601b8152505050506200015e565b600080fd5b600073ffffffffffffffffffffffffffffffffffffffff82169050919050565b6000620000df82620000b2565b9050919050565b620000f181620000d2565b8114620000fd57600080fd5b50565b6000815190506200011181620000e6565b92915050565b60008060408385031215620001315762000130620000ad565b5b6000620001418582860162000100565b9250506020620001548582860162000100565b9150509250929050565b60805160601c60a05160601c614866620002a96000396000818161011f015281816105de01528181610760015281816107fc015281816109f501528181610b8301528181610c1f01528181610df9015281816110aa015281816111980152818161143d0152818161191401528181611951015281816119f901528181611a5201528181611a8601528181611b070152611c8e0152600081816106970152818161083b01528181610aae01528181610c5e01528181610dc701528181610ec001528181610fc50152818161125f015281816113580152818161152e015281816116270152818161171a0152818161181f01528181611a3001528181611cd101528181611d1401528181611f4801528181611f8c0152818161206e015281816120a7015281816124d90152818161252d01528181612af801528181612bbf0152612c7401526148666000f3fe6080604052600436106101185760003560e01c806377215790116100a0578063c0e3ee6b11610064578063c0e3ee6b146104a1578063c45a0155146104df578063ca3d65391461050a578063d06ca61f14610549578063d52bb6f4146105865761017b565b8063772157901461038c57806385f8c259146103be578063ad5c4648146103fb578063ad615dec14610426578063bdb40c36146104635761017b565b8063363db5c6116100e7578063363db5c61461025a5780633e8877ed1461029757806342712a67146102d4578063472b43f3146103115780636587e4ce1461034e5761017b565b8063054d50d41461018057806310086982146101bd57806312c6442f146101ed5780631f00ca741461021d5761017b565b3661017b577f000000000000000000000000000000000000000000000000000000000000000073ffffffffffffffffffffffffffffffffffffffff163373ffffffffffffffffffffffffffffffffffffffff161461017957610178613189565b5b005b600080fd5b34801561018c57600080fd5b506101a760048036038101906101a29190613202565b6105c4565b6040516101b49190613264565b60405180910390f35b6101d760048036038101906101d29190613342565b6105da565b6040516101e49190613474565b60405180910390f35b61020760048036038101906102029190613342565b6109f1565b6040516102149190613474565b60405180910390f35b34801561022957600080fd5b50610244600480360381019061023f91906135e5565b610dc0565b6040516102519190613474565b60405180910390f35b34801561026657600080fd5b50610281600480360381019061027c9190613641565b610df5565b60405161028e9190613474565b60405180910390f35b3480156102a357600080fd5b506102be60048036038101906102b99190613641565b611194565b6040516102cb9190613474565b60405180910390f35b3480156102e057600080fd5b506102fb60048036038101906102f69190613641565b611527565b6040516103089190613474565b60405180910390f35b34801561031d57600080fd5b5061033860048036038101906103339190613641565b611713565b6040516103459190613474565b60405180910390f35b34801561035a57600080fd5b50610375600480360381019061037091906136c9565b61190b565b604051610383929190613744565b60405180910390f35b6103a660048036038101906103a191906136c9565b6119ee565b6040516103b59392919061376d565b60405180910390f35b3480156103ca57600080fd5b506103e560048036038101906103e09190613202565b611c76565b6040516103f29190613264565b60405180910390f35b34801561040757600080fd5b50610410611c8c565b60405161041d91906137b3565b60405180910390f35b34801561043257600080fd5b5061044d60048036038101906104489190613202565b611cb0565b60405161045a9190613264565b60405180910390f35b34801561046f57600080fd5b5061048a600480360381019061048591906137ce565b611cc6565b604051610498929190613744565b60405180910390f35b3480156104ad57600080fd5b506104c860048036038101906104c3919061380e565b611d0a565b6040516104d6929190613744565b60405180910390f35b3480156104eb57600080fd5b506104f4611f46565b60405161050191906137b3565b60405180910390f35b34801561051657600080fd5b50610531600480360381019061052c919061389b565b611f6a565b6040516105409392919061376d565b60405180910390f35b34801561055557600080fd5b50610570600480360381019061056b91906135e5565b612067565b60405161057d9190613474565b60405180910390f35b34801561059257600080fd5b506105ad60048036038101906105a891906137ce565b61209c565b6040516105bb929190613744565b60405180910390f35b60006105d18484846120e0565b90509392505050565b60607f000000000000000000000000000000000000000000000000000000000000000073ffffffffffffffffffffffffffffffffffffffff16848460008181106106275761062661393d565b5b905060200201602081019061063c919061396c565b73ffffffffffffffffffffffffffffffffffffffff1614610692576040517f08c379a0000000000000000000000000000000000000000000000000000000008152600401610689906139f6565b60405180910390fd5b6106fe7f000000000000000000000000000000000000000000000000000000000000000086868680806020026020016040519081016040528093929190818152602001838360200280828437600081840152601f19601f820116905080830192505050505050506121ca565b905034816000815181106107155761071461393d565b5b6020026020010151111561075e576040517f08c379a000000000000000000000000000000000000000000000000000000000815260040161075590613a88565b60405180910390fd5b7f000000000000000000000000000000000000000000000000000000000000000073ffffffffffffffffffffffffffffffffffffffff1663d0e30db0826000815181106107ae576107ad61393d565b5b60200260200101516040518263ffffffff1660e01b81526004016000604051808303818588803b1580156107e157600080fd5b505af11580156107f5573d6000803e3d6000fd5b50505050507f000000000000000000000000000000000000000000000000000000000000000073ffffffffffffffffffffffffffffffffffffffff1663a9059cbb6108b17f00000000000000000000000000000000000000000000000000000000000000008787600081811061086e5761086d61393d565b5b9050602002016020810190610883919061396c565b888860018181106108975761089661393d565b5b90506020020160208101906108ac919061396c565b612365565b836000815181106108c5576108c461393d565b5b60200260200101516040518363ffffffff1660e01b81526004016108ea929190613aa8565b602060405180830381600087803b15801561090457600080fd5b505af1158015610918573d6000803e3d6000fd5b505050506040513d601f19601f8201168201806040525081019061093c9190613b09565b61094957610948613189565b5b61099581858580806020026020016040519081016040528093929190818152602001838360200280828437600081840152601f19601f82011690508083019250505050505050846123d7565b806000815181106109a9576109a861393d565b5b60200260200101513411156109e9576109e833826000815181106109d0576109cf61393d565b5b6020026020010151346109e39190613b65565b6125e1565b5b949350505050565b60607f000000000000000000000000000000000000000000000000000000000000000073ffffffffffffffffffffffffffffffffffffffff1684846000818110610a3e57610a3d61393d565b5b9050602002016020810190610a53919061396c565b73ffffffffffffffffffffffffffffffffffffffff1614610aa9576040517f08c379a0000000000000000000000000000000000000000000000000000000008152600401610aa0906139f6565b60405180910390fd5b610b157f000000000000000000000000000000000000000000000000000000000000000034868680806020026020016040519081016040528093929190818152602001838360200280828437600081840152601f19601f820116905080830192505050505050506126e1565b9050848160018351610b279190613b65565b81518110610b3857610b3761393d565b5b60200260200101511015610b81576040517f08c379a0000000000000000000000000000000000000000000000000000000008152600401610b7890613c0b565b60405180910390fd5b7f000000000000000000000000000000000000000000000000000000000000000073ffffffffffffffffffffffffffffffffffffffff1663d0e30db082600081518110610bd157610bd061393d565b5b60200260200101516040518263ffffffff1660e01b81526004016000604051808303818588803b158015610c0457600080fd5b505af1158015610c18573d6000803e3d6000fd5b50505050507f000000000000000000000000000000000000000000000000000000000000000073ffffffffffffffffffffffffffffffffffffffff1663a9059cbb610cd47f000000000000000000000000000000000000000000000000000000000000000087876000818110610c9157610c9061393d565b5b9050602002016020810190610ca6919061396c565b88886001818110610cba57610cb961393d565b5b9050602002016020810190610ccf919061396c565b612365565b83600081518110610ce857610ce761393d565b5b60200260200101516040518363ffffffff1660e01b8152600401610d0d929190613aa8565b602060405180830381600087803b158015610d2757600080fd5b505af1158015610d3b573d6000803e3d6000fd5b505050506040513d601f19601f82011682018060405250810190610d5f9190613b09565b610d6c57610d6b613189565b5b610db881858580806020026020016040519081016040528093929190818152602001838360200280828437600081840152601f19601f82011690508083019250505050505050846123d7565b949350505050565b6060610ded7f000000000000000000000000000000000000000000000000000000000000000084846121ca565b905092915050565b60607f000000000000000000000000000000000000000000000000000000000000000073ffffffffffffffffffffffffffffffffffffffff168484600187879050610e409190613b65565b818110610e5057610e4f61393d565b5b9050602002016020810190610e65919061396c565b73ffffffffffffffffffffffffffffffffffffffff1614610ebb576040517f08c379a0000000000000000000000000000000000000000000000000000000008152600401610eb2906139f6565b60405180910390fd5b610f277f000000000000000000000000000000000000000000000000000000000000000087868680806020026020016040519081016040528093929190818152602001838360200280828437600081840152601f19601f820116905080830192505050505050506126e1565b9050848160018351610f399190613b65565b81518110610f4a57610f4961393d565b5b60200260200101511015610f93576040517f08c379a0000000000000000000000000000000000000000000000000000000008152600401610f8a90613c0b565b60405180910390fd5b61105c84846000818110610faa57610fa961393d565b5b9050602002016020810190610fbf919061396c565b3361103b7f000000000000000000000000000000000000000000000000000000000000000088886000818110610ff857610ff761393d565b5b905060200201602081019061100d919061396c565b898960018181106110215761102061393d565b5b9050602002016020810190611036919061396c565b612365565b8460008151811061104f5761104e61393d565b5b602002602001015161286c565b6110a881858580806020026020016040519081016040528093929190818152602001838360200280828437600081840152601f19601f82011690508083019250505050505050306123d7565b7f000000000000000000000000000000000000000000000000000000000000000073ffffffffffffffffffffffffffffffffffffffff16632e1a7d4d82600184516110f39190613b65565b815181106111045761110361393d565b5b60200260200101516040518263ffffffff1660e01b81526004016111289190613264565b600060405180830381600087803b15801561114257600080fd5b505af1158015611156573d6000803e3d6000fd5b5050505061118b82826001845161116d9190613b65565b8151811061117e5761117d61393d565b5b60200260200101516125e1565b95945050505050565b60607f000000000000000000000000000000000000000000000000000000000000000073ffffffffffffffffffffffffffffffffffffffff1684846001878790506111df9190613b65565b8181106111ef576111ee61393d565b5b9050602002016020810190611204919061396c565b73ffffffffffffffffffffffffffffffffffffffff161461125a576040517f08c379a0000000000000000000000000000000000000000000000000000000008152600401611251906139f6565b60405180910390fd5b6112c67f000000000000000000000000000000000000000000000000000000000000000087868680806020026020016040519081016040528093929190818152602001838360200280828437600081840152601f19601f820116905080830192505050505050506121ca565b905084816000815181106112dd576112dc61393d565b5b60200260200101511115611326576040517f08c379a000000000000000000000000000000000000000000000000000000000815260040161131d90613a88565b60405180910390fd5b6113ef8484600081811061133d5761133c61393d565b5b9050602002016020810190611352919061396c565b336113ce7f00000000000000000000000000000000000000000000000000000000000000008888600081811061138b5761138a61393d565b5b90506020020160208101906113a0919061396c565b898960018181106113b4576113b361393d565b5b90506020020160208101906113c9919061396c565b612365565b846000815181106113e2576113e161393d565b5b602002602001015161286c565b61143b81858580806020026020016040519081016040528093929190818152602001838360200280828437600081840152601f19601f82011690508083019250505050505050306123d7565b7f000000000000000000000000000000000000000000000000000000000000000073ffffffffffffffffffffffffffffffffffffffff16632e1a7d4d82600184516114869190613b65565b815181106114975761149661393d565b5b60200260200101516040518263ffffffff1660e01b81526004016114bb9190613264565b600060405180830381600087803b1580156114d557600080fd5b505af11580156114e9573d6000803e3d6000fd5b5050505061151e8282600184516115009190613b65565b815181106115115761151061393d565b5b60200260200101516125e1565b95945050505050565b60606115957f000000000000000000000000000000000000000000000000000000000000000087868680806020026020016040519081016040528093929190818152602001838360200280828437600081840152601f19601f820116905080830192505050505050506121ca565b905084816000815181106115ac576115ab61393d565b5b602002602001015111156115f5576040517f08c379a00000000000000000000000000000000000000000000000000000000081526004016115ec90613a88565b60405180910390fd5b6116be8484600081811061160c5761160b61393d565b5b9050602002016020810190611621919061396c565b3361169d7f00000000000000000000000000000000000000000000000000000000000000008888600081811061165a5761165961393d565b5b905060200201602081019061166f919061396c565b898960018181106116835761168261393d565b5b9050602002016020810190611698919061396c565b612365565b846000815181106116b1576116b061393d565b5b602002602001015161286c565b61170a81858580806020026020016040519081016040528093929190818152602001838360200280828437600081840152601f19601f82011690508083019250505050505050846123d7565b95945050505050565b60606117817f000000000000000000000000000000000000000000000000000000000000000087868680806020026020016040519081016040528093929190818152602001838360200280828437600081840152601f19601f820116905080830192505050505050506126e1565b90508481600183516117939190613b65565b815181106117a4576117a361393d565b5b602002602001015110156117ed576040517f08c379a00000000000000000000000000000000000000000000000000000000081526004016117e490613c0b565b60405180910390fd5b6118b6848460008181106118045761180361393d565b5b9050602002016020810190611819919061396c565b336118957f0000000000000000000000000000000000000000000000000000000000000000888860008181106118525761185161393d565b5b9050602002016020810190611867919061396c565b8989600181811061187b5761187a61393d565b5b9050602002016020810190611890919061396c565b612365565b846000815181106118a9576118a861393d565b5b602002602001015161286c565b61190281858580806020026020016040519081016040528093929190818152602001838360200280828437600081840152601f19601f82011690508083019250505050505050846123d7565b95945050505050565b60008061193c877f000000000000000000000000000000000000000000000000000000000000000088888830611d0a565b809250819350505061194f8784846129a5565b7f000000000000000000000000000000000000000000000000000000000000000073ffffffffffffffffffffffffffffffffffffffff16632e1a7d4d826040518263ffffffff1660e01b81526004016119a89190613264565b600060405180830381600087803b1580156119c257600080fd5b505af11580156119d6573d6000803e3d6000fd5b505050506119e483826125e1565b9550959350505050565b6000806000611a21887f000000000000000000000000000000000000000000000000000000000000000089348a8a612adb565b80935081945050506000611a767f00000000000000000000000000000000000000000000000000000000000000008a7f0000000000000000000000000000000000000000000000000000000000000000612365565b9050611a848933838761286c565b7f000000000000000000000000000000000000000000000000000000000000000073ffffffffffffffffffffffffffffffffffffffff1663d0e30db0846040518263ffffffff1660e01b81526004016000604051808303818588803b158015611aec57600080fd5b505af1158015611b00573d6000803e3d6000fd5b50505050507f000000000000000000000000000000000000000000000000000000000000000073ffffffffffffffffffffffffffffffffffffffff1663a9059cbb82856040518363ffffffff1660e01b8152600401611b60929190613aa8565b602060405180830381600087803b158015611b7a57600080fd5b505af1158015611b8e573d6000803e3d6000fd5b505050506040513d601f19601f82011682018060405250810190611bb29190613b09565b611bbf57611bbe613189565b5b8073ffffffffffffffffffffffffffffffffffffffff16636a627842866040518263ffffffff1660e01b8152600401611bf891906137b3565b602060405180830381600087803b158015611c1257600080fd5b505af1158015611c26573d6000803e3d6000fd5b505050506040513d601f19601f82011682018060405250810190611c4a9190613c40565b915082341115611c6a57611c69338434611c649190613b65565b6125e1565b5b50955095509592505050565b6000611c83848484612da8565b90509392505050565b7f000000000000000000000000000000000000000000000000000000000000000081565b6000611cbd848484612e98565b90509392505050565b600080600080611cf77f00000000000000000000000000000000000000000000000000000000000000008787612f4b565b9150915081935080925050509250929050565b6000806000611d3a7f00000000000000000000000000000000000000000000000000000000000000008a8a612365565b90508073ffffffffffffffffffffffffffffffffffffffff166323b872dd33838a6040518463ffffffff1660e01b8152600401611d7993929190613c6d565b602060405180830381600087803b158015611d9357600080fd5b505af1158015611da7573d6000803e3d6000fd5b505050506040513d601f19601f82011682018060405250810190611dcb9190613b09565b506000808273ffffffffffffffffffffffffffffffffffffffff166389afcb44876040518263ffffffff1660e01b8152600401611e0891906137b3565b6040805180830381600087803b158015611e2157600080fd5b505af1158015611e35573d6000803e3d6000fd5b505050506040513d601f19601f82011682018060405250810190611e599190613ca4565b915091506000611e698c8c61305b565b5090508073ffffffffffffffffffffffffffffffffffffffff168c73ffffffffffffffffffffffffffffffffffffffff1614611ea6578183611ea9565b82825b809650819750505088861015611ef4576040517f08c379a0000000000000000000000000000000000000000000000000000000008152600401611eeb90613d56565b60405180910390fd5b87851015611f37576040517f08c379a0000000000000000000000000000000000000000000000000000000008152600401611f2e90613de8565b60405180910390fd5b50505050965096945050505050565b7f000000000000000000000000000000000000000000000000000000000000000081565b6000806000611f7d8a8a8a8a8a8a612adb565b80935081945050506000611fb27f00000000000000000000000000000000000000000000000000000000000000008c8c612365565b9050611fc08b33838761286c565b611fcc8a33838661286c565b8073ffffffffffffffffffffffffffffffffffffffff16636a627842866040518263ffffffff1660e01b815260040161200591906137b3565b602060405180830381600087803b15801561201f57600080fd5b505af1158015612033573d6000803e3d6000fd5b505050506040513d601f19601f820116820180604052508101906120579190613c40565b9150509750975097945050505050565b60606120947f000000000000000000000000000000000000000000000000000000000000000084846126e1565b905092915050565b6000806000806120cd7f00000000000000000000000000000000000000000000000000000000000000008787612f4b565b9150915081935080925050509250929050565b6000808411612124576040517f08c379a000000000000000000000000000000000000000000000000000000000815260040161211b90613e7a565b60405180910390fd5b6000831180156121345750600082115b612173576040517f08c379a000000000000000000000000000000000000000000000000000000000815260040161216a90613f0c565b60405180910390fd5b60006103e5856121839190613f2c565b9050600083826121939190613f2c565b90506000826103e8876121a69190613f2c565b6121b09190613f86565b905080826121be919061400b565b93505050509392505050565b6060600282511015612211576040517f08c379a000000000000000000000000000000000000000000000000000000000815260040161220890614088565b60405180910390fd5b815167ffffffffffffffff81111561222c5761222b6134a7565b5b60405190808252806020026020018201604052801561225a5781602001602082028036833780820191505090505b50905082816001835161226d9190613b65565b8151811061227e5761227d61393d565b5b60200260200101818152505060006001835161229a9190613b65565b90505b600081111561235d576000806122f487866001866122bb9190613b65565b815181106122cc576122cb61393d565b5b60200260200101518786815181106122e7576122e661393d565b5b6020026020010151612f4b565b9150915061231d84848151811061230e5761230d61393d565b5b60200260200101518383612da8565b8460018561232b9190613b65565b8151811061233c5761233b61393d565b5b60200260200101818152505050508080612355906140a8565b91505061229d565b509392505050565b6000806000612374858561305b565b9150915085828260405160200161238c92919061411a565b604051602081830303815290604052805190602001206040516020016123b3929190614214565b6040516020818303038152906040528051906020012060001c925050509392505050565b60005b600183516123e89190613b65565b8110156125db576000808483815181106124055761240461393d565b5b60200260200101518560018561241b9190613f86565b8151811061242c5761242b61393d565b5b6020026020010151915091506000612444838361305b565b5090506000876001866124579190613f86565b815181106124685761246761393d565b5b602002602001015190506000808373ffffffffffffffffffffffffffffffffffffffff168673ffffffffffffffffffffffffffffffffffffffff16146124b0578260006124b4565b6000835b91509150600060028a516124c89190613b65565b88106124d45788612526565b6125257f0000000000000000000000000000000000000000000000000000000000000000878c60028c6125079190613f86565b815181106125185761251761393d565b5b6020026020010151612365565b5b90506125537f00000000000000000000000000000000000000000000000000000000000000008888612365565b73ffffffffffffffffffffffffffffffffffffffff16636d9a640a8484846040518463ffffffff1660e01b815260040161258f93929190614256565b600060405180830381600087803b1580156125a957600080fd5b505af11580156125bd573d6000803e3d6000fd5b505050505050505050505080806125d39061428d565b9150506123da565b50505050565b60008273ffffffffffffffffffffffffffffffffffffffff1682600067ffffffffffffffff811115612616576126156134a7565b5b6040519080825280601f01601f1916602001820160405280156126485781602001600182028036833780820191505090505b506040516126569190614350565b60006040518083038185875af1925050503d8060008114612693576040519150601f19603f3d011682016040523d82523d6000602084013e612698565b606091505b50509050806126dc576040517f08c379a00000000000000000000000000000000000000000000000000000000081526004016126d3906143d9565b60405180910390fd5b505050565b6060600282511015612728576040517f08c379a000000000000000000000000000000000000000000000000000000000815260040161271f90614088565b60405180910390fd5b815167ffffffffffffffff811115612743576127426134a7565b5b6040519080825280602002602001820160405280156127715781602001602082028036833780820191505090505b50905082816000815181106127895761278861393d565b5b60200260200101818152505060005b600183516127a69190613b65565b811015612864576000806127fb878685815181106127c7576127c661393d565b5b6020026020010151876001876127dd9190613f86565b815181106127ee576127ed61393d565b5b6020026020010151612f4b565b915091506128248484815181106128155761281461393d565b5b602002602001015183836120e0565b846001856128329190613f86565b815181106128435761284261393d565b5b6020026020010181815250505050808061285c9061428d565b915050612798565b509392505050565b6000808573ffffffffffffffffffffffffffffffffffffffff166323b872dd8686866040516024016128a093929190613c6d565b6040516020818303038152906040529060e01b6020820180517bffffffffffffffffffffffffffffffffffffffffffffffffffffffff83818316178352505050506040516128ee9190614350565b6000604051808303816000865af19150503d806000811461292b576040519150601f19603f3d011682016040523d82523d6000602084013e612930565b606091505b509150915081801561295e575060008151148061295d57508080602001905181019061295c9190613b09565b5b5b61299d576040517f08c379a00000000000000000000000000000000000000000000000000000000081526004016129949061446b565b60405180910390fd5b505050505050565b6000808473ffffffffffffffffffffffffffffffffffffffff1663a9059cbb85856040516024016129d7929190613aa8565b6040516020818303038152906040529060e01b6020820180517bffffffffffffffffffffffffffffffffffffffffffffffffffffffff8381831617835250505050604051612a259190614350565b6000604051808303816000865af19150503d8060008114612a62576040519150601f19603f3d011682016040523d82523d6000602084013e612a67565b606091505b5091509150818015612a955750600081511480612a94575080806020019051810190612a939190613b09565b5b5b612ad4576040517f08c379a0000000000000000000000000000000000000000000000000000000008152600401612acb906144fd565b60405180910390fd5b5050505050565b600080600073ffffffffffffffffffffffffffffffffffffffff167f000000000000000000000000000000000000000000000000000000000000000073ffffffffffffffffffffffffffffffffffffffff1663e6a439058a8a6040518363ffffffff1660e01b8152600401612b5192919061451d565b60206040518083038186803b158015612b6957600080fd5b505afa158015612b7d573d6000803e3d6000fd5b505050506040513d601f19601f82011682018060405250810190612ba1919061455b565b73ffffffffffffffffffffffffffffffffffffffff161415612c6c577f000000000000000000000000000000000000000000000000000000000000000073ffffffffffffffffffffffffffffffffffffffff1663c9c6539689896040518363ffffffff1660e01b8152600401612c1892919061451d565b602060405180830381600087803b158015612c3257600080fd5b505af1158015612c46573d6000803e3d6000fd5b505050506040513d601f19601f82011682018060405250810190612c6a919061455b565b505b600080612c9a7f00000000000000000000000000000000000000000000000000000000000000008b8b612f4b565b91509150600082148015612cae5750600081145b15612cc25787878094508195505050612d9b565b6000612ccf898484612e98565b9050878111612d2a5785811015612d1b576040517f08c379a0000000000000000000000000000000000000000000000000000000008152600401612d1290613de8565b60405180910390fd5b88818095508196505050612d99565b6000612d37898486612e98565b905089811115612d4a57612d49613189565b5b87811015612d8d576040517f08c379a0000000000000000000000000000000000000000000000000000000008152600401612d8490613d56565b60405180910390fd5b80898096508197505050505b505b5050965096945050505050565b6000808411612dec576040517f08c379a0000000000000000000000000000000000000000000000000000000008152600401612de3906145fa565b60405180910390fd5b600083118015612dfc5750600082115b612e3b576040517f08c379a0000000000000000000000000000000000000000000000000000000008152600401612e3290613f0c565b60405180910390fd5b60006103e88585612e4c9190613f2c565b612e569190613f2c565b905060006103e58685612e699190613b65565b612e739190613f2c565b905060018183612e83919061400b565b612e8d9190613f86565b925050509392505050565b6000808411612edc576040517f08c379a0000000000000000000000000000000000000000000000000000000008152600401612ed39061468c565b60405180910390fd5b600083118015612eec5750600082115b612f2b576040517f08c379a0000000000000000000000000000000000000000000000000000000008152600401612f2290613f0c565b60405180910390fd5b828285612f389190613f2c565b612f42919061400b565b90509392505050565b6000806000612f5a858561305b565b509050600080612f6b888888612365565b73ffffffffffffffffffffffffffffffffffffffff16630902f1ac6040518163ffffffff1660e01b8152600401604080518083038186803b158015612faf57600080fd5b505afa158015612fc3573d6000803e3d6000fd5b505050506040513d601f19601f82011682018060405250810190612fe791906146f2565b6dffffffffffffffffffffffffffff1691506dffffffffffffffffffffffffffff1691508273ffffffffffffffffffffffffffffffffffffffff168773ffffffffffffffffffffffffffffffffffffffff1614613045578082613048565b81815b8095508196505050505050935093915050565b6000808273ffffffffffffffffffffffffffffffffffffffff168473ffffffffffffffffffffffffffffffffffffffff1614156130cd576040517f08c379a00000000000000000000000000000000000000000000000000000000081526004016130c4906147a4565b60405180910390fd5b8273ffffffffffffffffffffffffffffffffffffffff168473ffffffffffffffffffffffffffffffffffffffff161061310757828461310a565b83835b8092508193505050600073ffffffffffffffffffffffffffffffffffffffff168273ffffffffffffffffffffffffffffffffffffffff161415613182576040517f08c379a000000000000000000000000000000000000000000000000000000000815260040161317990614810565b60405180910390fd5b9250929050565b7f4e487b7100000000000000000000000000000000000000000000000000000000600052600160045260246000fd5b6000604051905090565b600080fd5b600080fd5b6000819050919050565b6131df816131cc565b81146131ea57600080fd5b50565b6000813590506131fc816131d6565b92915050565b60008060006060848603121561321b5761321a6131c2565b5b6000613229868287016131ed565b935050602061323a868287016131ed565b925050604061324b868287016131ed565b9150509250925092565b61325e816131cc565b82525050565b60006020820190506132796000830184613255565b92915050565b600080fd5b600080fd5b600080fd5b60008083601f8401126132a4576132a361327f565b5b8235905067ffffffffffffffff8111156132c1576132c0613284565b5b6020830191508360208202830111156132dd576132dc613289565b5b9250929050565b600073ffffffffffffffffffffffffffffffffffffffff82169050919050565b600061330f826132e4565b9050919050565b61331f81613304565b811461332a57600080fd5b50565b60008135905061333c81613316565b92915050565b6000806000806060858703121561335c5761335b6131c2565b5b600061336a878288016131ed565b945050602085013567ffffffffffffffff81111561338b5761338a6131c7565b5b6133978782880161328e565b935093505060406133aa8782880161332d565b91505092959194509250565b600081519050919050565b600082825260208201905092915050565b6000819050602082019050919050565b6133eb816131cc565b82525050565b60006133fd83836133e2565b60208301905092915050565b6000602082019050919050565b6000613421826133b6565b61342b81856133c1565b9350613436836133d2565b8060005b8381101561346757815161344e88826133f1565b975061345983613409565b92505060018101905061343a565b5085935050505092915050565b6000602082019050818103600083015261348e8184613416565b905092915050565b6000601f19601f8301169050919050565b7f4e487b7100000000000000000000000000000000000000000000000000000000600052604160045260246000fd5b6134df82613496565b810181811067ffffffffffffffff821117156134fe576134fd6134a7565b5b80604052505050565b60006135116131b8565b905061351d82826134d6565b919050565b600067ffffffffffffffff82111561353d5761353c6134a7565b5b602082029050602081019050919050565b600061356161355c84613522565b613507565b9050808382526020820190506020840283018581111561358457613583613289565b5b835b818110156135ad5780613599888261332d565b845260208401935050602081019050613586565b5050509392505050565b600082601f8301126135cc576135cb61327f565b5b81356135dc84826020860161354e565b91505092915050565b600080604083850312156135fc576135fb6131c2565b5b600061360a858286016131ed565b925050602083013567ffffffffffffffff81111561362b5761362a6131c7565b5b613637858286016135b7565b9150509250929050565b60008060008060006080868803121561365d5761365c6131c2565b5b600061366b888289016131ed565b955050602061367c888289016131ed565b945050604086013567ffffffffffffffff81111561369d5761369c6131c7565b5b6136a98882890161328e565b935093505060606136bc8882890161332d565b9150509295509295909350565b600080600080600060a086880312156136e5576136e46131c2565b5b60006136f38882890161332d565b9550506020613704888289016131ed565b9450506040613715888289016131ed565b9350506060613726888289016131ed565b92505060806137378882890161332d565b9150509295509295909350565b60006040820190506137596000830185613255565b6137666020830184613255565b9392505050565b60006060820190506137826000830186613255565b61378f6020830185613255565b61379c6040830184613255565b949350505050565b6137ad81613304565b82525050565b60006020820190506137c860008301846137a4565b92915050565b600080604083850312156137e5576137e46131c2565b5b60006137f38582860161332d565b92505060206138048582860161332d565b9150509250929050565b60008060008060008060c0878903121561382b5761382a6131c2565b5b600061383989828a0161332d565b965050602061384a89828a0161332d565b955050604061385b89828a016131ed565b945050606061386c89828a016131ed565b935050608061387d89828a016131ed565b92505060a061388e89828a0161332d565b9150509295509295509295565b600080600080600080600060e0888a0312156138ba576138b96131c2565b5b60006138c88a828b0161332d565b97505060206138d98a828b0161332d565b96505060406138ea8a828b016131ed565b95505060606138fb8a828b016131ed565b945050608061390c8a828b016131ed565b93505060a061391d8a828b016131ed565b92505060c061392e8a828b0161332d565b91505092959891949750929550565b7f4e487b7100000000000000000000000000000000000000000000000000000000600052603260045260246000fd5b600060208284031215613982576139816131c2565b5b60006139908482850161332d565b91505092915050565b600082825260208201905092915050565b7f556e69737761705632526f757465723a20494e56414c49445f50415448000000600082015250565b60006139e0601d83613999565b91506139eb826139aa565b602082019050919050565b60006020820190508181036000830152613a0f816139d3565b9050919050565b7f556e69737761705632526f757465723a204558434553534956455f494e50555460008201527f5f414d4f554e5400000000000000000000000000000000000000000000000000602082015250565b6000613a72602783613999565b9150613a7d82613a16565b604082019050919050565b60006020820190508181036000830152613aa181613a65565b9050919050565b6000604082019050613abd60008301856137a4565b613aca6020830184613255565b9392505050565b60008115159050919050565b613ae681613ad1565b8114613af157600080fd5b50565b600081519050613b0381613add565b92915050565b600060208284031215613b1f57613b1e6131c2565b5b6000613b2d84828501613af4565b91505092915050565b7f4e487b7100000000000000000000000000000000000000000000000000000000600052601160045260246000fd5b6000613b70826131cc565b9150613b7b836131cc565b925082821015613b8e57613b8d613b36565b5b828203905092915050565b7f556e69737761705632526f757465723a20494e53554646494349454e545f4f5560008201527f545055545f414d4f554e54000000000000000000000000000000000000000000602082015250565b6000613bf5602b83613999565b9150613c0082613b99565b604082019050919050565b60006020820190508181036000830152613c2481613be8565b9050919050565b600081519050613c3a816131d6565b92915050565b600060208284031215613c5657613c556131c2565b5b6000613c6484828501613c2b565b91505092915050565b6000606082019050613c8260008301866137a4565b613c8f60208301856137a4565b613c9c6040830184613255565b949350505050565b60008060408385031215613cbb57613cba6131c2565b5b6000613cc985828601613c2b565b9250506020613cda85828601613c2b565b9150509250929050565b7f556e69737761705632526f757465723a20494e53554646494349454e545f415f60008201527f414d4f554e540000000000000000000000000000000000000000000000000000602082015250565b6000613d40602683613999565b9150613d4b82613ce4565b604082019050919050565b60006020820190508181036000830152613d6f81613d33565b9050919050565b7f556e69737761705632526f757465723a20494e53554646494349454e545f425f60008201527f414d4f554e540000000000000000000000000000000000000000000000000000602082015250565b6000613dd2602683613999565b9150613ddd82613d76565b604082019050919050565b60006020820190508181036000830152613e0181613dc5565b9050919050565b7f556e697377617056324c6962726172793a20494e53554646494349454e545f4960008201527f4e5055545f414d4f554e54000000000000000000000000000000000000000000602082015250565b6000613e64602b83613999565b9150613e6f82613e08565b604082019050919050565b60006020820190508181036000830152613e9381613e57565b9050919050565b7f556e697377617056324c6962726172793a20494e53554646494349454e545f4c60008201527f4951554944495459000000000000000000000000000000000000000000000000602082015250565b6000613ef6602883613999565b9150613f0182613e9a565b604082019050919050565b60006020820190508181036000830152613f2581613ee9565b9050919050565b6000613f37826131cc565b9150613f42836131cc565b9250817fffffffffffffffffffffffffffffffffffffffffffffffffffffffffffffffff0483118215151615613f7b57613f7a613b36565b5b828202905092915050565b6000613f91826131cc565b9150613f9c836131cc565b9250827fffffffffffffffffffffffffffffffffffffffffffffffffffffffffffffffff03821115613fd157613fd0613b36565b5b828201905092915050565b7f4e487b7100000000000000000000000000000000000000000000000000000000600052601260045260246000fd5b6000614016826131cc565b9150614021836131cc565b92508261403157614030613fdc565b5b828204905092915050565b7f556e697377617056324c6962726172793a20494e56414c49445f504154480000600082015250565b6000614072601e83613999565b915061407d8261403c565b602082019050919050565b600060208201905081810360008301526140a181614065565b9050919050565b60006140b3826131cc565b915060008214156140c7576140c6613b36565b5b600182039050919050565b60008160601b9050919050565b60006140ea826140d2565b9050919050565b60006140fc826140df565b9050919050565b61411461410f82613304565b6140f1565b82525050565b60006141268285614103565b6014820191506141368284614103565b6014820191508190509392505050565b600081905092915050565b7fff00000000000000000000000000000000000000000000000000000000000000600082015250565b6000614187600183614146565b915061419282614151565b600182019050919050565b6000819050919050565b6000819050919050565b6141c26141bd8261419d565b6141a7565b82525050565b7f521bf869263c9263d9ba1f6250147964a5aa25775fa6b99ed02ea8d69cb820ab600082015250565b60006141fe602083614146565b9150614209826141c8565b602082019050919050565b600061421f8261417a565b915061422b8285614103565b60148201915061423b82846141b1565b60208201915061424a826141f1565b91508190509392505050565b600060608201905061426b6000830186613255565b6142786020830185613255565b61428560408301846137a4565b949350505050565b6000614298826131cc565b91507fffffffffffffffffffffffffffffffffffffffffffffffffffffffffffffffff8214156142cb576142ca613b36565b5b600182019050919050565b600081519050919050565b600081905092915050565b60005b8381101561430a5780820151818401526020810190506142ef565b83811115614319576000848401525b50505050565b600061432a826142d6565b61433481856142e1565b93506143448185602086016142ec565b80840191505092915050565b600061435c828461431f565b915081905092915050565b7f5472616e7366657248656c7065723a3a736166655472616e736665724554483a60008201527f20455448207472616e73666572206661696c6564000000000000000000000000602082015250565b60006143c3603483613999565b91506143ce82614367565b604082019050919050565b600060208201905081810360008301526143f2816143b6565b9050919050565b7f5472616e7366657248656c7065723a3a7472616e7366657246726f6d3a20747260008201527f616e7366657246726f6d206661696c6564000000000000000000000000000000602082015250565b6000614455603183613999565b9150614460826143f9565b604082019050919050565b6000602082019050818103600083015261448481614448565b9050919050565b7f5472616e7366657248656c7065723a3a736166655472616e736665723a20747260008201527f616e73666572206661696c656400000000000000000000000000000000000000602082015250565b60006144e7602d83613999565b91506144f28261448b565b604082019050919050565b60006020820190508181036000830152614516816144da565b9050919050565b600060408201905061453260008301856137a4565b61453f60208301846137a4565b9392505050565b60008151905061455581613316565b92915050565b600060208284031215614571576145706131c2565b5b600061457f84828501614546565b91505092915050565b7f556e697377617056324c6962726172793a20494e53554646494349454e545f4f60008201527f55545055545f414d4f554e540000000000000000000000000000000000000000602082015250565b60006145e4602c83613999565b91506145ef82614588565b604082019050919050565b60006020820190508181036000830152614613816145d7565b9050919050565b7f556e697377617056324c6962726172793a20494e53554646494349454e545f4160008201527f4d4f554e54000000000000000000000000000000000000000000000000000000602082015250565b6000614676602583613999565b91506146818261461a565b604082019050919050565b600060208201905081810360008301526146a581614669565b9050919050565b60006dffffffffffffffffffffffffffff82169050919050565b6146cf816146ac565b81146146da57600080fd5b50565b6000815190506146ec816146c6565b92915050565b60008060408385031215614709576147086131c2565b5b6000614717858286016146dd565b9250506020614728858286016146dd565b9150509250929050565b7f556e697377617056324c6962726172793a204944454e544943414c5f4144445260008201527f4553534553000000000000000000000000000000000000000000000000000000602082015250565b600061478e602583613999565b915061479982614732565b604082019050919050565b600060208201905081810360008301526147bd81614781565b9050919050565b7f556e697377617056324c6962726172793a205a45524f5f414444524553530000600082015250565b60006147fa601e83613999565b9150614805826147c4565b602082019050919050565b60006020820190508181036000830152614829816147ed565b905091905056fea2646970667358221220e808ac86db0336096fb384dfb557cd33035a81605c3e7d0d1af3c460439370a664736f6c63430008080033",
  "linkReferences": {},
  "deployedLinkReferences": {}
}