{
  "_format": "hh-sol-artifact-1",
  "contractName": "ZombSimpleExchange",
  "sourceName": "contracts/testMultiPool.sol",
  "abi": [
    {
      "anonymous": false,
      "inputs": [
        {
          "indexed": false,
          "internalType": "string",
          "name": "poolName",
          "type": "string"
        },
        {
          "indexed": false,
          "internalType": "uint256",
          "name": "reserve0",
          "type": "uint256"
        },
        {
          "indexed": false,
          "internalType": "uint256",
          "name": "reserve1",
          "type": "uint256"
        },
        {
          "indexed": false,
          "internalType": "uint256",
          "name": "totalSupply",
          "type": "uint256"
        }
      ],
      "name": "LogLiquidity",
      "type": "event"
    },
    {
      "anonymous": false,
      "inputs": [
        {
          "indexed": false,
          "internalType": "string",
          "name": "poolName",
          "type": "string"
        },
        {
          "indexed": false,
          "internalType": "uint256",
          "name": "poolId",
          "type": "uint256"
        }
      ],
      "name": "LogSetPool",
      "type": "event"
    },
    {
      "inputs": [],
      "name": "MINIMUN_LIQUIDITY",
      "outputs": [
        {
          "internalType": "uint256",
          "name": "",
          "type": "uint256"
        }
      ],
      "stateMutability": "view",
      "type": "function"
    },
    {
      "inputs": [
        {
          "internalType": "string",
          "name": "_poolName",
          "type": "string"
        },
        {
          "internalType": "uint256",
          "name": "_amount0",
          "type": "uint256"
        },
        {
          "internalType": "uint256",
          "name": "_amount1",
          "type": "uint256"
        }
      ],
      "name": "addLiquidity",
      "outputs": [],
      "stateMutability": "nonpayable",
      "type": "function"
    },
    {
      "inputs": [
        {
          "internalType": "address",
          "name": "a",
          "type": "address"
        },
        {
          "internalType": "string",
          "name": "_poolName",
          "type": "string"
        }
      ],
      "name": "getBalance",
      "outputs": [
        {
          "internalType": "uint256",
          "name": "_liqudity",
          "type": "uint256"
        }
      ],
      "stateMutability": "view",
      "type": "function"
    },
    {
      "inputs": [
        {
          "internalType": "string",
          "name": "_poolName",
          "type": "string"
        }
      ],
      "name": "getReserves",
      "outputs": [
        {
          "internalType": "uint256",
          "name": "_reserve0",
          "type": "uint256"
        },
        {
          "internalType": "uint256",
          "name": "_reserve1",
          "type": "uint256"
        }
      ],
      "stateMutability": "view",
      "type": "function"
    },
    {
      "inputs": [
        {
          "internalType": "string",
          "name": "_poolName",
          "type": "string"
        }
      ],
      "name": "removeLiquidity",
      "outputs": [],
      "stateMutability": "nonpayable",
      "type": "function"
    },
    {
      "inputs": [
        {
          "internalType": "string",
          "name": "_poolName",
          "type": "string"
        },
        {
          "internalType": "address",
          "name": "_token0",
          "type": "address"
        },
        {
          "internalType": "address",
          "name": "_token1",
          "type": "address"
        }
      ],
      "name": "setPool",
      "outputs": [],
      "stateMutability": "nonpayable",
      "type": "function"
    },
    {
      "inputs": [
        {
          "internalType": "string",
          "name": "_poolName",
          "type": "string"
        },
        {
          "internalType": "uint256",
          "name": "amountA",
          "type": "uint256"
        }
      ],
      "name": "swapAtoB",
      "outputs": [],
      "stateMutability": "nonpayable",
      "type": "function"
    },
    {
      "inputs": [
        {
          "internalType": "string",
          "name": "_poolName",
          "type": "string"
        },
        {
          "internalType": "uint256",
          "name": "amountB",
          "type": "uint256"
        }
      ],
      "name": "swapBtoA",
      "outputs": [],
      "stateMutability": "nonpayable",
      "type": "function"
    }
  ],
  "bytecode": "0x60806040526000805534801561001457600080fd5b50611bd3806100246000396000f3fe608060405234801561001057600080fd5b50600436106100885760003560e01c80639862d4411161005b5780639862d44114610113578063b00a0d961461012f578063bff390a71461014b578063c00ce6d91461016757610088565b80631dd7cecf1461008d57806324eab164146100bd5780632c22551a146100d95780632c2fb995146100f5575b600080fd5b6100a760048036038101906100a2919061148b565b610198565b6040516100b49190611500565b60405180910390f35b6100d760048036038101906100d29190611547565b610219565b005b6100f360048036038101906100ee91906115a3565b6104a1565b005b6100fd610855565b60405161010a9190611500565b60405180910390f35b61012d600480360381019061012891906115ec565b61085b565b005b61014960048036038101906101449190611547565b610abd565b005b6101656004803603810190610160919061165b565b610d45565b005b610181600480360381019061017c91906115a3565b611129565b60405161018f9291906116ca565b60405180910390f35b6000806002836040516101ab919061176d565b90815260200160405180910390205490506001600082815260200190815260200160002060060160008573ffffffffffffffffffffffffffffffffffffffff1673ffffffffffffffffffffffffffffffffffffffff1681526020019081526020016000205491505092915050565b600060028360405161022b919061176d565b908152602001604051809103902054905060006001600083815260200190815260200160002060030154905060006001600084815260200190815260200160002060040154905060006001600085815260200190815260200160002060010160009054906101000a900473ffffffffffffffffffffffffffffffffffffffff16905060006001600086815260200190815260200160002060020160009054906101000a900473ffffffffffffffffffffffffffffffffffffffff1690508073ffffffffffffffffffffffffffffffffffffffff166323b872dd3330896040518463ffffffff1660e01b815260040161032593929190611793565b602060405180830381600087803b15801561033f57600080fd5b505af1158015610353573d6000803e3d6000fd5b505050506040513d601f19601f820116820180604052508101906103779190611802565b5060008385610386919061185e565b90506000878561039691906118b8565b82876103a2919061193d565b6103ac919061196e565b9050806001600089815260200190815260200160002060030160008282546103d4919061196e565b925050819055508760016000898152602001908152602001600020600401600082825461040191906118b8565b925050819055508373ffffffffffffffffffffffffffffffffffffffff1663a9059cbb33836040518363ffffffff1660e01b81526004016104439291906119a2565b602060405180830381600087803b15801561045d57600080fd5b505af1158015610471573d6000803e3d6000fd5b505050506040513d601f19601f820116820180604052508101906104959190611802565b50505050505050505050565b60006002826040516104b3919061176d565b908152602001604051809103902054905060006001600083815260200190815260200160002060030154905060006001600084815260200190815260200160002060040154905060006001600085815260200190815260200160002060050154905060006001600086815260200190815260200160002060010160009054906101000a900473ffffffffffffffffffffffffffffffffffffffff16905060006001600087815260200190815260200160002060020160009054906101000a900473ffffffffffffffffffffffffffffffffffffffff16905060006001600088815260200190815260200160002060060160003373ffffffffffffffffffffffffffffffffffffffff1673ffffffffffffffffffffffffffffffffffffffff1681526020019081526020016000205490506000846105f9888461118790919063ffffffff16565b610603919061193d565b905060008561061b888561118790919063ffffffff16565b610625919061193d565b905081600160008b8152602001908152602001600020600301600082825461064d919061196e565b9250508190555080600160008b8152602001908152602001600020600401600082825461067a919061196e565b9250508190555082600160008b815260200190815260200160002060050160008282546106a7919061196e565b925050819055507fd38cfec2e7e5b70da1ec6ca422bb904478299dc73cea59edd77745a5ab4655fc8a600160008c815260200190815260200160002060030154600160008d815260200190815260200160002060040154600160008e8152602001908152602001600020600501546040516107259493929190611a15565b60405180910390a18473ffffffffffffffffffffffffffffffffffffffff1663a9059cbb33846040518363ffffffff1660e01b81526004016107689291906119a2565b602060405180830381600087803b15801561078257600080fd5b505af1158015610796573d6000803e3d6000fd5b505050506040513d601f19601f820116820180604052508101906107ba9190611802565b508373ffffffffffffffffffffffffffffffffffffffff1663a9059cbb33836040518363ffffffff1660e01b81526004016107f69291906119a2565b602060405180830381600087803b15801561081057600080fd5b505af1158015610824573d6000803e3d6000fd5b505050506040513d601f19601f820116820180604052508101906108489190611802565b5050505050505050505050565b6103e881565b8260008060028360405161086f919061176d565b9081526020016040518091039020549050816108f85782604051602001610896919061176d565b60405160208183030381529060405280519060200120600160008381526020019081526020016000206000016040516020016108d29190611b56565b6040516020818303038152906040528051906020012014156108f357600080fd5b610966565b82604051602001610909919061176d565b60405160208183030381529060405280519060200120600160008381526020019081526020016000206000016040516020016109459190611b56565b604051602081830303815290604052805190602001201461096557600080fd5b5b60006001600080548152602001908152602001600020905086816000019080519060200190610996929190611230565b50858160010160006101000a81548173ffffffffffffffffffffffffffffffffffffffff021916908373ffffffffffffffffffffffffffffffffffffffff160217905550848160020160006101000a81548173ffffffffffffffffffffffffffffffffffffffff021916908373ffffffffffffffffffffffffffffffffffffffff1602179055506000816003018190555060008160040181905550600081600501819055507f0dd5390df71f5d00e4598eea632a7ad506665e6f104ceb6e4f4be1158770307287600054604051610a6e929190611b6d565b60405180910390a1600054600288604051610a89919061176d565b9081526020016040518091039020819055506001600080828254610aad91906118b8565b9250508190555050505050505050565b6000600283604051610acf919061176d565b908152602001604051809103902054905060006001600083815260200190815260200160002060030154905060006001600084815260200190815260200160002060040154905060006001600085815260200190815260200160002060010160009054906101000a900473ffffffffffffffffffffffffffffffffffffffff16905060006001600086815260200190815260200160002060020160009054906101000a900473ffffffffffffffffffffffffffffffffffffffff1690508173ffffffffffffffffffffffffffffffffffffffff166323b872dd3330896040518463ffffffff1660e01b8152600401610bc993929190611793565b602060405180830381600087803b158015610be357600080fd5b505af1158015610bf7573d6000803e3d6000fd5b505050506040513d601f19601f82011682018060405250810190610c1b9190611802565b5060008385610c2a919061185e565b905060008786610c3a91906118b8565b82610c45919061193d565b85610c50919061196e565b905087600160008981526020019081526020016000206003016000828254610c7891906118b8565b9250508190555080600160008981526020019081526020016000206004016000828254610ca5919061196e565b925050819055508273ffffffffffffffffffffffffffffffffffffffff1663a9059cbb33836040518363ffffffff1660e01b8152600401610ce79291906119a2565b602060405180830381600087803b158015610d0157600080fd5b505af1158015610d15573d6000803e3d6000fd5b505050506040513d601f19601f82011682018060405250810190610d399190611802565b50505050505050505050565b6000600284604051610d57919061176d565b90815260200160405180910390205490506000806001600084815260200190815260200160002060030154905060006001600085815260200190815260200160002060040154905060006001600086815260200190815260200160002060050154905060006001600087815260200190815260200160002060010160009054906101000a900473ffffffffffffffffffffffffffffffffffffffff16905060006001600088815260200190815260200160002060020160009054906101000a900473ffffffffffffffffffffffffffffffffffffffff1690506000851415610e5457610e4d888a610e48919061185e565b61119d565b9550610e8d565b610e8a85848b610e64919061185e565b610e6e919061193d565b85858b610e7b919061185e565b610e85919061193d565b611217565b95505b856001600089815260200190815260200160002060060160003373ffffffffffffffffffffffffffffffffffffffff1673ffffffffffffffffffffffffffffffffffffffff1681526020019081526020016000206000828254610ef091906118b8565b9250508190555085600160008981526020019081526020016000206005016000828254610f1d91906118b8565b9250508190555088600160008981526020019081526020016000206003016000828254610f4a91906118b8565b9250508190555087600160008981526020019081526020016000206004016000828254610f7791906118b8565b925050819055507fd38cfec2e7e5b70da1ec6ca422bb904478299dc73cea59edd77745a5ab4655fc8a600160008a815260200190815260200160002060030154600160008b815260200190815260200160002060040154600160008c815260200190815260200160002060050154604051610ff59493929190611a15565b60405180910390a18173ffffffffffffffffffffffffffffffffffffffff166323b872dd33308c6040518463ffffffff1660e01b815260040161103a93929190611793565b602060405180830381600087803b15801561105457600080fd5b505af1158015611068573d6000803e3d6000fd5b505050506040513d601f19601f8201168201806040525081019061108c9190611802565b508073ffffffffffffffffffffffffffffffffffffffff166323b872dd33308b6040518463ffffffff1660e01b81526004016110ca93929190611793565b602060405180830381600087803b1580156110e457600080fd5b505af11580156110f8573d6000803e3d6000fd5b505050506040513d601f19601f8201168201806040525081019061111c9190611802565b5050505050505050505050565b600080600060028460405161113e919061176d565b9081526020016040518091039020549050600160008281526020019081526020016000206003015492506001600082815260200190815260200160002060040154915050915091565b60008183611195919061185e565b905092915050565b6000600382111561120457819050600060016002846111bc919061193d565b6111c691906118b8565b90505b818110156111fe5780915060028182856111e3919061193d565b6111ed91906118b8565b6111f7919061193d565b90506111c9565b50611212565b6000821461121157600190505b5b919050565b60008183106112265781611228565b825b905092915050565b82805461123c90611a90565b90600052602060002090601f01602090048101928261125e57600085556112a5565b82601f1061127757805160ff19168380011785556112a5565b828001600101855582156112a5579182015b828111156112a4578251825591602001919060010190611289565b5b5090506112b291906112b6565b5090565b5b808211156112cf5760008160009055506001016112b7565b5090565b6000604051905090565b600080fd5b600080fd5b600073ffffffffffffffffffffffffffffffffffffffff82169050919050565b6000611312826112e7565b9050919050565b61132281611307565b811461132d57600080fd5b50565b60008135905061133f81611319565b92915050565b600080fd5b600080fd5b6000601f19601f8301169050919050565b7f4e487b7100000000000000000000000000000000000000000000000000000000600052604160045260246000fd5b6113988261134f565b810181811067ffffffffffffffff821117156113b7576113b6611360565b5b80604052505050565b60006113ca6112d3565b90506113d6828261138f565b919050565b600067ffffffffffffffff8211156113f6576113f5611360565b5b6113ff8261134f565b9050602081019050919050565b82818337600083830152505050565b600061142e611429846113db565b6113c0565b90508281526020810184848401111561144a5761144961134a565b5b61145584828561140c565b509392505050565b600082601f83011261147257611471611345565b5b813561148284826020860161141b565b91505092915050565b600080604083850312156114a2576114a16112dd565b5b60006114b085828601611330565b925050602083013567ffffffffffffffff8111156114d1576114d06112e2565b5b6114dd8582860161145d565b9150509250929050565b6000819050919050565b6114fa816114e7565b82525050565b600060208201905061151560008301846114f1565b92915050565b611524816114e7565b811461152f57600080fd5b50565b6000813590506115418161151b565b92915050565b6000806040838503121561155e5761155d6112dd565b5b600083013567ffffffffffffffff81111561157c5761157b6112e2565b5b6115888582860161145d565b925050602061159985828601611532565b9150509250929050565b6000602082840312156115b9576115b86112dd565b5b600082013567ffffffffffffffff8111156115d7576115d66112e2565b5b6115e38482850161145d565b91505092915050565b600080600060608486031215611605576116046112dd565b5b600084013567ffffffffffffffff811115611623576116226112e2565b5b61162f8682870161145d565b935050602061164086828701611330565b925050604061165186828701611330565b9150509250925092565b600080600060608486031215611674576116736112dd565b5b600084013567ffffffffffffffff811115611692576116916112e2565b5b61169e8682870161145d565b93505060206116af86828701611532565b92505060406116c086828701611532565b9150509250925092565b60006040820190506116df60008301856114f1565b6116ec60208301846114f1565b9392505050565b600081519050919050565b600081905092915050565b60005b8381101561172757808201518184015260208101905061170c565b83811115611736576000848401525b50505050565b6000611747826116f3565b61175181856116fe565b9350611761818560208601611709565b80840191505092915050565b6000611779828461173c565b915081905092915050565b61178d81611307565b82525050565b60006060820190506117a86000830186611784565b6117b56020830185611784565b6117c260408301846114f1565b949350505050565b60008115159050919050565b6117df816117ca565b81146117ea57600080fd5b50565b6000815190506117fc816117d6565b92915050565b600060208284031215611818576118176112dd565b5b6000611826848285016117ed565b91505092915050565b7f4e487b7100000000000000000000000000000000000000000000000000000000600052601160045260246000fd5b6000611869826114e7565b9150611874836114e7565b9250817fffffffffffffffffffffffffffffffffffffffffffffffffffffffffffffffff04831182151516156118ad576118ac61182f565b5b828202905092915050565b60006118c3826114e7565b91506118ce836114e7565b9250827fffffffffffffffffffffffffffffffffffffffffffffffffffffffffffffffff038211156119035761190261182f565b5b828201905092915050565b7f4e487b7100000000000000000000000000000000000000000000000000000000600052601260045260246000fd5b6000611948826114e7565b9150611953836114e7565b9250826119635761196261190e565b5b828204905092915050565b6000611979826114e7565b9150611984836114e7565b9250828210156119975761199661182f565b5b828203905092915050565b60006040820190506119b76000830185611784565b6119c460208301846114f1565b9392505050565b600082825260208201905092915050565b60006119e7826116f3565b6119f181856119cb565b9350611a01818560208601611709565b611a0a8161134f565b840191505092915050565b60006080820190508181036000830152611a2f81876119dc565b9050611a3e60208301866114f1565b611a4b60408301856114f1565b611a5860608301846114f1565b95945050505050565b7f4e487b7100000000000000000000000000000000000000000000000000000000600052602260045260246000fd5b60006002820490506001821680611aa857607f821691505b60208210811415611abc57611abb611a61565b5b50919050565b60008190508160005260206000209050919050565b60008154611ae481611a90565b611aee81866116fe565b94506001821660008114611b095760018114611b1a57611b4d565b60ff19831686528186019350611b4d565b611b2385611ac2565b60005b83811015611b4557815481890152600182019150602081019050611b26565b838801955050505b50505092915050565b6000611b628284611ad7565b915081905092915050565b60006040820190508181036000830152611b8781856119dc565b9050611b9660208301846114f1565b939250505056fea2646970667358221220188f38fec5bb5cfc2596b0b32e7c9e2e47629d98ece67bfd92e633b88e3d3dcc64736f6c63430008080033",
  "linkReferences": {},
  "deployedLinkReferences": {}
}