{
  "_format": "hh-sol-artifact-1",
  "contractName": "UniswapV2Pair",
  "sourceName": "contracts/Uni_v2_Pair.sol",
  "abi": [
    {
      "inputs": [],
      "stateMutability": "nonpayable",
      "type": "constructor"
    },
    {
      "anonymous": false,
      "inputs": [
        {
          "indexed": true,
          "internalType": "address",
          "name": "owner",
          "type": "address"
        },
        {
          "indexed": true,
          "internalType": "address",
          "name": "spender",
          "type": "address"
        },
        {
          "indexed": false,
          "internalType": "uint256",
          "name": "value",
          "type": "uint256"
        }
      ],
      "name": "Approval",
      "type": "event"
    },
    {
      "anonymous": false,
      "inputs": [
        {
          "indexed": true,
          "internalType": "address",
          "name": "sender",
          "type": "address"
        },
        {
          "indexed": false,
          "internalType": "uint256",
          "name": "amount0",
          "type": "uint256"
        },
        {
          "indexed": false,
          "internalType": "uint256",
          "name": "amount1",
          "type": "uint256"
        },
        {
          "indexed": true,
          "internalType": "address",
          "name": "to",
          "type": "address"
        }
      ],
      "name": "Burn",
      "type": "event"
    },
    {
      "anonymous": false,
      "inputs": [
        {
          "indexed": true,
          "internalType": "address",
          "name": "sender",
          "type": "address"
        },
        {
          "indexed": false,
          "internalType": "uint256",
          "name": "amount0",
          "type": "uint256"
        },
        {
          "indexed": false,
          "internalType": "uint256",
          "name": "amount1",
          "type": "uint256"
        }
      ],
      "name": "Mint",
      "type": "event"
    },
    {
      "anonymous": false,
      "inputs": [
        {
          "indexed": true,
          "internalType": "address",
          "name": "sender",
          "type": "address"
        },
        {
          "indexed": false,
          "internalType": "uint256",
          "name": "amount0In",
          "type": "uint256"
        },
        {
          "indexed": false,
          "internalType": "uint256",
          "name": "amount1In",
          "type": "uint256"
        },
        {
          "indexed": false,
          "internalType": "uint256",
          "name": "amount0Out",
          "type": "uint256"
        },
        {
          "indexed": false,
          "internalType": "uint256",
          "name": "amount1Out",
          "type": "uint256"
        },
        {
          "indexed": true,
          "internalType": "address",
          "name": "to",
          "type": "address"
        }
      ],
      "name": "Swap",
      "type": "event"
    },
    {
      "anonymous": false,
      "inputs": [
        {
          "indexed": false,
          "internalType": "uint256",
          "name": "reserve0",
          "type": "uint256"
        },
        {
          "indexed": false,
          "internalType": "uint256",
          "name": "reserve1",
          "type": "uint256"
        }
      ],
      "name": "Sync",
      "type": "event"
    },
    {
      "anonymous": false,
      "inputs": [
        {
          "indexed": true,
          "internalType": "address",
          "name": "from",
          "type": "address"
        },
        {
          "indexed": true,
          "internalType": "address",
          "name": "to",
          "type": "address"
        },
        {
          "indexed": false,
          "internalType": "uint256",
          "name": "value",
          "type": "uint256"
        }
      ],
      "name": "Transfer",
      "type": "event"
    },
    {
      "inputs": [],
      "name": "MINIMUM_LIQUIDITY",
      "outputs": [
        {
          "internalType": "uint256",
          "name": "",
          "type": "uint256"
        }
      ],
      "stateMutability": "view",
      "type": "function"
    },
    {
      "inputs": [
        {
          "internalType": "address",
          "name": "",
          "type": "address"
        },
        {
          "internalType": "address",
          "name": "",
          "type": "address"
        }
      ],
      "name": "allowance",
      "outputs": [
        {
          "internalType": "uint256",
          "name": "",
          "type": "uint256"
        }
      ],
      "stateMutability": "view",
      "type": "function"
    },
    {
      "inputs": [
        {
          "internalType": "address",
          "name": "spender",
          "type": "address"
        },
        {
          "internalType": "uint256",
          "name": "value",
          "type": "uint256"
        }
      ],
      "name": "approve",
      "outputs": [
        {
          "internalType": "bool",
          "name": "",
          "type": "bool"
        }
      ],
      "stateMutability": "nonpayable",
      "type": "function"
    },
    {
      "inputs": [
        {
          "internalType": "address",
          "name": "",
          "type": "address"
        }
      ],
      "name": "balanceOf",
      "outputs": [
        {
          "internalType": "uint256",
          "name": "",
          "type": "uint256"
        }
      ],
      "stateMutability": "view",
      "type": "function"
    },
    {
      "inputs": [
        {
          "internalType": "address",
          "name": "to",
          "type": "address"
        }
      ],
      "name": "burn",
      "outputs": [
        {
          "internalType": "uint256",
          "name": "amount0",
          "type": "uint256"
        },
        {
          "internalType": "uint256",
          "name": "amount1",
          "type": "uint256"
        }
      ],
      "stateMutability": "nonpayable",
      "type": "function"
    },
    {
      "inputs": [],
      "name": "decimals",
      "outputs": [
        {
          "internalType": "uint8",
          "name": "",
          "type": "uint8"
        }
      ],
      "stateMutability": "view",
      "type": "function"
    },
    {
      "inputs": [],
      "name": "factory",
      "outputs": [
        {
          "internalType": "address",
          "name": "",
          "type": "address"
        }
      ],
      "stateMutability": "view",
      "type": "function"
    },
    {
      "inputs": [],
      "name": "getReserves",
      "outputs": [
        {
          "internalType": "uint256",
          "name": "_reserve0",
          "type": "uint256"
        },
        {
          "internalType": "uint256",
          "name": "_reserve1",
          "type": "uint256"
        }
      ],
      "stateMutability": "view",
      "type": "function"
    },
    {
      "inputs": [
        {
          "internalType": "address",
          "name": "_token0",
          "type": "address"
        },
        {
          "internalType": "address",
          "name": "_token1",
          "type": "address"
        }
      ],
      "name": "initialize",
      "outputs": [],
      "stateMutability": "nonpayable",
      "type": "function"
    },
    {
      "inputs": [
        {
          "internalType": "address",
          "name": "to",
          "type": "address"
        }
      ],
      "name": "mint",
      "outputs": [
        {
          "internalType": "uint256",
          "name": "liquidity",
          "type": "uint256"
        }
      ],
      "stateMutability": "nonpayable",
      "type": "function"
    },
    {
      "inputs": [],
      "name": "name",
      "outputs": [
        {
          "internalType": "string",
          "name": "",
          "type": "string"
        }
      ],
      "stateMutability": "view",
      "type": "function"
    },
    {
      "inputs": [
        {
          "internalType": "address",
          "name": "to",
          "type": "address"
        }
      ],
      "name": "skim",
      "outputs": [],
      "stateMutability": "nonpayable",
      "type": "function"
    },
    {
      "inputs": [
        {
          "internalType": "uint256",
          "name": "amount0Out",
          "type": "uint256"
        },
        {
          "internalType": "uint256",
          "name": "amount1Out",
          "type": "uint256"
        },
        {
          "internalType": "address",
          "name": "to",
          "type": "address"
        }
      ],
      "name": "swap",
      "outputs": [],
      "stateMutability": "nonpayable",
      "type": "function"
    },
    {
      "inputs": [],
      "name": "symbol",
      "outputs": [
        {
          "internalType": "string",
          "name": "",
          "type": "string"
        }
      ],
      "stateMutability": "view",
      "type": "function"
    },
    {
      "inputs": [],
      "name": "sync",
      "outputs": [],
      "stateMutability": "nonpayable",
      "type": "function"
    },
    {
      "inputs": [],
      "name": "token0",
      "outputs": [
        {
          "internalType": "address",
          "name": "",
          "type": "address"
        }
      ],
      "stateMutability": "view",
      "type": "function"
    },
    {
      "inputs": [],
      "name": "token1",
      "outputs": [
        {
          "internalType": "address",
          "name": "",
          "type": "address"
        }
      ],
      "stateMutability": "view",
      "type": "function"
    },
    {
      "inputs": [],
      "name": "totalSupply",
      "outputs": [
        {
          "internalType": "uint256",
          "name": "",
          "type": "uint256"
        }
      ],
      "stateMutability": "view",
      "type": "function"
    },
    {
      "inputs": [
        {
          "internalType": "address",
          "name": "to",
          "type": "address"
        },
        {
          "internalType": "uint256",
          "name": "value",
          "type": "uint256"
        }
      ],
      "name": "transfer",
      "outputs": [
        {
          "internalType": "bool",
          "name": "",
          "type": "bool"
        }
      ],
      "stateMutability": "nonpayable",
      "type": "function"
    },
    {
      "inputs": [
        {
          "internalType": "address",
          "name": "from",
          "type": "address"
        },
        {
          "internalType": "address",
          "name": "to",
          "type": "address"
        },
        {
          "internalType": "uint256",
          "name": "value",
          "type": "uint256"
        }
      ],
      "name": "transferFrom",
      "outputs": [
        {
          "internalType": "bool",
          "name": "",
          "type": "bool"
        }
      ],
      "stateMutability": "nonpayable",
      "type": "function"
    }
  ],
  "bytecode": "0x6080604052600160085534801561001557600080fd5b5033600360006101000a81548173ffffffffffffffffffffffffffffffffffffffff021916908373ffffffffffffffffffffffffffffffffffffffff160217905550612a8e806100666000396000f3fe608060405234801561001057600080fd5b506004361061012c5760003560e01c806370a08231116100ad578063bc25cf7711610071578063bc25cf771461035d578063c45a015514610379578063d21220a714610397578063dd62ed3e146103b5578063fff6cae9146103e55761012c565b806370a082311461029057806389afcb44146102c057806395d89b41146102f1578063a9059cbb1461030f578063ba9a7a561461033f5761012c565b806323b872dd116100f457806323b872dd146101da578063313ce5671461020a578063485cc955146102285780636a627842146102445780636d9a640a146102745761012c565b806306fdde03146101315780630902f1ac1461014f578063095ea7b31461016e5780630dfe16811461019e57806318160ddd146101bc575b600080fd5b6101396103ef565b6040516101469190611f24565b60405180910390f35b610157610428565b604051610165929190611f5f565b60405180910390f35b61018860048036038101906101839190612017565b610439565b6040516101959190612072565b60405180910390f35b6101a6610450565b6040516101b3919061209c565b60405180910390f35b6101c4610476565b6040516101d191906120b7565b60405180910390f35b6101f460048036038101906101ef91906120d2565b61047c565b6040516102019190612072565b60405180910390f35b6102126105cb565b60405161021f9190612141565b60405180910390f35b610242600480360381019061023d919061215c565b6105d0565b005b61025e6004803603810190610259919061219c565b6106e6565b60405161026b91906120b7565b60405180910390f35b61028e600480360381019061028991906121c9565b6109fa565b005b6102aa60048036038101906102a5919061219c565b610f26565b6040516102b791906120b7565b60405180910390f35b6102da60048036038101906102d5919061219c565b610f3e565b6040516102e8929190611f5f565b60405180910390f35b6102f961137b565b6040516103069190611f24565b60405180910390f35b61032960048036038101906103249190612017565b6113b4565b6040516103369190612072565b60405180910390f35b6103476113cb565b60405161035491906120b7565b60405180910390f35b6103776004803603810190610372919061219c565b6113d1565b005b6103816115b9565b60405161038e919061209c565b60405180910390f35b61039f6115df565b6040516103ac919061209c565b60405180910390f35b6103cf60048036038101906103ca919061215c565b611605565b6040516103dc91906120b7565b60405180910390f35b6103ed61162a565b005b6040518060400160405280600a81526020017f556e69737761702056320000000000000000000000000000000000000000000081525081565b600080600654915060075490509091565b60006104463384846117df565b6001905092915050565b600460009054906101000a900473ffffffffffffffffffffffffffffffffffffffff1681565b60005481565b60007fffffffffffffffffffffffffffffffffffffffffffffffffffffffffffffffff600260008673ffffffffffffffffffffffffffffffffffffffff1673ffffffffffffffffffffffffffffffffffffffff16815260200190815260200160002060003373ffffffffffffffffffffffffffffffffffffffff1673ffffffffffffffffffffffffffffffffffffffff16815260200190815260200160002054146105b55781600260008673ffffffffffffffffffffffffffffffffffffffff1673ffffffffffffffffffffffffffffffffffffffff16815260200190815260200160002060003373ffffffffffffffffffffffffffffffffffffffff1673ffffffffffffffffffffffffffffffffffffffff16815260200190815260200160002060008282546105ad919061224b565b925050819055505b6105c08484846118ca565b600190509392505050565b601281565b600360009054906101000a900473ffffffffffffffffffffffffffffffffffffffff1673ffffffffffffffffffffffffffffffffffffffff163373ffffffffffffffffffffffffffffffffffffffff1614610660576040517f08c379a0000000000000000000000000000000000000000000000000000000008152600401610657906122cb565b60405180910390fd5b81600460006101000a81548173ffffffffffffffffffffffffffffffffffffffff021916908373ffffffffffffffffffffffffffffffffffffffff16021790555080600560006101000a81548173ffffffffffffffffffffffffffffffffffffffff021916908373ffffffffffffffffffffffffffffffffffffffff1602179055505050565b600060016008541461072d576040517f08c379a000000000000000000000000000000000000000000000000000000000815260040161072490612337565b60405180910390fd5b6000600881905550600080610740610428565b915091506000600460009054906101000a900473ffffffffffffffffffffffffffffffffffffffff1673ffffffffffffffffffffffffffffffffffffffff166370a08231306040518263ffffffff1660e01b81526004016107a1919061209c565b60206040518083038186803b1580156107b957600080fd5b505afa1580156107cd573d6000803e3d6000fd5b505050506040513d601f19601f820116820180604052508101906107f1919061236c565b90506000600560009054906101000a900473ffffffffffffffffffffffffffffffffffffffff1673ffffffffffffffffffffffffffffffffffffffff166370a08231306040518263ffffffff1660e01b8152600401610850919061209c565b60206040518083038186803b15801561086857600080fd5b505afa15801561087c573d6000803e3d6000fd5b505050506040513d601f19601f820116820180604052508101906108a0919061236c565b9050600084836108b0919061224b565b9050600084836108c0919061224b565b90506000805490506000811415610906576103e86108e883856108e39190612399565b6119e0565b6108f2919061224b565b975061090160006103e8611a5a565b61093f565b61093c8782856109169190612399565b6109209190612422565b87838561092d9190612399565b6109379190612422565b611b32565b97505b60008811610982576040517f08c379a0000000000000000000000000000000000000000000000000000000008152600401610979906124c5565b60405180910390fd5b61098c8989611a5a565b6109968585611b4b565b3373ffffffffffffffffffffffffffffffffffffffff167f4c209b5fc8ad50758f13e2e1088ba56a560dff690a1c6fef26394f4c03821c4f84846040516109de929190611f5f565b60405180910390a2505050505050506001600881905550919050565b600160085414610a3f576040517f08c379a0000000000000000000000000000000000000000000000000000000008152600401610a3690612337565b60405180910390fd5b60006008819055506000831180610a565750600082115b610a95576040517f08c379a0000000000000000000000000000000000000000000000000000000008152600401610a8c90612557565b60405180910390fd5b600080610aa0610428565b915091508185108015610ab257508084105b610af1576040517f08c379a0000000000000000000000000000000000000000000000000000000008152600401610ae8906125e9565b60405180910390fd5b6000806000600460009054906101000a900473ffffffffffffffffffffffffffffffffffffffff1690506000600560009054906101000a900473ffffffffffffffffffffffffffffffffffffffff1690508173ffffffffffffffffffffffffffffffffffffffff168773ffffffffffffffffffffffffffffffffffffffff1614158015610baa57508073ffffffffffffffffffffffffffffffffffffffff168773ffffffffffffffffffffffffffffffffffffffff1614155b610be9576040517f08c379a0000000000000000000000000000000000000000000000000000000008152600401610be090612655565b60405180910390fd5b6000891115610bfe57610bfd82888b611c29565b5b6000881115610c1357610c1281888a611c29565b5b8173ffffffffffffffffffffffffffffffffffffffff166370a08231306040518263ffffffff1660e01b8152600401610c4c919061209c565b60206040518083038186803b158015610c6457600080fd5b505afa158015610c78573d6000803e3d6000fd5b505050506040513d601f19601f82011682018060405250810190610c9c919061236c565b93508073ffffffffffffffffffffffffffffffffffffffff166370a08231306040518263ffffffff1660e01b8152600401610cd7919061209c565b60206040518083038186803b158015610cef57600080fd5b505afa158015610d03573d6000803e3d6000fd5b505050506040513d601f19601f82011682018060405250810190610d27919061236c565b9250505060008785610d39919061224b565b8311610d46576000610d5e565b8785610d52919061224b565b83610d5d919061224b565b5b905060008785610d6e919061224b565b8311610d7b576000610d93565b8785610d87919061224b565b83610d92919061224b565b5b90506000821180610da45750600081115b610de3576040517f08c379a0000000000000000000000000000000000000000000000000000000008152600401610dda906126e7565b60405180910390fd5b6000600383610df29190612399565b6103e886610e009190612399565b610e0a919061224b565b90506000600383610e1b9190612399565b6103e886610e299190612399565b610e33919061224b565b9050620f424087610e449190612399565b88610e4f9190612399565b8183610e5b9190612399565b1015610e9c576040517f08c379a0000000000000000000000000000000000000000000000000000000008152600401610e9390612753565b60405180910390fd5b5050610ea88484611b4b565b8673ffffffffffffffffffffffffffffffffffffffff163373ffffffffffffffffffffffffffffffffffffffff167fd78ad95fa46c994b6551d0da85fc275fe613ce37657fb8d5e3d130840159d82284848d8d604051610f0b9493929190612773565b60405180910390a35050505050506001600881905550505050565b60016020528060005260406000206000915090505481565b600080600160085414610f86576040517f08c379a0000000000000000000000000000000000000000000000000000000008152600401610f7d90612337565b60405180910390fd5b60006008819055506000600460009054906101000a900473ffffffffffffffffffffffffffffffffffffffff1690506000600560009054906101000a900473ffffffffffffffffffffffffffffffffffffffff16905060008273ffffffffffffffffffffffffffffffffffffffff166370a08231306040518263ffffffff1660e01b8152600401611017919061209c565b60206040518083038186803b15801561102f57600080fd5b505afa158015611043573d6000803e3d6000fd5b505050506040513d601f19601f82011682018060405250810190611067919061236c565b905060008273ffffffffffffffffffffffffffffffffffffffff166370a08231306040518263ffffffff1660e01b81526004016110a4919061209c565b60206040518083038186803b1580156110bc57600080fd5b505afa1580156110d0573d6000803e3d6000fd5b505050506040513d601f19601f820116820180604052508101906110f4919061236c565b90506000600160003073ffffffffffffffffffffffffffffffffffffffff1673ffffffffffffffffffffffffffffffffffffffff16815260200190815260200160002054905060008054905080848361114d9190612399565b6111579190612422565b97508083836111669190612399565b6111709190612422565b96506000881180156111825750600087115b6111c1576040517f08c379a00000000000000000000000000000000000000000000000000000000081526004016111b89061282a565b60405180910390fd5b6111cb3083611db3565b6111d6868a8a611c29565b6111e1858a89611c29565b8573ffffffffffffffffffffffffffffffffffffffff166370a08231306040518263ffffffff1660e01b815260040161121a919061209c565b60206040518083038186803b15801561123257600080fd5b505afa158015611246573d6000803e3d6000fd5b505050506040513d601f19601f8201168201806040525081019061126a919061236c565b93508473ffffffffffffffffffffffffffffffffffffffff166370a08231306040518263ffffffff1660e01b81526004016112a5919061209c565b60206040518083038186803b1580156112bd57600080fd5b505afa1580156112d1573d6000803e3d6000fd5b505050506040513d601f19601f820116820180604052508101906112f5919061236c565b92506113018484611b4b565b8873ffffffffffffffffffffffffffffffffffffffff163373ffffffffffffffffffffffffffffffffffffffff167fdccd412f0b1252819cb1fd330b93224ca42612892bb3f4f789976e6d819364968a8a604051611360929190611f5f565b60405180910390a35050505050506001600881905550915091565b6040518060400160405280600681526020017f554e492d5632000000000000000000000000000000000000000000000000000081525081565b60006113c13384846118ca565b6001905092915050565b6103e881565b600160085414611416576040517f08c379a000000000000000000000000000000000000000000000000000000000815260040161140d90612337565b60405180910390fd5b60006008819055506000600460009054906101000a900473ffffffffffffffffffffffffffffffffffffffff1690506000600560009054906101000a900473ffffffffffffffffffffffffffffffffffffffff16905061150c82846006548573ffffffffffffffffffffffffffffffffffffffff166370a08231306040518263ffffffff1660e01b81526004016114ad919061209c565b60206040518083038186803b1580156114c557600080fd5b505afa1580156114d9573d6000803e3d6000fd5b505050506040513d601f19601f820116820180604052508101906114fd919061236c565b611507919061224b565b611c29565b6115ac81846007548473ffffffffffffffffffffffffffffffffffffffff166370a08231306040518263ffffffff1660e01b815260040161154d919061209c565b60206040518083038186803b15801561156557600080fd5b505afa158015611579573d6000803e3d6000fd5b505050506040513d601f19601f8201168201806040525081019061159d919061236c565b6115a7919061224b565b611c29565b5050600160088190555050565b600360009054906101000a900473ffffffffffffffffffffffffffffffffffffffff1681565b600560009054906101000a900473ffffffffffffffffffffffffffffffffffffffff1681565b6002602052816000526040600020602052806000526040600020600091509150505481565b60016008541461166f576040517f08c379a000000000000000000000000000000000000000000000000000000000815260040161166690612337565b60405180910390fd5b60006008819055506117d5600460009054906101000a900473ffffffffffffffffffffffffffffffffffffffff1673ffffffffffffffffffffffffffffffffffffffff166370a08231306040518263ffffffff1660e01b81526004016116d5919061209c565b60206040518083038186803b1580156116ed57600080fd5b505afa158015611701573d6000803e3d6000fd5b505050506040513d601f19601f82011682018060405250810190611725919061236c565b600560009054906101000a900473ffffffffffffffffffffffffffffffffffffffff1673ffffffffffffffffffffffffffffffffffffffff166370a08231306040518263ffffffff1660e01b8152600401611780919061209c565b60206040518083038186803b15801561179857600080fd5b505afa1580156117ac573d6000803e3d6000fd5b505050506040513d601f19601f820116820180604052508101906117d0919061236c565b611b4b565b6001600881905550565b80600260008573ffffffffffffffffffffffffffffffffffffffff1673ffffffffffffffffffffffffffffffffffffffff16815260200190815260200160002060008473ffffffffffffffffffffffffffffffffffffffff1673ffffffffffffffffffffffffffffffffffffffff168152602001908152602001600020819055508173ffffffffffffffffffffffffffffffffffffffff168373ffffffffffffffffffffffffffffffffffffffff167f8c5be1e5ebec7d5bd14f71427d1e84f3dd0314c0f7b2291e5b200ac8c7c3b925836040516118bd91906120b7565b60405180910390a3505050565b80600160008573ffffffffffffffffffffffffffffffffffffffff1673ffffffffffffffffffffffffffffffffffffffff1681526020019081526020016000206000828254611919919061224b565b9250508190555080600160008473ffffffffffffffffffffffffffffffffffffffff1673ffffffffffffffffffffffffffffffffffffffff168152602001908152602001600020600082825461196f919061284a565b925050819055508173ffffffffffffffffffffffffffffffffffffffff168373ffffffffffffffffffffffffffffffffffffffff167fddf252ad1be2c89b69c2b068fc378daa952ba7f163c4a11628f55a4df523b3ef836040516119d391906120b7565b60405180910390a3505050565b60006003821115611a4757819050600060016002846119ff9190612422565b611a09919061284a565b90505b81811015611a41578091506002818285611a269190612422565b611a30919061284a565b611a3a9190612422565b9050611a0c565b50611a55565b60008214611a5457600190505b5b919050565b80600080828254611a6b919061284a565b9250508190555080600160008473ffffffffffffffffffffffffffffffffffffffff1673ffffffffffffffffffffffffffffffffffffffff1681526020019081526020016000206000828254611ac1919061284a565b925050819055508173ffffffffffffffffffffffffffffffffffffffff16600073ffffffffffffffffffffffffffffffffffffffff167fddf252ad1be2c89b69c2b068fc378daa952ba7f163c4a11628f55a4df523b3ef83604051611b2691906120b7565b60405180910390a35050565b6000818310611b415781611b43565b825b905092915050565b7fffffffffffffffffffffffffffffffffffffffffffffffffffffffffffffffff8211158015611b9b57507fffffffffffffffffffffffffffffffffffffffffffffffffffffffffffffffff8111155b611bda576040517f08c379a0000000000000000000000000000000000000000000000000000000008152600401611bd1906128ec565b60405180910390fd5b81600681905550806007819055507fcf2aa50876cdfbb541206f89af0ee78d44a2abf8d328e37fa4917f982149848a600654600754604051611c1d929190611f5f565b60405180910390a15050565b6000808473ffffffffffffffffffffffffffffffffffffffff166040518060400160405280601981526020017f7472616e7366657228616464726573732c75696e743235362900000000000000815250805190602001208585604051602401611c9392919061290c565b604051602081830303815290604052907bffffffffffffffffffffffffffffffffffffffffffffffffffffffff19166020820180517bffffffffffffffffffffffffffffffffffffffffffffffffffffffff8381831617835250505050604051611cfd919061297c565b6000604051808303816000865af19150503d8060008114611d3a576040519150601f19603f3d011682016040523d82523d6000602084013e611d3f565b606091505b5091509150818015611d6d5750600081511480611d6c575080806020019051810190611d6b91906129bf565b5b5b611dac576040517f08c379a0000000000000000000000000000000000000000000000000000000008152600401611da390612a38565b60405180910390fd5b5050505050565b80600160008473ffffffffffffffffffffffffffffffffffffffff1673ffffffffffffffffffffffffffffffffffffffff1681526020019081526020016000206000828254611e02919061224b565b9250508190555080600080828254611e1a919061224b565b92505081905550600073ffffffffffffffffffffffffffffffffffffffff168273ffffffffffffffffffffffffffffffffffffffff167fddf252ad1be2c89b69c2b068fc378daa952ba7f163c4a11628f55a4df523b3ef83604051611e7f91906120b7565b60405180910390a35050565b600081519050919050565b600082825260208201905092915050565b60005b83811015611ec5578082015181840152602081019050611eaa565b83811115611ed4576000848401525b50505050565b6000601f19601f8301169050919050565b6000611ef682611e8b565b611f008185611e96565b9350611f10818560208601611ea7565b611f1981611eda565b840191505092915050565b60006020820190508181036000830152611f3e8184611eeb565b905092915050565b6000819050919050565b611f5981611f46565b82525050565b6000604082019050611f746000830185611f50565b611f816020830184611f50565b9392505050565b600080fd5b600073ffffffffffffffffffffffffffffffffffffffff82169050919050565b6000611fb882611f8d565b9050919050565b611fc881611fad565b8114611fd357600080fd5b50565b600081359050611fe581611fbf565b92915050565b611ff481611f46565b8114611fff57600080fd5b50565b60008135905061201181611feb565b92915050565b6000806040838503121561202e5761202d611f88565b5b600061203c85828601611fd6565b925050602061204d85828601612002565b9150509250929050565b60008115159050919050565b61206c81612057565b82525050565b60006020820190506120876000830184612063565b92915050565b61209681611fad565b82525050565b60006020820190506120b1600083018461208d565b92915050565b60006020820190506120cc6000830184611f50565b92915050565b6000806000606084860312156120eb576120ea611f88565b5b60006120f986828701611fd6565b935050602061210a86828701611fd6565b925050604061211b86828701612002565b9150509250925092565b600060ff82169050919050565b61213b81612125565b82525050565b60006020820190506121566000830184612132565b92915050565b6000806040838503121561217357612172611f88565b5b600061218185828601611fd6565b925050602061219285828601611fd6565b9150509250929050565b6000602082840312156121b2576121b1611f88565b5b60006121c084828501611fd6565b91505092915050565b6000806000606084860312156121e2576121e1611f88565b5b60006121f086828701612002565b935050602061220186828701612002565b925050604061221286828701611fd6565b9150509250925092565b7f4e487b7100000000000000000000000000000000000000000000000000000000600052601160045260246000fd5b600061225682611f46565b915061226183611f46565b9250828210156122745761227361221c565b5b828203905092915050565b7f556e697377617056323a20464f5242494444454e000000000000000000000000600082015250565b60006122b5601483611e96565b91506122c08261227f565b602082019050919050565b600060208201905081810360008301526122e4816122a8565b9050919050565b7f556e697377617056323a204c4f434b4544000000000000000000000000000000600082015250565b6000612321601183611e96565b915061232c826122eb565b602082019050919050565b6000602082019050818103600083015261235081612314565b9050919050565b60008151905061236681611feb565b92915050565b60006020828403121561238257612381611f88565b5b600061239084828501612357565b91505092915050565b60006123a482611f46565b91506123af83611f46565b9250817fffffffffffffffffffffffffffffffffffffffffffffffffffffffffffffffff04831182151516156123e8576123e761221c565b5b828202905092915050565b7f4e487b7100000000000000000000000000000000000000000000000000000000600052601260045260246000fd5b600061242d82611f46565b915061243883611f46565b925082612448576124476123f3565b5b828204905092915050565b7f556e697377617056323a20494e53554646494349454e545f4c4951554944495460008201527f595f4d494e544544000000000000000000000000000000000000000000000000602082015250565b60006124af602883611e96565b91506124ba82612453565b604082019050919050565b600060208201905081810360008301526124de816124a2565b9050919050565b7f556e697377617056323a20494e53554646494349454e545f4f55545055545f4160008201527f4d4f554e54000000000000000000000000000000000000000000000000000000602082015250565b6000612541602583611e96565b915061254c826124e5565b604082019050919050565b6000602082019050818103600083015261257081612534565b9050919050565b7f556e697377617056323a20494e53554646494349454e545f4c4951554944495460008201527f5900000000000000000000000000000000000000000000000000000000000000602082015250565b60006125d3602183611e96565b91506125de82612577565b604082019050919050565b60006020820190508181036000830152612602816125c6565b9050919050565b7f556e697377617056323a20494e56414c49445f544f0000000000000000000000600082015250565b600061263f601583611e96565b915061264a82612609565b602082019050919050565b6000602082019050818103600083015261266e81612632565b9050919050565b7f556e697377617056323a20494e53554646494349454e545f494e5055545f414d60008201527f4f554e5400000000000000000000000000000000000000000000000000000000602082015250565b60006126d1602483611e96565b91506126dc82612675565b604082019050919050565b60006020820190508181036000830152612700816126c4565b9050919050565b7f556e697377617056323a204b0000000000000000000000000000000000000000600082015250565b600061273d600c83611e96565b915061274882612707565b602082019050919050565b6000602082019050818103600083015261276c81612730565b9050919050565b60006080820190506127886000830187611f50565b6127956020830186611f50565b6127a26040830185611f50565b6127af6060830184611f50565b95945050505050565b7f556e697377617056323a20494e53554646494349454e545f4c4951554944495460008201527f595f4255524e4544000000000000000000000000000000000000000000000000602082015250565b6000612814602883611e96565b915061281f826127b8565b604082019050919050565b6000602082019050818103600083015261284381612807565b9050919050565b600061285582611f46565b915061286083611f46565b9250827fffffffffffffffffffffffffffffffffffffffffffffffffffffffffffffffff038211156128955761289461221c565b5b828201905092915050565b7f556e697377617056323a204f564552464c4f5700000000000000000000000000600082015250565b60006128d6601383611e96565b91506128e1826128a0565b602082019050919050565b60006020820190508181036000830152612905816128c9565b9050919050565b6000604082019050612921600083018561208d565b61292e6020830184611f50565b9392505050565b600081519050919050565b600081905092915050565b600061295682612935565b6129608185612940565b9350612970818560208601611ea7565b80840191505092915050565b6000612988828461294b565b915081905092915050565b61299c81612057565b81146129a757600080fd5b50565b6000815190506129b981612993565b92915050565b6000602082840312156129d5576129d4611f88565b5b60006129e3848285016129aa565b91505092915050565b7f556e697377617056323a205452414e534645525f4641494c4544000000000000600082015250565b6000612a22601a83611e96565b9150612a2d826129ec565b602082019050919050565b60006020820190508181036000830152612a5181612a15565b905091905056fea2646970667358221220a1d67a68df65742a414f79fe5b7b906dc2432f96c0d5034b1373b39a4b76ac2064736f6c63430008080033",
  "linkReferences": {},
  "deployedLinkReferences": {}
}