{
  "_format": "hh-sol-artifact-1",
  "contractName": "ZombBank",
  "sourceName": "contracts/SimpleBank.sol",
  "abi": [
    {
      "inputs": [],
      "stateMutability": "payable",
      "type": "constructor"
    },
    {
      "inputs": [
        {
          "internalType": "uint256",
          "name": "",
          "type": "uint256"
        }
      ],
      "name": "assetList",
      "outputs": [
        {
          "internalType": "string",
          "name": "tokenName",
          "type": "string"
        },
        {
          "internalType": "string",
          "name": "tokenSymbol",
          "type": "string"
        },
        {
          "internalType": "address",
          "name": "tokenAddress",
          "type": "address"
        },
        {
          "internalType": "uint256",
          "name": "balance",
          "type": "uint256"
        }
      ],
      "stateMutability": "view",
      "type": "function"
    },
    {
      "inputs": [
        {
          "internalType": "address",
          "name": "token",
          "type": "address"
        },
        {
          "internalType": "uint256",
          "name": "amount",
          "type": "uint256"
        }
      ],
      "name": "deposit",
      "outputs": [],
      "stateMutability": "nonpayable",
      "type": "function"
    },
    {
      "inputs": [],
      "name": "getAllBankAssets",
      "outputs": [
        {
          "components": [
            {
              "internalType": "string",
              "name": "tokenName",
              "type": "string"
            },
            {
              "internalType": "string",
              "name": "tokenSymbol",
              "type": "string"
            },
            {
              "internalType": "address",
              "name": "tokenAddress",
              "type": "address"
            },
            {
              "internalType": "uint256",
              "name": "balance",
              "type": "uint256"
            }
          ],
          "internalType": "struct ZombBank._Asset[]",
          "name": "",
          "type": "tuple[]"
        }
      ],
      "stateMutability": "view",
      "type": "function"
    },
    {
      "inputs": [
        {
          "internalType": "address",
          "name": "token",
          "type": "address"
        }
      ],
      "name": "getMyBalance",
      "outputs": [
        {
          "components": [
            {
              "internalType": "string",
              "name": "tokenName",
              "type": "string"
            },
            {
              "internalType": "string",
              "name": "tokenSymbol",
              "type": "string"
            },
            {
              "internalType": "address",
              "name": "tokenAddress",
              "type": "address"
            },
            {
              "internalType": "uint256",
              "name": "balance",
              "type": "uint256"
            }
          ],
          "internalType": "struct ZombBank._Asset",
          "name": "",
          "type": "tuple"
        },
        {
          "internalType": "address",
          "name": "",
          "type": "address"
        }
      ],
      "stateMutability": "view",
      "type": "function"
    },
    {
      "inputs": [
        {
          "internalType": "string",
          "name": "tokenName",
          "type": "string"
        },
        {
          "internalType": "string",
          "name": "tokenSymbol",
          "type": "string"
        },
        {
          "internalType": "address",
          "name": "tokenAddress",
          "type": "address"
        }
      ],
      "name": "registAsset",
      "outputs": [],
      "stateMutability": "nonpayable",
      "type": "function"
    },
    {
      "inputs": [
        {
          "internalType": "address",
          "name": "token",
          "type": "address"
        },
        {
          "internalType": "uint256",
          "name": "amount",
          "type": "uint256"
        }
      ],
      "name": "withdraw",
      "outputs": [],
      "stateMutability": "nonpayable",
      "type": "function"
    }
  ],
  "bytecode": "0x608060405260006002556115aa806100186000396000f3fe608060405234801561001057600080fd5b50600436106100625760003560e01c806347e7ef24146100675780635ce9fa7a146100835780637e3ef7cd1461009f578063a0b4b301146100d0578063f1e734de14610103578063f3fef3a314610121575b600080fd5b610081600480360381019061007c9190610de1565b61013d565b005b61009d60048036038101906100989190610f67565b610288565b005b6100b960048036038101906100b49190610ff2565b6104f7565b6040516100c792919061113e565b60405180910390f35b6100ea60048036038101906100e5919061116e565b6107bc565b6040516100fa94939291906111f4565b60405180910390f35b61010b61092c565b6040516101189190611373565b60405180910390f35b61013b60048036038101906101369190610de1565b610b0f565b005b8173ffffffffffffffffffffffffffffffffffffffff166323b872dd3330846040518463ffffffff1660e01b815260040161017a93929190611395565b602060405180830381600087803b15801561019457600080fd5b505af11580156101a8573d6000803e3d6000fd5b505050506040513d601f19601f820116820180604052508101906101cc9190611404565b506000600160008473ffffffffffffffffffffffffffffffffffffffff1673ffffffffffffffffffffffffffffffffffffffff1681526020019081526020016000209050818160030160003373ffffffffffffffffffffffffffffffffffffffff1673ffffffffffffffffffffffffffffffffffffffff16815260200190815260200160002060008282546102619190611460565b925050819055508181600401600082825461027c9190611460565b92505081905550505050565b808073ffffffffffffffffffffffffffffffffffffffff16600160008373ffffffffffffffffffffffffffffffffffffffff1673ffffffffffffffffffffffffffffffffffffffff16815260200190815260200160002060020160009054906101000a900473ffffffffffffffffffffffffffffffffffffffff1673ffffffffffffffffffffffffffffffffffffffff16141561032457600080fd5b6000600160008473ffffffffffffffffffffffffffffffffffffffff1673ffffffffffffffffffffffffffffffffffffffff1681526020019081526020016000209050828160020160006101000a81548173ffffffffffffffffffffffffffffffffffffffff021916908373ffffffffffffffffffffffffffffffffffffffff160217905550848160000190805190602001906103c2929190610c58565b50838160010190805190602001906103db929190610c58565b5060008160040181905550600060405180608001604052808781526020018681526020018573ffffffffffffffffffffffffffffffffffffffff168152602001600081525090806001815401808255809150506001900390600052602060002090600402016000909190919091506000820151816000019080519060200190610465929190610c58565b506020820151816001019080519060200190610482929190610c58565b5060408201518160020160006101000a81548173ffffffffffffffffffffffffffffffffffffffff021916908373ffffffffffffffffffffffffffffffffffffffff1602179055506060820151816003015550506001600260008282546104e99190611460565b925050819055505050505050565b6104ff610cde565b6000806040518060800160405280600160008773ffffffffffffffffffffffffffffffffffffffff1673ffffffffffffffffffffffffffffffffffffffff168152602001908152602001600020600001805461055a906114e5565b80601f0160208091040260200160405190810160405280929190818152602001828054610586906114e5565b80156105d35780601f106105a8576101008083540402835291602001916105d3565b820191906000526020600020905b8154815290600101906020018083116105b657829003601f168201915b50505050508152602001600160008773ffffffffffffffffffffffffffffffffffffffff1673ffffffffffffffffffffffffffffffffffffffff168152602001908152602001600020600101805461062a906114e5565b80601f0160208091040260200160405190810160405280929190818152602001828054610656906114e5565b80156106a35780601f10610678576101008083540402835291602001916106a3565b820191906000526020600020905b81548152906001019060200180831161068657829003601f168201915b50505050508152602001600160008773ffffffffffffffffffffffffffffffffffffffff1673ffffffffffffffffffffffffffffffffffffffff16815260200190815260200160002060020160009054906101000a900473ffffffffffffffffffffffffffffffffffffffff1673ffffffffffffffffffffffffffffffffffffffff168152602001600160008773ffffffffffffffffffffffffffffffffffffffff1673ffffffffffffffffffffffffffffffffffffffff16815260200190815260200160002060030160003373ffffffffffffffffffffffffffffffffffffffff1673ffffffffffffffffffffffffffffffffffffffff16815260200190815260200160002054815250905080339250925050915091565b600081815481106107cc57600080fd5b90600052602060002090600402016000915090508060000180546107ef906114e5565b80601f016020809104026020016040519081016040528092919081815260200182805461081b906114e5565b80156108685780601f1061083d57610100808354040283529160200191610868565b820191906000526020600020905b81548152906001019060200180831161084b57829003601f168201915b50505050509080600101805461087d906114e5565b80601f01602080910402602001604051908101604052809291908181526020018280546108a9906114e5565b80156108f65780601f106108cb576101008083540402835291602001916108f6565b820191906000526020600020905b8154815290600101906020018083116108d957829003601f168201915b5050505050908060020160009054906101000a900473ffffffffffffffffffffffffffffffffffffffff16908060030154905084565b60606000805480602002602001604051908101604052809291908181526020016000905b82821015610b065783829060005260206000209060040201604051806080016040529081600082018054610983906114e5565b80601f01602080910402602001604051908101604052809291908181526020018280546109af906114e5565b80156109fc5780601f106109d1576101008083540402835291602001916109fc565b820191906000526020600020905b8154815290600101906020018083116109df57829003601f168201915b50505050508152602001600182018054610a15906114e5565b80601f0160208091040260200160405190810160405280929190818152602001828054610a41906114e5565b8015610a8e5780601f10610a6357610100808354040283529160200191610a8e565b820191906000526020600020905b815481529060010190602001808311610a7157829003601f168201915b505050505081526020016002820160009054906101000a900473ffffffffffffffffffffffffffffffffffffffff1673ffffffffffffffffffffffffffffffffffffffff1673ffffffffffffffffffffffffffffffffffffffff16815260200160038201548152505081526020019060010190610950565b50505050905090565b8173ffffffffffffffffffffffffffffffffffffffff1663a9059cbb33836040518363ffffffff1660e01b8152600401610b4a929190611517565b602060405180830381600087803b158015610b6457600080fd5b505af1158015610b78573d6000803e3d6000fd5b505050506040513d601f19601f82011682018060405250810190610b9c9190611404565b506000600160008473ffffffffffffffffffffffffffffffffffffffff1673ffffffffffffffffffffffffffffffffffffffff1681526020019081526020016000209050818160030160003373ffffffffffffffffffffffffffffffffffffffff1673ffffffffffffffffffffffffffffffffffffffff1681526020019081526020016000206000828254610c319190611540565b9250508190555081816004016000828254610c4c9190611540565b92505081905550505050565b828054610c64906114e5565b90600052602060002090601f016020900481019282610c865760008555610ccd565b82601f10610c9f57805160ff1916838001178555610ccd565b82800160010185558215610ccd579182015b82811115610ccc578251825591602001919060010190610cb1565b5b509050610cda9190610d1c565b5090565b60405180608001604052806060815260200160608152602001600073ffffffffffffffffffffffffffffffffffffffff168152602001600081525090565b5b80821115610d35576000816000905550600101610d1d565b5090565b6000604051905090565b600080fd5b600080fd5b600073ffffffffffffffffffffffffffffffffffffffff82169050919050565b6000610d7882610d4d565b9050919050565b610d8881610d6d565b8114610d9357600080fd5b50565b600081359050610da581610d7f565b92915050565b6000819050919050565b610dbe81610dab565b8114610dc957600080fd5b50565b600081359050610ddb81610db5565b92915050565b60008060408385031215610df857610df7610d43565b5b6000610e0685828601610d96565b9250506020610e1785828601610dcc565b9150509250929050565b600080fd5b600080fd5b6000601f19601f8301169050919050565b7f4e487b7100000000000000000000000000000000000000000000000000000000600052604160045260246000fd5b610e7482610e2b565b810181811067ffffffffffffffff82111715610e9357610e92610e3c565b5b80604052505050565b6000610ea6610d39565b9050610eb28282610e6b565b919050565b600067ffffffffffffffff821115610ed257610ed1610e3c565b5b610edb82610e2b565b9050602081019050919050565b82818337600083830152505050565b6000610f0a610f0584610eb7565b610e9c565b905082815260208101848484011115610f2657610f25610e26565b5b610f31848285610ee8565b509392505050565b600082601f830112610f4e57610f4d610e21565b5b8135610f5e848260208601610ef7565b91505092915050565b600080600060608486031215610f8057610f7f610d43565b5b600084013567ffffffffffffffff811115610f9e57610f9d610d48565b5b610faa86828701610f39565b935050602084013567ffffffffffffffff811115610fcb57610fca610d48565b5b610fd786828701610f39565b9250506040610fe886828701610d96565b9150509250925092565b60006020828403121561100857611007610d43565b5b600061101684828501610d96565b91505092915050565b600081519050919050565b600082825260208201905092915050565b60005b8381101561105957808201518184015260208101905061103e565b83811115611068576000848401525b50505050565b60006110798261101f565b611083818561102a565b935061109381856020860161103b565b61109c81610e2b565b840191505092915050565b6110b081610d6d565b82525050565b6110bf81610dab565b82525050565b600060808301600083015184820360008601526110e2828261106e565b915050602083015184820360208601526110fc828261106e565b915050604083015161111160408601826110a7565b50606083015161112460608601826110b6565b508091505092915050565b61113881610d6d565b82525050565b6000604082019050818103600083015261115881856110c5565b9050611167602083018461112f565b9392505050565b60006020828403121561118457611183610d43565b5b600061119284828501610dcc565b91505092915050565b600082825260208201905092915050565b60006111b78261101f565b6111c1818561119b565b93506111d181856020860161103b565b6111da81610e2b565b840191505092915050565b6111ee81610dab565b82525050565b6000608082019050818103600083015261120e81876111ac565b9050818103602083015261122281866111ac565b9050611231604083018561112f565b61123e60608301846111e5565b95945050505050565b600081519050919050565b600082825260208201905092915050565b6000819050602082019050919050565b60006080830160008301518482036000860152611290828261106e565b915050602083015184820360208601526112aa828261106e565b91505060408301516112bf60408601826110a7565b5060608301516112d260608601826110b6565b508091505092915050565b60006112e98383611273565b905092915050565b6000602082019050919050565b600061130982611247565b6113138185611252565b93508360208202850161132585611263565b8060005b85811015611361578484038952815161134285826112dd565b945061134d836112f1565b925060208a01995050600181019050611329565b50829750879550505050505092915050565b6000602082019050818103600083015261138d81846112fe565b905092915050565b60006060820190506113aa600083018661112f565b6113b7602083018561112f565b6113c460408301846111e5565b949350505050565b60008115159050919050565b6113e1816113cc565b81146113ec57600080fd5b50565b6000815190506113fe816113d8565b92915050565b60006020828403121561141a57611419610d43565b5b6000611428848285016113ef565b91505092915050565b7f4e487b7100000000000000000000000000000000000000000000000000000000600052601160045260246000fd5b600061146b82610dab565b915061147683610dab565b9250827fffffffffffffffffffffffffffffffffffffffffffffffffffffffffffffffff038211156114ab576114aa611431565b5b828201905092915050565b7f4e487b7100000000000000000000000000000000000000000000000000000000600052602260045260246000fd5b600060028204905060018216806114fd57607f821691505b60208210811415611511576115106114b6565b5b50919050565b600060408201905061152c600083018561112f565b61153960208301846111e5565b9392505050565b600061154b82610dab565b915061155683610dab565b92508282101561156957611568611431565b5b82820390509291505056fea26469706673582212209993768a8147e2a79ab759c6415efba0682ff8521c157258bdd55a1cc66a338e64736f6c63430008080033",
  "linkReferences": {},
  "deployedLinkReferences": {}
}