{
  "contracts/Uni_v2_Router.sol": {
    "UniswapV2Router02": {
      "abi": [
        {
          "inputs": [
            {
              "internalType": "address",
              "name": "_factory",
              "type": "address"
            },
            {
              "internalType": "address",
              "name": "_WETH",
              "type": "address"
            }
          ],
          "stateMutability": "nonpayable",
          "type": "constructor"
        },
        {
          "inputs": [],
          "name": "WETH",
          "outputs": [
            {
              "internalType": "address",
              "name": "",
              "type": "address"
            }
          ],
          "stateMutability": "view",
          "type": "function"
        },
        {
          "inputs": [
            {
              "internalType": "address",
              "name": "tokenA",
              "type": "address"
            },
            {
              "internalType": "address",
              "name": "tokenB",
              "type": "address"
            },
            {
              "internalType": "uint256",
              "name": "amountADesired",
              "type": "uint256"
            },
            {
              "internalType": "uint256",
              "name": "amountBDesired",
              "type": "uint256"
            },
            {
              "internalType": "uint256",
              "name": "amountAMin",
              "type": "uint256"
            },
            {
              "internalType": "uint256",
              "name": "amountBMin",
              "type": "uint256"
            },
            {
              "internalType": "address",
              "name": "to",
              "type": "address"
            }
          ],
          "name": "addLiquidity",
          "outputs": [
            {
              "internalType": "uint256",
              "name": "amountA",
              "type": "uint256"
            },
            {
              "internalType": "uint256",
              "name": "amountB",
              "type": "uint256"
            },
            {
              "internalType": "uint256",
              "name": "liquidity",
              "type": "uint256"
            }
          ],
          "stateMutability": "nonpayable",
          "type": "function"
        },
        {
          "inputs": [
            {
              "internalType": "address",
              "name": "token",
              "type": "address"
            },
            {
              "internalType": "uint256",
              "name": "amountTokenDesired",
              "type": "uint256"
            },
            {
              "internalType": "uint256",
              "name": "amountTokenMin",
              "type": "uint256"
            },
            {
              "internalType": "uint256",
              "name": "amountETHMin",
              "type": "uint256"
            },
            {
              "internalType": "address",
              "name": "to",
              "type": "address"
            }
          ],
          "name": "addLiquidityETH",
          "outputs": [
            {
              "internalType": "uint256",
              "name": "amountToken",
              "type": "uint256"
            },
            {
              "internalType": "uint256",
              "name": "amountETH",
              "type": "uint256"
            },
            {
              "internalType": "uint256",
              "name": "liquidity",
              "type": "uint256"
            }
          ],
          "stateMutability": "payable",
          "type": "function"
        },
        {
          "inputs": [],
          "name": "factory",
          "outputs": [
            {
              "internalType": "address",
              "name": "",
              "type": "address"
            }
          ],
          "stateMutability": "view",
          "type": "function"
        },
        {
          "inputs": [
            {
              "internalType": "uint256",
              "name": "amountOut",
              "type": "uint256"
            },
            {
              "internalType": "uint256",
              "name": "reserveIn",
              "type": "uint256"
            },
            {
              "internalType": "uint256",
              "name": "reserveOut",
              "type": "uint256"
            }
          ],
          "name": "getAmountIn",
          "outputs": [
            {
              "internalType": "uint256",
              "name": "amountIn",
              "type": "uint256"
            }
          ],
          "stateMutability": "pure",
          "type": "function"
        },
        {
          "inputs": [
            {
              "internalType": "uint256",
              "name": "amountIn",
              "type": "uint256"
            },
            {
              "internalType": "uint256",
              "name": "reserveIn",
              "type": "uint256"
            },
            {
              "internalType": "uint256",
              "name": "reserveOut",
              "type": "uint256"
            }
          ],
          "name": "getAmountOut",
          "outputs": [
            {
              "internalType": "uint256",
              "name": "amountOut",
              "type": "uint256"
            }
          ],
          "stateMutability": "pure",
          "type": "function"
        },
        {
          "inputs": [
            {
              "internalType": "uint256",
              "name": "amountOut",
              "type": "uint256"
            },
            {
              "internalType": "address[]",
              "name": "path",
              "type": "address[]"
            }
          ],
          "name": "getAmountsIn",
          "outputs": [
            {
              "internalType": "uint256[]",
              "name": "amounts",
              "type": "uint256[]"
            }
          ],
          "stateMutability": "view",
          "type": "function"
        },
        {
          "inputs": [
            {
              "internalType": "uint256",
              "name": "amountIn",
              "type": "uint256"
            },
            {
              "internalType": "address[]",
              "name": "path",
              "type": "address[]"
            }
          ],
          "name": "getAmountsOut",
          "outputs": [
            {
              "internalType": "uint256[]",
              "name": "amounts",
              "type": "uint256[]"
            }
          ],
          "stateMutability": "view",
          "type": "function"
        },
        {
          "inputs": [
            {
              "internalType": "uint256",
              "name": "amountA",
              "type": "uint256"
            },
            {
              "internalType": "uint256",
              "name": "reserveA",
              "type": "uint256"
            },
            {
              "internalType": "uint256",
              "name": "reserveB",
              "type": "uint256"
            }
          ],
          "name": "quote",
          "outputs": [
            {
              "internalType": "uint256",
              "name": "amountB",
              "type": "uint256"
            }
          ],
          "stateMutability": "pure",
          "type": "function"
        },
        {
          "inputs": [
            {
              "internalType": "address",
              "name": "tokenA",
              "type": "address"
            },
            {
              "internalType": "address",
              "name": "tokenB",
              "type": "address"
            },
            {
              "internalType": "uint256",
              "name": "liquidity",
              "type": "uint256"
            },
            {
              "internalType": "uint256",
              "name": "amountAMin",
              "type": "uint256"
            },
            {
              "internalType": "uint256",
              "name": "amountBMin",
              "type": "uint256"
            },
            {
              "internalType": "address",
              "name": "to",
              "type": "address"
            }
          ],
          "name": "removeLiquidity",
          "outputs": [
            {
              "internalType": "uint256",
              "name": "amountA",
              "type": "uint256"
            },
            {
              "internalType": "uint256",
              "name": "amountB",
              "type": "uint256"
            }
          ],
          "stateMutability": "nonpayable",
          "type": "function"
        },
        {
          "inputs": [
            {
              "internalType": "address",
              "name": "token",
              "type": "address"
            },
            {
              "internalType": "uint256",
              "name": "liquidity",
              "type": "uint256"
            },
            {
              "internalType": "uint256",
              "name": "amountTokenMin",
              "type": "uint256"
            },
            {
              "internalType": "uint256",
              "name": "amountETHMin",
              "type": "uint256"
            },
            {
              "internalType": "address",
              "name": "to",
              "type": "address"
            }
          ],
          "name": "removeLiquidityETH",
          "outputs": [
            {
              "internalType": "uint256",
              "name": "amountToken",
              "type": "uint256"
            },
            {
              "internalType": "uint256",
              "name": "amountETH",
              "type": "uint256"
            }
          ],
          "stateMutability": "nonpayable",
          "type": "function"
        },
        {
          "inputs": [
            {
              "internalType": "uint256",
              "name": "amountOut",
              "type": "uint256"
            },
            {
              "internalType": "address[]",
              "name": "path",
              "type": "address[]"
            },
            {
              "internalType": "address",
              "name": "to",
              "type": "address"
            }
          ],
          "name": "swapETHForExactTokens",
          "outputs": [
            {
              "internalType": "uint256[]",
              "name": "amounts",
              "type": "uint256[]"
            }
          ],
          "stateMutability": "payable",
          "type": "function"
        },
        {
          "inputs": [
            {
              "internalType": "uint256",
              "name": "amountOutMin",
              "type": "uint256"
            },
            {
              "internalType": "address[]",
              "name": "path",
              "type": "address[]"
            },
            {
              "internalType": "address",
              "name": "to",
              "type": "address"
            }
          ],
          "name": "swapExactETHForTokens",
          "outputs": [
            {
              "internalType": "uint256[]",
              "name": "amounts",
              "type": "uint256[]"
            }
          ],
          "stateMutability": "payable",
          "type": "function"
        },
        {
          "inputs": [
            {
              "internalType": "uint256",
              "name": "amountIn",
              "type": "uint256"
            },
            {
              "internalType": "uint256",
              "name": "amountOutMin",
              "type": "uint256"
            },
            {
              "internalType": "address[]",
              "name": "path",
              "type": "address[]"
            },
            {
              "internalType": "address",
              "name": "to",
              "type": "address"
            }
          ],
          "name": "swapExactTokensForETH",
          "outputs": [
            {
              "internalType": "uint256[]",
              "name": "amounts",
              "type": "uint256[]"
            }
          ],
          "stateMutability": "nonpayable",
          "type": "function"
        },
        {
          "inputs": [
            {
              "internalType": "uint256",
              "name": "amountIn",
              "type": "uint256"
            },
            {
              "internalType": "uint256",
              "name": "amountOutMin",
              "type": "uint256"
            },
            {
              "internalType": "address[]",
              "name": "path",
              "type": "address[]"
            },
            {
              "internalType": "address",
              "name": "to",
              "type": "address"
            }
          ],
          "name": "swapExactTokensForTokens",
          "outputs": [
            {
              "internalType": "uint256[]",
              "name": "amounts",
              "type": "uint256[]"
            }
          ],
          "stateMutability": "nonpayable",
          "type": "function"
        },
        {
          "inputs": [
            {
              "internalType": "uint256",
              "name": "amountOut",
              "type": "uint256"
            },
            {
              "internalType": "uint256",
              "name": "amountInMax",
              "type": "uint256"
            },
            {
              "internalType": "address[]",
              "name": "path",
              "type": "address[]"
            },
            {
              "internalType": "address",
              "name": "to",
              "type": "address"
            }
          ],
          "name": "swapTokensForExactETH",
          "outputs": [
            {
              "internalType": "uint256[]",
              "name": "amounts",
              "type": "uint256[]"
            }
          ],
          "stateMutability": "nonpayable",
          "type": "function"
        },
        {
          "inputs": [
            {
              "internalType": "uint256",
              "name": "amountOut",
              "type": "uint256"
            },
            {
              "internalType": "uint256",
              "name": "amountInMax",
              "type": "uint256"
            },
            {
              "internalType": "address[]",
              "name": "path",
              "type": "address[]"
            },
            {
              "internalType": "address",
              "name": "to",
              "type": "address"
            }
          ],
          "name": "swapTokensForExactTokens",
          "outputs": [
            {
              "internalType": "uint256[]",
              "name": "amounts",
              "type": "uint256[]"
            }
          ],
          "stateMutability": "nonpayable",
          "type": "function"
        },
        {
          "stateMutability": "payable",
          "type": "receive"
        }
      ],
      "evm": {
        "bytecode": {
          "linkReferences": {},
          "object": "60c06040523480156200001157600080fd5b50604051620049a7380380620049a7833981810160405281019062000037919062000117565b8173ffffffffffffffffffffffffffffffffffffffff1660808173ffffffffffffffffffffffffffffffffffffffff1660601b815250508073ffffffffffffffffffffffffffffffffffffffff1660a08173ffffffffffffffffffffffffffffffffffffffff1660601b8152505050506200015e565b600080fd5b600073ffffffffffffffffffffffffffffffffffffffff82169050919050565b6000620000df82620000b2565b9050919050565b620000f181620000d2565b8114620000fd57600080fd5b50565b6000815190506200011181620000e6565b92915050565b60008060408385031215620001315762000130620000ad565b5b6000620001418582860162000100565b9250506020620001548582860162000100565b9150509250929050565b60805160601c60a05160601c61470c6200029b600039600081816101090152818161054c015281816106ce0152818161076a0152818161096301528181610af101528181610b8d01528181610d670152818161101801528181611106015281816113ab01528181611882015281816118bf01528181611967015281816119c0015281816119f401528181611a750152611bfc015260008181610605015281816107a901528181610a1c01528181610bcc01528181610d3501528181610e2e01528181610f33015281816111cd015281816112c60152818161149c01528181611595015281816116880152818161178d0152818161199e01528181611c3e01528181611e7201528181611eb601528181611f98015281816123bf01528181612413015281816129de01528181612aa50152612b5a015261470c6000f3fe6080604052600436106101025760003560e01c80636587e4ce11610095578063ad615dec11610064578063ad615dec14610410578063c0e3ee6b1461044d578063c45a01551461048b578063ca3d6539146104b6578063d06ca61f146104f557610165565b80636587e4ce14610338578063772157901461037657806385f8c259146103a8578063ad5c4648146103e557610165565b8063363db5c6116100d1578063363db5c6146102445780633e8877ed1461028157806342712a67146102be578063472b43f3146102fb57610165565b8063054d50d41461016a57806310086982146101a757806312c6442f146101d75780631f00ca741461020757610165565b36610165577f000000000000000000000000000000000000000000000000000000000000000073ffffffffffffffffffffffffffffffffffffffff163373ffffffffffffffffffffffffffffffffffffffff16146101635761016261306f565b5b005b600080fd5b34801561017657600080fd5b50610191600480360381019061018c91906130e8565b610532565b60405161019e919061314a565b60405180910390f35b6101c160048036038101906101bc9190613228565b610548565b6040516101ce919061335a565b60405180910390f35b6101f160048036038101906101ec9190613228565b61095f565b6040516101fe919061335a565b60405180910390f35b34801561021357600080fd5b5061022e600480360381019061022991906134cb565b610d2e565b60405161023b919061335a565b60405180910390f35b34801561025057600080fd5b5061026b60048036038101906102669190613527565b610d63565b604051610278919061335a565b60405180910390f35b34801561028d57600080fd5b506102a860048036038101906102a39190613527565b611102565b6040516102b5919061335a565b60405180910390f35b3480156102ca57600080fd5b506102e560048036038101906102e09190613527565b611495565b6040516102f2919061335a565b60405180910390f35b34801561030757600080fd5b50610322600480360381019061031d9190613527565b611681565b60405161032f919061335a565b60405180910390f35b34801561034457600080fd5b5061035f600480360381019061035a91906135af565b611879565b60405161036d92919061362a565b60405180910390f35b610390600480360381019061038b91906135af565b61195c565b60405161039f93929190613653565b60405180910390f35b3480156103b457600080fd5b506103cf60048036038101906103ca91906130e8565b611be4565b6040516103dc919061314a565b60405180910390f35b3480156103f157600080fd5b506103fa611bfa565b6040516104079190613699565b60405180910390f35b34801561041c57600080fd5b50610437600480360381019061043291906130e8565b611c1e565b604051610444919061314a565b60405180910390f35b34801561045957600080fd5b50610474600480360381019061046f91906136b4565b611c34565b60405161048292919061362a565b60405180910390f35b34801561049757600080fd5b506104a0611e70565b6040516104ad9190613699565b60405180910390f35b3480156104c257600080fd5b506104dd60048036038101906104d89190613741565b611e94565b6040516104ec93929190613653565b60405180910390f35b34801561050157600080fd5b5061051c600480360381019061051791906134cb565b611f91565b604051610529919061335a565b60405180910390f35b600061053f848484611fc6565b90509392505050565b60607f000000000000000000000000000000000000000000000000000000000000000073ffffffffffffffffffffffffffffffffffffffff1684846000818110610595576105946137e3565b5b90506020020160208101906105aa9190613812565b73ffffffffffffffffffffffffffffffffffffffff1614610600576040517f08c379a00000000000000000000000000000000000000000000000000000000081526004016105f79061389c565b60405180910390fd5b61066c7f000000000000000000000000000000000000000000000000000000000000000086868680806020026020016040519081016040528093929190818152602001838360200280828437600081840152601f19601f820116905080830192505050505050506120b0565b90503481600081518110610683576106826137e3565b5b602002602001015111156106cc576040517f08c379a00000000000000000000000000000000000000000000000000000000081526004016106c39061392e565b60405180910390fd5b7f000000000000000000000000000000000000000000000000000000000000000073ffffffffffffffffffffffffffffffffffffffff1663d0e30db08260008151811061071c5761071b6137e3565b5b60200260200101516040518263ffffffff1660e01b81526004016000604051808303818588803b15801561074f57600080fd5b505af1158015610763573d6000803e3d6000fd5b50505050507f000000000000000000000000000000000000000000000000000000000000000073ffffffffffffffffffffffffffffffffffffffff1663a9059cbb61081f7f0000000000000000000000000000000000000000000000000000000000000000878760008181106107dc576107db6137e3565b5b90506020020160208101906107f19190613812565b88886001818110610805576108046137e3565b5b905060200201602081019061081a9190613812565b61224b565b83600081518110610833576108326137e3565b5b60200260200101516040518363ffffffff1660e01b815260040161085892919061394e565b602060405180830381600087803b15801561087257600080fd5b505af1158015610886573d6000803e3d6000fd5b505050506040513d601f19601f820116820180604052508101906108aa91906139af565b6108b7576108b661306f565b5b61090381858580806020026020016040519081016040528093929190818152602001838360200280828437600081840152601f19601f82011690508083019250505050505050846122bd565b80600081518110610917576109166137e3565b5b602002602001015134111561095757610956338260008151811061093e5761093d6137e3565b5b6020026020010151346109519190613a0b565b6124c7565b5b949350505050565b60607f000000000000000000000000000000000000000000000000000000000000000073ffffffffffffffffffffffffffffffffffffffff16848460008181106109ac576109ab6137e3565b5b90506020020160208101906109c19190613812565b73ffffffffffffffffffffffffffffffffffffffff1614610a17576040517f08c379a0000000000000000000000000000000000000000000000000000000008152600401610a0e9061389c565b60405180910390fd5b610a837f000000000000000000000000000000000000000000000000000000000000000034868680806020026020016040519081016040528093929190818152602001838360200280828437600081840152601f19601f820116905080830192505050505050506125c7565b9050848160018351610a959190613a0b565b81518110610aa657610aa56137e3565b5b60200260200101511015610aef576040517f08c379a0000000000000000000000000000000000000000000000000000000008152600401610ae690613ab1565b60405180910390fd5b7f000000000000000000000000000000000000000000000000000000000000000073ffffffffffffffffffffffffffffffffffffffff1663d0e30db082600081518110610b3f57610b3e6137e3565b5b60200260200101516040518263ffffffff1660e01b81526004016000604051808303818588803b158015610b7257600080fd5b505af1158015610b86573d6000803e3d6000fd5b50505050507f000000000000000000000000000000000000000000000000000000000000000073ffffffffffffffffffffffffffffffffffffffff1663a9059cbb610c427f000000000000000000000000000000000000000000000000000000000000000087876000818110610bff57610bfe6137e3565b5b9050602002016020810190610c149190613812565b88886001818110610c2857610c276137e3565b5b9050602002016020810190610c3d9190613812565b61224b565b83600081518110610c5657610c556137e3565b5b60200260200101516040518363ffffffff1660e01b8152600401610c7b92919061394e565b602060405180830381600087803b158015610c9557600080fd5b505af1158015610ca9573d6000803e3d6000fd5b505050506040513d601f19601f82011682018060405250810190610ccd91906139af565b610cda57610cd961306f565b5b610d2681858580806020026020016040519081016040528093929190818152602001838360200280828437600081840152601f19601f82011690508083019250505050505050846122bd565b949350505050565b6060610d5b7f000000000000000000000000000000000000000000000000000000000000000084846120b0565b905092915050565b60607f000000000000000000000000000000000000000000000000000000000000000073ffffffffffffffffffffffffffffffffffffffff168484600187879050610dae9190613a0b565b818110610dbe57610dbd6137e3565b5b9050602002016020810190610dd39190613812565b73ffffffffffffffffffffffffffffffffffffffff1614610e29576040517f08c379a0000000000000000000000000000000000000000000000000000000008152600401610e209061389c565b60405180910390fd5b610e957f000000000000000000000000000000000000000000000000000000000000000087868680806020026020016040519081016040528093929190818152602001838360200280828437600081840152601f19601f820116905080830192505050505050506125c7565b9050848160018351610ea79190613a0b565b81518110610eb857610eb76137e3565b5b60200260200101511015610f01576040517f08c379a0000000000000000000000000000000000000000000000000000000008152600401610ef890613ab1565b60405180910390fd5b610fca84846000818110610f1857610f176137e3565b5b9050602002016020810190610f2d9190613812565b33610fa97f000000000000000000000000000000000000000000000000000000000000000088886000818110610f6657610f656137e3565b5b9050602002016020810190610f7b9190613812565b89896001818110610f8f57610f8e6137e3565b5b9050602002016020810190610fa49190613812565b61224b565b84600081518110610fbd57610fbc6137e3565b5b6020026020010151612752565b61101681858580806020026020016040519081016040528093929190818152602001838360200280828437600081840152601f19601f82011690508083019250505050505050306122bd565b7f000000000000000000000000000000000000000000000000000000000000000073ffffffffffffffffffffffffffffffffffffffff16632e1a7d4d82600184516110619190613a0b565b81518110611072576110716137e3565b5b60200260200101516040518263ffffffff1660e01b8152600401611096919061314a565b600060405180830381600087803b1580156110b057600080fd5b505af11580156110c4573d6000803e3d6000fd5b505050506110f98282600184516110db9190613a0b565b815181106110ec576110eb6137e3565b5b60200260200101516124c7565b95945050505050565b60607f000000000000000000000000000000000000000000000000000000000000000073ffffffffffffffffffffffffffffffffffffffff16848460018787905061114d9190613a0b565b81811061115d5761115c6137e3565b5b90506020020160208101906111729190613812565b73ffffffffffffffffffffffffffffffffffffffff16146111c8576040517f08c379a00000000000000000000000000000000000000000000000000000000081526004016111bf9061389c565b60405180910390fd5b6112347f000000000000000000000000000000000000000000000000000000000000000087868680806020026020016040519081016040528093929190818152602001838360200280828437600081840152601f19601f820116905080830192505050505050506120b0565b9050848160008151811061124b5761124a6137e3565b5b60200260200101511115611294576040517f08c379a000000000000000000000000000000000000000000000000000000000815260040161128b9061392e565b60405180910390fd5b61135d848460008181106112ab576112aa6137e3565b5b90506020020160208101906112c09190613812565b3361133c7f0000000000000000000000000000000000000000000000000000000000000000888860008181106112f9576112f86137e3565b5b905060200201602081019061130e9190613812565b89896001818110611322576113216137e3565b5b90506020020160208101906113379190613812565b61224b565b846000815181106113505761134f6137e3565b5b6020026020010151612752565b6113a981858580806020026020016040519081016040528093929190818152602001838360200280828437600081840152601f19601f82011690508083019250505050505050306122bd565b7f000000000000000000000000000000000000000000000000000000000000000073ffffffffffffffffffffffffffffffffffffffff16632e1a7d4d82600184516113f49190613a0b565b81518110611405576114046137e3565b5b60200260200101516040518263ffffffff1660e01b8152600401611429919061314a565b600060405180830381600087803b15801561144357600080fd5b505af1158015611457573d6000803e3d6000fd5b5050505061148c82826001845161146e9190613a0b565b8151811061147f5761147e6137e3565b5b60200260200101516124c7565b95945050505050565b60606115037f000000000000000000000000000000000000000000000000000000000000000087868680806020026020016040519081016040528093929190818152602001838360200280828437600081840152601f19601f820116905080830192505050505050506120b0565b9050848160008151811061151a576115196137e3565b5b60200260200101511115611563576040517f08c379a000000000000000000000000000000000000000000000000000000000815260040161155a9061392e565b60405180910390fd5b61162c8484600081811061157a576115796137e3565b5b905060200201602081019061158f9190613812565b3361160b7f0000000000000000000000000000000000000000000000000000000000000000888860008181106115c8576115c76137e3565b5b90506020020160208101906115dd9190613812565b898960018181106115f1576115f06137e3565b5b90506020020160208101906116069190613812565b61224b565b8460008151811061161f5761161e6137e3565b5b6020026020010151612752565b61167881858580806020026020016040519081016040528093929190818152602001838360200280828437600081840152601f19601f82011690508083019250505050505050846122bd565b95945050505050565b60606116ef7f000000000000000000000000000000000000000000000000000000000000000087868680806020026020016040519081016040528093929190818152602001838360200280828437600081840152601f19601f820116905080830192505050505050506125c7565b90508481600183516117019190613a0b565b81518110611712576117116137e3565b5b6020026020010151101561175b576040517f08c379a000000000000000000000000000000000000000000000000000000000815260040161175290613ab1565b60405180910390fd5b61182484846000818110611772576117716137e3565b5b90506020020160208101906117879190613812565b336118037f0000000000000000000000000000000000000000000000000000000000000000888860008181106117c0576117bf6137e3565b5b90506020020160208101906117d59190613812565b898960018181106117e9576117e86137e3565b5b90506020020160208101906117fe9190613812565b61224b565b84600081518110611817576118166137e3565b5b6020026020010151612752565b61187081858580806020026020016040519081016040528093929190818152602001838360200280828437600081840152601f19601f82011690508083019250505050505050846122bd565b95945050505050565b6000806118aa877f000000000000000000000000000000000000000000000000000000000000000088888830611c34565b80925081935050506118bd87848461288b565b7f000000000000000000000000000000000000000000000000000000000000000073ffffffffffffffffffffffffffffffffffffffff16632e1a7d4d826040518263ffffffff1660e01b8152600401611916919061314a565b600060405180830381600087803b15801561193057600080fd5b505af1158015611944573d6000803e3d6000fd5b5050505061195283826124c7565b9550959350505050565b600080600061198f887f000000000000000000000000000000000000000000000000000000000000000089348a8a6129c1565b809350819450505060006119e47f00000000000000000000000000000000000000000000000000000000000000008a7f000000000000000000000000000000000000000000000000000000000000000061224b565b90506119f289338387612752565b7f000000000000000000000000000000000000000000000000000000000000000073ffffffffffffffffffffffffffffffffffffffff1663d0e30db0846040518263ffffffff1660e01b81526004016000604051808303818588803b158015611a5a57600080fd5b505af1158015611a6e573d6000803e3d6000fd5b50505050507f000000000000000000000000000000000000000000000000000000000000000073ffffffffffffffffffffffffffffffffffffffff1663a9059cbb82856040518363ffffffff1660e01b8152600401611ace92919061394e565b602060405180830381600087803b158015611ae857600080fd5b505af1158015611afc573d6000803e3d6000fd5b505050506040513d601f19601f82011682018060405250810190611b2091906139af565b611b2d57611b2c61306f565b5b8073ffffffffffffffffffffffffffffffffffffffff16636a627842866040518263ffffffff1660e01b8152600401611b669190613699565b602060405180830381600087803b158015611b8057600080fd5b505af1158015611b94573d6000803e3d6000fd5b505050506040513d601f19601f82011682018060405250810190611bb89190613ae6565b915082341115611bd857611bd7338434611bd29190613a0b565b6124c7565b5b50955095509592505050565b6000611bf1848484612c8e565b90509392505050565b7f000000000000000000000000000000000000000000000000000000000000000081565b6000611c2b848484612d7e565b90509392505050565b6000806000611c647f00000000000000000000000000000000000000000000000000000000000000008a8a61224b565b90508073ffffffffffffffffffffffffffffffffffffffff166323b872dd33838a6040518463ffffffff1660e01b8152600401611ca393929190613b13565b602060405180830381600087803b158015611cbd57600080fd5b505af1158015611cd1573d6000803e3d6000fd5b505050506040513d601f19601f82011682018060405250810190611cf591906139af565b506000808273ffffffffffffffffffffffffffffffffffffffff166389afcb44876040518263ffffffff1660e01b8152600401611d329190613699565b6040805180830381600087803b158015611d4b57600080fd5b505af1158015611d5f573d6000803e3d6000fd5b505050506040513d601f19601f82011682018060405250810190611d839190613b4a565b915091506000611d938c8c612e31565b5090508073ffffffffffffffffffffffffffffffffffffffff168c73ffffffffffffffffffffffffffffffffffffffff1614611dd0578183611dd3565b82825b809650819750505088861015611e1e576040517f08c379a0000000000000000000000000000000000000000000000000000000008152600401611e1590613bfc565b60405180910390fd5b87851015611e61576040517f08c379a0000000000000000000000000000000000000000000000000000000008152600401611e5890613c8e565b60405180910390fd5b50505050965096945050505050565b7f000000000000000000000000000000000000000000000000000000000000000081565b6000806000611ea78a8a8a8a8a8a6129c1565b80935081945050506000611edc7f00000000000000000000000000000000000000000000000000000000000000008c8c61224b565b9050611eea8b338387612752565b611ef68a338386612752565b8073ffffffffffffffffffffffffffffffffffffffff16636a627842866040518263ffffffff1660e01b8152600401611f2f9190613699565b602060405180830381600087803b158015611f4957600080fd5b505af1158015611f5d573d6000803e3d6000fd5b505050506040513d601f19601f82011682018060405250810190611f819190613ae6565b9150509750975097945050505050565b6060611fbe7f000000000000000000000000000000000000000000000000000000000000000084846125c7565b905092915050565b600080841161200a576040517f08c379a000000000000000000000000000000000000000000000000000000000815260040161200190613d20565b60405180910390fd5b60008311801561201a5750600082115b612059576040517f08c379a000000000000000000000000000000000000000000000000000000000815260040161205090613db2565b60405180910390fd5b60006103e5856120699190613dd2565b9050600083826120799190613dd2565b90506000826103e88761208c9190613dd2565b6120969190613e2c565b905080826120a49190613eb1565b93505050509392505050565b60606002825110156120f7576040517f08c379a00000000000000000000000000000000000000000000000000000000081526004016120ee90613f2e565b60405180910390fd5b815167ffffffffffffffff8111156121125761211161338d565b5b6040519080825280602002602001820160405280156121405781602001602082028036833780820191505090505b5090508281600183516121539190613a0b565b81518110612164576121636137e3565b5b6020026020010181815250506000600183516121809190613a0b565b90505b6000811115612243576000806121da87866001866121a19190613a0b565b815181106121b2576121b16137e3565b5b60200260200101518786815181106121cd576121cc6137e3565b5b6020026020010151612f5f565b915091506122038484815181106121f4576121f36137e3565b5b60200260200101518383612c8e565b846001856122119190613a0b565b81518110612222576122216137e3565b5b6020026020010181815250505050808061223b90613f4e565b915050612183565b509392505050565b600080600061225a8585612e31565b91509150858282604051602001612272929190613fc0565b604051602081830303815290604052805190602001206040516020016122999291906140ba565b6040516020818303038152906040528051906020012060001c925050509392505050565b60005b600183516122ce9190613a0b565b8110156124c1576000808483815181106122eb576122ea6137e3565b5b6020026020010151856001856123019190613e2c565b81518110612312576123116137e3565b5b602002602001015191509150600061232a8383612e31565b50905060008760018661233d9190613e2c565b8151811061234e5761234d6137e3565b5b602002602001015190506000808373ffffffffffffffffffffffffffffffffffffffff168673ffffffffffffffffffffffffffffffffffffffff16146123965782600061239a565b6000835b91509150600060028a516123ae9190613a0b565b88106123ba578861240c565b61240b7f0000000000000000000000000000000000000000000000000000000000000000878c60028c6123ed9190613e2c565b815181106123fe576123fd6137e3565b5b602002602001015161224b565b5b90506124397f0000000000000000000000000000000000000000000000000000000000000000888861224b565b73ffffffffffffffffffffffffffffffffffffffff16636d9a640a8484846040518463ffffffff1660e01b8152600401612475939291906140fc565b600060405180830381600087803b15801561248f57600080fd5b505af11580156124a3573d6000803e3d6000fd5b505050505050505050505080806124b990614133565b9150506122c0565b50505050565b60008273ffffffffffffffffffffffffffffffffffffffff1682600067ffffffffffffffff8111156124fc576124fb61338d565b5b6040519080825280601f01601f19166020018201604052801561252e5781602001600182028036833780820191505090505b5060405161253c91906141f6565b60006040518083038185875af1925050503d8060008114612579576040519150601f19603f3d011682016040523d82523d6000602084013e61257e565b606091505b50509050806125c2576040517f08c379a00000000000000000000000000000000000000000000000000000000081526004016125b99061427f565b60405180910390fd5b505050565b606060028251101561260e576040517f08c379a000000000000000000000000000000000000000000000000000000000815260040161260590613f2e565b60405180910390fd5b815167ffffffffffffffff8111156126295761262861338d565b5b6040519080825280602002602001820160405280156126575781602001602082028036833780820191505090505b509050828160008151811061266f5761266e6137e3565b5b60200260200101818152505060005b6001835161268c9190613a0b565b81101561274a576000806126e1878685815181106126ad576126ac6137e3565b5b6020026020010151876001876126c39190613e2c565b815181106126d4576126d36137e3565b5b6020026020010151612f5f565b9150915061270a8484815181106126fb576126fa6137e3565b5b60200260200101518383611fc6565b846001856127189190613e2c565b81518110612729576127286137e3565b5b6020026020010181815250505050808061274290614133565b91505061267e565b509392505050565b6000808573ffffffffffffffffffffffffffffffffffffffff166323b872dd86868660405160240161278693929190613b13565b6040516020818303038152906040529060e01b6020820180517bffffffffffffffffffffffffffffffffffffffffffffffffffffffff83818316178352505050506040516127d491906141f6565b6000604051808303816000865af19150503d8060008114612811576040519150601f19603f3d011682016040523d82523d6000602084013e612816565b606091505b5091509150818015612844575060008151148061284357508080602001905181019061284291906139af565b5b5b612883576040517f08c379a000000000000000000000000000000000000000000000000000000000815260040161287a90614311565b60405180910390fd5b505050505050565b6000808473ffffffffffffffffffffffffffffffffffffffff1663a9059cbb85856040516024016128bd92919061394e565b6040516020818303038152906040529060e01b6020820180517bffffffffffffffffffffffffffffffffffffffffffffffffffffffff838183161783525050505060405161290b91906141f6565b6000604051808303816000865af19150503d8060008114612948576040519150601f19603f3d011682016040523d82523d6000602084013e61294d565b606091505b509150915081801561297b575060008151148061297a57508080602001905181019061297991906139af565b5b5b6129ba576040517f08c379a00000000000000000000000000000000000000000000000000000000081526004016129b1906143a3565b60405180910390fd5b5050505050565b600080600073ffffffffffffffffffffffffffffffffffffffff167f000000000000000000000000000000000000000000000000000000000000000073ffffffffffffffffffffffffffffffffffffffff1663e6a439058a8a6040518363ffffffff1660e01b8152600401612a379291906143c3565b60206040518083038186803b158015612a4f57600080fd5b505afa158015612a63573d6000803e3d6000fd5b505050506040513d601f19601f82011682018060405250810190612a879190614401565b73ffffffffffffffffffffffffffffffffffffffff161415612b52577f000000000000000000000000000000000000000000000000000000000000000073ffffffffffffffffffffffffffffffffffffffff1663c9c6539689896040518363ffffffff1660e01b8152600401612afe9291906143c3565b602060405180830381600087803b158015612b1857600080fd5b505af1158015612b2c573d6000803e3d6000fd5b505050506040513d601f19601f82011682018060405250810190612b509190614401565b505b600080612b807f00000000000000000000000000000000000000000000000000000000000000008b8b612f5f565b91509150600082148015612b945750600081145b15612ba85787878094508195505050612c81565b6000612bb5898484612d7e565b9050878111612c105785811015612c01576040517f08c379a0000000000000000000000000000000000000000000000000000000008152600401612bf890613c8e565b60405180910390fd5b88818095508196505050612c7f565b6000612c1d898486612d7e565b905089811115612c3057612c2f61306f565b5b87811015612c73576040517f08c379a0000000000000000000000000000000000000000000000000000000008152600401612c6a90613bfc565b60405180910390fd5b80898096508197505050505b505b5050965096945050505050565b6000808411612cd2576040517f08c379a0000000000000000000000000000000000000000000000000000000008152600401612cc9906144a0565b60405180910390fd5b600083118015612ce25750600082115b612d21576040517f08c379a0000000000000000000000000000000000000000000000000000000008152600401612d1890613db2565b60405180910390fd5b60006103e88585612d329190613dd2565b612d3c9190613dd2565b905060006103e58685612d4f9190613a0b565b612d599190613dd2565b905060018183612d699190613eb1565b612d739190613e2c565b925050509392505050565b6000808411612dc2576040517f08c379a0000000000000000000000000000000000000000000000000000000008152600401612db990614532565b60405180910390fd5b600083118015612dd25750600082115b612e11576040517f08c379a0000000000000000000000000000000000000000000000000000000008152600401612e0890613db2565b60405180910390fd5b828285612e1e9190613dd2565b612e289190613eb1565b90509392505050565b6000808273ffffffffffffffffffffffffffffffffffffffff168473ffffffffffffffffffffffffffffffffffffffff161415612ea3576040517f08c379a0000000000000000000000000000000000000000000000000000000008152600401612e9a906145c4565b60405180910390fd5b8273ffffffffffffffffffffffffffffffffffffffff168473ffffffffffffffffffffffffffffffffffffffff1610612edd578284612ee0565b83835b8092508193505050600073ffffffffffffffffffffffffffffffffffffffff168273ffffffffffffffffffffffffffffffffffffffff161415612f58576040517f08c379a0000000000000000000000000000000000000000000000000000000008152600401612f4f90614630565b60405180910390fd5b9250929050565b6000806000612f6e8585612e31565b509050600080612f7f88888861224b565b73ffffffffffffffffffffffffffffffffffffffff16630902f1ac6040518163ffffffff1660e01b8152600401604080518083038186803b158015612fc357600080fd5b505afa158015612fd7573d6000803e3d6000fd5b505050506040513d601f19601f82011682018060405250810190612ffb9190614696565b6dffffffffffffffffffffffffffff1691506dffffffffffffffffffffffffffff1691508273ffffffffffffffffffffffffffffffffffffffff168773ffffffffffffffffffffffffffffffffffffffff161461305957808261305c565b81815b8095508196505050505050935093915050565b7f4e487b7100000000000000000000000000000000000000000000000000000000600052600160045260246000fd5b6000604051905090565b600080fd5b600080fd5b6000819050919050565b6130c5816130b2565b81146130d057600080fd5b50565b6000813590506130e2816130bc565b92915050565b600080600060608486031215613101576131006130a8565b5b600061310f868287016130d3565b9350506020613120868287016130d3565b9250506040613131868287016130d3565b9150509250925092565b613144816130b2565b82525050565b600060208201905061315f600083018461313b565b92915050565b600080fd5b600080fd5b600080fd5b60008083601f84011261318a57613189613165565b5b8235905067ffffffffffffffff8111156131a7576131a661316a565b5b6020830191508360208202830111156131c3576131c261316f565b5b9250929050565b600073ffffffffffffffffffffffffffffffffffffffff82169050919050565b60006131f5826131ca565b9050919050565b613205816131ea565b811461321057600080fd5b50565b600081359050613222816131fc565b92915050565b60008060008060608587031215613242576132416130a8565b5b6000613250878288016130d3565b945050602085013567ffffffffffffffff811115613271576132706130ad565b5b61327d87828801613174565b9350935050604061329087828801613213565b91505092959194509250565b600081519050919050565b600082825260208201905092915050565b6000819050602082019050919050565b6132d1816130b2565b82525050565b60006132e383836132c8565b60208301905092915050565b6000602082019050919050565b60006133078261329c565b61331181856132a7565b935061331c836132b8565b8060005b8381101561334d57815161333488826132d7565b975061333f836132ef565b925050600181019050613320565b5085935050505092915050565b6000602082019050818103600083015261337481846132fc565b905092915050565b6000601f19601f8301169050919050565b7f4e487b7100000000000000000000000000000000000000000000000000000000600052604160045260246000fd5b6133c58261337c565b810181811067ffffffffffffffff821117156133e4576133e361338d565b5b80604052505050565b60006133f761309e565b905061340382826133bc565b919050565b600067ffffffffffffffff8211156134235761342261338d565b5b602082029050602081019050919050565b600061344761344284613408565b6133ed565b9050808382526020820190506020840283018581111561346a5761346961316f565b5b835b81811015613493578061347f8882613213565b84526020840193505060208101905061346c565b5050509392505050565b600082601f8301126134b2576134b1613165565b5b81356134c2848260208601613434565b91505092915050565b600080604083850312156134e2576134e16130a8565b5b60006134f0858286016130d3565b925050602083013567ffffffffffffffff811115613511576135106130ad565b5b61351d8582860161349d565b9150509250929050565b600080600080600060808688031215613543576135426130a8565b5b6000613551888289016130d3565b9550506020613562888289016130d3565b945050604086013567ffffffffffffffff811115613583576135826130ad565b5b61358f88828901613174565b935093505060606135a288828901613213565b9150509295509295909350565b600080600080600060a086880312156135cb576135ca6130a8565b5b60006135d988828901613213565b95505060206135ea888289016130d3565b94505060406135fb888289016130d3565b935050606061360c888289016130d3565b925050608061361d88828901613213565b9150509295509295909350565b600060408201905061363f600083018561313b565b61364c602083018461313b565b9392505050565b6000606082019050613668600083018661313b565b613675602083018561313b565b613682604083018461313b565b949350505050565b613693816131ea565b82525050565b60006020820190506136ae600083018461368a565b92915050565b60008060008060008060c087890312156136d1576136d06130a8565b5b60006136df89828a01613213565b96505060206136f089828a01613213565b955050604061370189828a016130d3565b945050606061371289828a016130d3565b935050608061372389828a016130d3565b92505060a061373489828a01613213565b9150509295509295509295565b600080600080600080600060e0888a0312156137605761375f6130a8565b5b600061376e8a828b01613213565b975050602061377f8a828b01613213565b96505060406137908a828b016130d3565b95505060606137a18a828b016130d3565b94505060806137b28a828b016130d3565b93505060a06137c38a828b016130d3565b92505060c06137d48a828b01613213565b91505092959891949750929550565b7f4e487b7100000000000000000000000000000000000000000000000000000000600052603260045260246000fd5b600060208284031215613828576138276130a8565b5b600061383684828501613213565b91505092915050565b600082825260208201905092915050565b7f556e69737761705632526f757465723a20494e56414c49445f50415448000000600082015250565b6000613886601d8361383f565b915061389182613850565b602082019050919050565b600060208201905081810360008301526138b581613879565b9050919050565b7f556e69737761705632526f757465723a204558434553534956455f494e50555460008201527f5f414d4f554e5400000000000000000000000000000000000000000000000000602082015250565b600061391860278361383f565b9150613923826138bc565b604082019050919050565b600060208201905081810360008301526139478161390b565b9050919050565b6000604082019050613963600083018561368a565b613970602083018461313b565b9392505050565b60008115159050919050565b61398c81613977565b811461399757600080fd5b50565b6000815190506139a981613983565b92915050565b6000602082840312156139c5576139c46130a8565b5b60006139d38482850161399a565b91505092915050565b7f4e487b7100000000000000000000000000000000000000000000000000000000600052601160045260246000fd5b6000613a16826130b2565b9150613a21836130b2565b925082821015613a3457613a336139dc565b5b828203905092915050565b7f556e69737761705632526f757465723a20494e53554646494349454e545f4f5560008201527f545055545f414d4f554e54000000000000000000000000000000000000000000602082015250565b6000613a9b602b8361383f565b9150613aa682613a3f565b604082019050919050565b60006020820190508181036000830152613aca81613a8e565b9050919050565b600081519050613ae0816130bc565b92915050565b600060208284031215613afc57613afb6130a8565b5b6000613b0a84828501613ad1565b91505092915050565b6000606082019050613b28600083018661368a565b613b35602083018561368a565b613b42604083018461313b565b949350505050565b60008060408385031215613b6157613b606130a8565b5b6000613b6f85828601613ad1565b9250506020613b8085828601613ad1565b9150509250929050565b7f556e69737761705632526f757465723a20494e53554646494349454e545f415f60008201527f414d4f554e540000000000000000000000000000000000000000000000000000602082015250565b6000613be660268361383f565b9150613bf182613b8a565b604082019050919050565b60006020820190508181036000830152613c1581613bd9565b9050919050565b7f556e69737761705632526f757465723a20494e53554646494349454e545f425f60008201527f414d4f554e540000000000000000000000000000000000000000000000000000602082015250565b6000613c7860268361383f565b9150613c8382613c1c565b604082019050919050565b60006020820190508181036000830152613ca781613c6b565b9050919050565b7f556e697377617056324c6962726172793a20494e53554646494349454e545f4960008201527f4e5055545f414d4f554e54000000000000000000000000000000000000000000602082015250565b6000613d0a602b8361383f565b9150613d1582613cae565b604082019050919050565b60006020820190508181036000830152613d3981613cfd565b9050919050565b7f556e697377617056324c6962726172793a20494e53554646494349454e545f4c60008201527f4951554944495459000000000000000000000000000000000000000000000000602082015250565b6000613d9c60288361383f565b9150613da782613d40565b604082019050919050565b60006020820190508181036000830152613dcb81613d8f565b9050919050565b6000613ddd826130b2565b9150613de8836130b2565b9250817fffffffffffffffffffffffffffffffffffffffffffffffffffffffffffffffff0483118215151615613e2157613e206139dc565b5b828202905092915050565b6000613e37826130b2565b9150613e42836130b2565b9250827fffffffffffffffffffffffffffffffffffffffffffffffffffffffffffffffff03821115613e7757613e766139dc565b5b828201905092915050565b7f4e487b7100000000000000000000000000000000000000000000000000000000600052601260045260246000fd5b6000613ebc826130b2565b9150613ec7836130b2565b925082613ed757613ed6613e82565b5b828204905092915050565b7f556e697377617056324c6962726172793a20494e56414c49445f504154480000600082015250565b6000613f18601e8361383f565b9150613f2382613ee2565b602082019050919050565b60006020820190508181036000830152613f4781613f0b565b9050919050565b6000613f59826130b2565b91506000821415613f6d57613f6c6139dc565b5b600182039050919050565b60008160601b9050919050565b6000613f9082613f78565b9050919050565b6000613fa282613f85565b9050919050565b613fba613fb5826131ea565b613f97565b82525050565b6000613fcc8285613fa9565b601482019150613fdc8284613fa9565b6014820191508190509392505050565b600081905092915050565b7fff00000000000000000000000000000000000000000000000000000000000000600082015250565b600061402d600183613fec565b915061403882613ff7565b600182019050919050565b6000819050919050565b6000819050919050565b61406861406382614043565b61404d565b82525050565b7f521bf869263c9263d9ba1f6250147964a5aa25775fa6b99ed02ea8d69cb820ab600082015250565b60006140a4602083613fec565b91506140af8261406e565b602082019050919050565b60006140c582614020565b91506140d18285613fa9565b6014820191506140e18284614057565b6020820191506140f082614097565b91508190509392505050565b6000606082019050614111600083018661313b565b61411e602083018561313b565b61412b604083018461368a565b949350505050565b600061413e826130b2565b91507fffffffffffffffffffffffffffffffffffffffffffffffffffffffffffffffff821415614171576141706139dc565b5b600182019050919050565b600081519050919050565b600081905092915050565b60005b838110156141b0578082015181840152602081019050614195565b838111156141bf576000848401525b50505050565b60006141d08261417c565b6141da8185614187565b93506141ea818560208601614192565b80840191505092915050565b600061420282846141c5565b915081905092915050565b7f5472616e7366657248656c7065723a3a736166655472616e736665724554483a60008201527f20455448207472616e73666572206661696c6564000000000000000000000000602082015250565b600061426960348361383f565b91506142748261420d565b604082019050919050565b600060208201905081810360008301526142988161425c565b9050919050565b7f5472616e7366657248656c7065723a3a7472616e7366657246726f6d3a20747260008201527f616e7366657246726f6d206661696c6564000000000000000000000000000000602082015250565b60006142fb60318361383f565b91506143068261429f565b604082019050919050565b6000602082019050818103600083015261432a816142ee565b9050919050565b7f5472616e7366657248656c7065723a3a736166655472616e736665723a20747260008201527f616e73666572206661696c656400000000000000000000000000000000000000602082015250565b600061438d602d8361383f565b915061439882614331565b604082019050919050565b600060208201905081810360008301526143bc81614380565b9050919050565b60006040820190506143d8600083018561368a565b6143e5602083018461368a565b9392505050565b6000815190506143fb816131fc565b92915050565b600060208284031215614417576144166130a8565b5b6000614425848285016143ec565b91505092915050565b7f556e697377617056324c6962726172793a20494e53554646494349454e545f4f60008201527f55545055545f414d4f554e540000000000000000000000000000000000000000602082015250565b600061448a602c8361383f565b91506144958261442e565b604082019050919050565b600060208201905081810360008301526144b98161447d565b9050919050565b7f556e697377617056324c6962726172793a20494e53554646494349454e545f4160008201527f4d4f554e54000000000000000000000000000000000000000000000000000000602082015250565b600061451c60258361383f565b9150614527826144c0565b604082019050919050565b6000602082019050818103600083015261454b8161450f565b9050919050565b7f556e697377617056324c6962726172793a204944454e544943414c5f4144445260008201527f4553534553000000000000000000000000000000000000000000000000000000602082015250565b60006145ae60258361383f565b91506145b982614552565b604082019050919050565b600060208201905081810360008301526145dd816145a1565b9050919050565b7f556e697377617056324c6962726172793a205a45524f5f414444524553530000600082015250565b600061461a601e8361383f565b9150614625826145e4565b602082019050919050565b600060208201905081810360008301526146498161460d565b9050919050565b60006dffffffffffffffffffffffffffff82169050919050565b61467381614650565b811461467e57600080fd5b50565b6000815190506146908161466a565b92915050565b600080604083850312156146ad576146ac6130a8565b5b60006146bb85828601614681565b92505060206146cc85828601614681565b915050925092905056fea2646970667358221220a3967f24e912d64d4f941e7ba6e1499cd5265b611736bf1ccdb9cc6ea5e5993864736f6c63430008080033",
          "opcodes": "PUSH1 0xC0 PUSH1 0x40 MSTORE CALLVALUE DUP1 ISZERO PUSH3 0x11 JUMPI PUSH1 0x0 DUP1 REVERT JUMPDEST POP PUSH1 0x40 MLOAD PUSH3 0x49A7 CODESIZE SUB DUP1 PUSH3 0x49A7 DUP4 CODECOPY DUP2 DUP2 ADD PUSH1 0x40 MSTORE DUP2 ADD SWAP1 PUSH3 0x37 SWAP2 SWAP1 PUSH3 0x117 JUMP JUMPDEST DUP2 PUSH20 0xFFFFFFFFFFFFFFFFFFFFFFFFFFFFFFFFFFFFFFFF AND PUSH1 0x80 DUP2 PUSH20 0xFFFFFFFFFFFFFFFFFFFFFFFFFFFFFFFFFFFFFFFF AND PUSH1 0x60 SHL DUP2 MSTORE POP POP DUP1 PUSH20 0xFFFFFFFFFFFFFFFFFFFFFFFFFFFFFFFFFFFFFFFF AND PUSH1 0xA0 DUP2 PUSH20 0xFFFFFFFFFFFFFFFFFFFFFFFFFFFFFFFFFFFFFFFF AND PUSH1 0x60 SHL DUP2 MSTORE POP POP POP POP PUSH3 0x15E JUMP JUMPDEST PUSH1 0x0 DUP1 REVERT JUMPDEST PUSH1 0x0 PUSH20 0xFFFFFFFFFFFFFFFFFFFFFFFFFFFFFFFFFFFFFFFF DUP3 AND SWAP1 POP SWAP2 SWAP1 POP JUMP JUMPDEST PUSH1 0x0 PUSH3 0xDF DUP3 PUSH3 0xB2 JUMP JUMPDEST SWAP1 POP SWAP2 SWAP1 POP JUMP JUMPDEST PUSH3 0xF1 DUP2 PUSH3 0xD2 JUMP JUMPDEST DUP2 EQ PUSH3 0xFD JUMPI PUSH1 0x0 DUP1 REVERT JUMPDEST POP JUMP JUMPDEST PUSH1 0x0 DUP2 MLOAD SWAP1 POP PUSH3 0x111 DUP2 PUSH3 0xE6 JUMP JUMPDEST SWAP3 SWAP2 POP POP JUMP JUMPDEST PUSH1 0x0 DUP1 PUSH1 0x40 DUP4 DUP6 SUB SLT ISZERO PUSH3 0x131 JUMPI PUSH3 0x130 PUSH3 0xAD JUMP JUMPDEST JUMPDEST PUSH1 0x0 PUSH3 0x141 DUP6 DUP3 DUP7 ADD PUSH3 0x100 JUMP JUMPDEST SWAP3 POP POP PUSH1 0x20 PUSH3 0x154 DUP6 DUP3 DUP7 ADD PUSH3 0x100 JUMP JUMPDEST SWAP2 POP POP SWAP3 POP SWAP3 SWAP1 POP JUMP JUMPDEST PUSH1 0x80 MLOAD PUSH1 0x60 SHR PUSH1 0xA0 MLOAD PUSH1 0x60 SHR PUSH2 0x470C PUSH3 0x29B PUSH1 0x0 CODECOPY PUSH1 0x0 DUP2 DUP2 PUSH2 0x109 ADD MSTORE DUP2 DUP2 PUSH2 0x54C ADD MSTORE DUP2 DUP2 PUSH2 0x6CE ADD MSTORE DUP2 DUP2 PUSH2 0x76A ADD MSTORE DUP2 DUP2 PUSH2 0x963 ADD MSTORE DUP2 DUP2 PUSH2 0xAF1 ADD MSTORE DUP2 DUP2 PUSH2 0xB8D ADD MSTORE DUP2 DUP2 PUSH2 0xD67 ADD MSTORE DUP2 DUP2 PUSH2 0x1018 ADD MSTORE DUP2 DUP2 PUSH2 0x1106 ADD MSTORE DUP2 DUP2 PUSH2 0x13AB ADD MSTORE DUP2 DUP2 PUSH2 0x1882 ADD MSTORE DUP2 DUP2 PUSH2 0x18BF ADD MSTORE DUP2 DUP2 PUSH2 0x1967 ADD MSTORE DUP2 DUP2 PUSH2 0x19C0 ADD MSTORE DUP2 DUP2 PUSH2 0x19F4 ADD MSTORE DUP2 DUP2 PUSH2 0x1A75 ADD MSTORE PUSH2 0x1BFC ADD MSTORE PUSH1 0x0 DUP2 DUP2 PUSH2 0x605 ADD MSTORE DUP2 DUP2 PUSH2 0x7A9 ADD MSTORE DUP2 DUP2 PUSH2 0xA1C ADD MSTORE DUP2 DUP2 PUSH2 0xBCC ADD MSTORE DUP2 DUP2 PUSH2 0xD35 ADD MSTORE DUP2 DUP2 PUSH2 0xE2E ADD MSTORE DUP2 DUP2 PUSH2 0xF33 ADD MSTORE DUP2 DUP2 PUSH2 0x11CD ADD MSTORE DUP2 DUP2 PUSH2 0x12C6 ADD MSTORE DUP2 DUP2 PUSH2 0x149C ADD MSTORE DUP2 DUP2 PUSH2 0x1595 ADD MSTORE DUP2 DUP2 PUSH2 0x1688 ADD MSTORE DUP2 DUP2 PUSH2 0x178D ADD MSTORE DUP2 DUP2 PUSH2 0x199E ADD MSTORE DUP2 DUP2 PUSH2 0x1C3E ADD MSTORE DUP2 DUP2 PUSH2 0x1E72 ADD MSTORE DUP2 DUP2 PUSH2 0x1EB6 ADD MSTORE DUP2 DUP2 PUSH2 0x1F98 ADD MSTORE DUP2 DUP2 PUSH2 0x23BF ADD MSTORE DUP2 DUP2 PUSH2 0x2413 ADD MSTORE DUP2 DUP2 PUSH2 0x29DE ADD MSTORE DUP2 DUP2 PUSH2 0x2AA5 ADD MSTORE PUSH2 0x2B5A ADD MSTORE PUSH2 0x470C PUSH1 0x0 RETURN INVALID PUSH1 0x80 PUSH1 0x40 MSTORE PUSH1 0x4 CALLDATASIZE LT PUSH2 0x102 JUMPI PUSH1 0x0 CALLDATALOAD PUSH1 0xE0 SHR DUP1 PUSH4 0x6587E4CE GT PUSH2 0x95 JUMPI DUP1 PUSH4 0xAD615DEC GT PUSH2 0x64 JUMPI DUP1 PUSH4 0xAD615DEC EQ PUSH2 0x410 JUMPI DUP1 PUSH4 0xC0E3EE6B EQ PUSH2 0x44D JUMPI DUP1 PUSH4 0xC45A0155 EQ PUSH2 0x48B JUMPI DUP1 PUSH4 0xCA3D6539 EQ PUSH2 0x4B6 JUMPI DUP1 PUSH4 0xD06CA61F EQ PUSH2 0x4F5 JUMPI PUSH2 0x165 JUMP JUMPDEST DUP1 PUSH4 0x6587E4CE EQ PUSH2 0x338 JUMPI DUP1 PUSH4 0x77215790 EQ PUSH2 0x376 JUMPI DUP1 PUSH4 0x85F8C259 EQ PUSH2 0x3A8 JUMPI DUP1 PUSH4 0xAD5C4648 EQ PUSH2 0x3E5 JUMPI PUSH2 0x165 JUMP JUMPDEST DUP1 PUSH4 0x363DB5C6 GT PUSH2 0xD1 JUMPI DUP1 PUSH4 0x363DB5C6 EQ PUSH2 0x244 JUMPI DUP1 PUSH4 0x3E8877ED EQ PUSH2 0x281 JUMPI DUP1 PUSH4 0x42712A67 EQ PUSH2 0x2BE JUMPI DUP1 PUSH4 0x472B43F3 EQ PUSH2 0x2FB JUMPI PUSH2 0x165 JUMP JUMPDEST DUP1 PUSH4 0x54D50D4 EQ PUSH2 0x16A JUMPI DUP1 PUSH4 0x10086982 EQ PUSH2 0x1A7 JUMPI DUP1 PUSH4 0x12C6442F EQ PUSH2 0x1D7 JUMPI DUP1 PUSH4 0x1F00CA74 EQ PUSH2 0x207 JUMPI PUSH2 0x165 JUMP JUMPDEST CALLDATASIZE PUSH2 0x165 JUMPI PUSH32 0x0 PUSH20 0xFFFFFFFFFFFFFFFFFFFFFFFFFFFFFFFFFFFFFFFF AND CALLER PUSH20 0xFFFFFFFFFFFFFFFFFFFFFFFFFFFFFFFFFFFFFFFF AND EQ PUSH2 0x163 JUMPI PUSH2 0x162 PUSH2 0x306F JUMP JUMPDEST JUMPDEST STOP JUMPDEST PUSH1 0x0 DUP1 REVERT JUMPDEST CALLVALUE DUP1 ISZERO PUSH2 0x176 JUMPI PUSH1 0x0 DUP1 REVERT JUMPDEST POP PUSH2 0x191 PUSH1 0x4 DUP1 CALLDATASIZE SUB DUP2 ADD SWAP1 PUSH2 0x18C SWAP2 SWAP1 PUSH2 0x30E8 JUMP JUMPDEST PUSH2 0x532 JUMP JUMPDEST PUSH1 0x40 MLOAD PUSH2 0x19E SWAP2 SWAP1 PUSH2 0x314A JUMP JUMPDEST PUSH1 0x40 MLOAD DUP1 SWAP2 SUB SWAP1 RETURN JUMPDEST PUSH2 0x1C1 PUSH1 0x4 DUP1 CALLDATASIZE SUB DUP2 ADD SWAP1 PUSH2 0x1BC SWAP2 SWAP1 PUSH2 0x3228 JUMP JUMPDEST PUSH2 0x548 JUMP JUMPDEST PUSH1 0x40 MLOAD PUSH2 0x1CE SWAP2 SWAP1 PUSH2 0x335A JUMP JUMPDEST PUSH1 0x40 MLOAD DUP1 SWAP2 SUB SWAP1 RETURN JUMPDEST PUSH2 0x1F1 PUSH1 0x4 DUP1 CALLDATASIZE SUB DUP2 ADD SWAP1 PUSH2 0x1EC SWAP2 SWAP1 PUSH2 0x3228 JUMP JUMPDEST PUSH2 0x95F JUMP JUMPDEST PUSH1 0x40 MLOAD PUSH2 0x1FE SWAP2 SWAP1 PUSH2 0x335A JUMP JUMPDEST PUSH1 0x40 MLOAD DUP1 SWAP2 SUB SWAP1 RETURN JUMPDEST CALLVALUE DUP1 ISZERO PUSH2 0x213 JUMPI PUSH1 0x0 DUP1 REVERT JUMPDEST POP PUSH2 0x22E PUSH1 0x4 DUP1 CALLDATASIZE SUB DUP2 ADD SWAP1 PUSH2 0x229 SWAP2 SWAP1 PUSH2 0x34CB JUMP JUMPDEST PUSH2 0xD2E JUMP JUMPDEST PUSH1 0x40 MLOAD PUSH2 0x23B SWAP2 SWAP1 PUSH2 0x335A JUMP JUMPDEST PUSH1 0x40 MLOAD DUP1 SWAP2 SUB SWAP1 RETURN JUMPDEST CALLVALUE DUP1 ISZERO PUSH2 0x250 JUMPI PUSH1 0x0 DUP1 REVERT JUMPDEST POP PUSH2 0x26B PUSH1 0x4 DUP1 CALLDATASIZE SUB DUP2 ADD SWAP1 PUSH2 0x266 SWAP2 SWAP1 PUSH2 0x3527 JUMP JUMPDEST PUSH2 0xD63 JUMP JUMPDEST PUSH1 0x40 MLOAD PUSH2 0x278 SWAP2 SWAP1 PUSH2 0x335A JUMP JUMPDEST PUSH1 0x40 MLOAD DUP1 SWAP2 SUB SWAP1 RETURN JUMPDEST CALLVALUE DUP1 ISZERO PUSH2 0x28D JUMPI PUSH1 0x0 DUP1 REVERT JUMPDEST POP PUSH2 0x2A8 PUSH1 0x4 DUP1 CALLDATASIZE SUB DUP2 ADD SWAP1 PUSH2 0x2A3 SWAP2 SWAP1 PUSH2 0x3527 JUMP JUMPDEST PUSH2 0x1102 JUMP JUMPDEST PUSH1 0x40 MLOAD PUSH2 0x2B5 SWAP2 SWAP1 PUSH2 0x335A JUMP JUMPDEST PUSH1 0x40 MLOAD DUP1 SWAP2 SUB SWAP1 RETURN JUMPDEST CALLVALUE DUP1 ISZERO PUSH2 0x2CA JUMPI PUSH1 0x0 DUP1 REVERT JUMPDEST POP PUSH2 0x2E5 PUSH1 0x4 DUP1 CALLDATASIZE SUB DUP2 ADD SWAP1 PUSH2 0x2E0 SWAP2 SWAP1 PUSH2 0x3527 JUMP JUMPDEST PUSH2 0x1495 JUMP JUMPDEST PUSH1 0x40 MLOAD PUSH2 0x2F2 SWAP2 SWAP1 PUSH2 0x335A JUMP JUMPDEST PUSH1 0x40 MLOAD DUP1 SWAP2 SUB SWAP1 RETURN JUMPDEST CALLVALUE DUP1 ISZERO PUSH2 0x307 JUMPI PUSH1 0x0 DUP1 REVERT JUMPDEST POP PUSH2 0x322 PUSH1 0x4 DUP1 CALLDATASIZE SUB DUP2 ADD SWAP1 PUSH2 0x31D SWAP2 SWAP1 PUSH2 0x3527 JUMP JUMPDEST PUSH2 0x1681 JUMP JUMPDEST PUSH1 0x40 MLOAD PUSH2 0x32F SWAP2 SWAP1 PUSH2 0x335A JUMP JUMPDEST PUSH1 0x40 MLOAD DUP1 SWAP2 SUB SWAP1 RETURN JUMPDEST CALLVALUE DUP1 ISZERO PUSH2 0x344 JUMPI PUSH1 0x0 DUP1 REVERT JUMPDEST POP PUSH2 0x35F PUSH1 0x4 DUP1 CALLDATASIZE SUB DUP2 ADD SWAP1 PUSH2 0x35A SWAP2 SWAP1 PUSH2 0x35AF JUMP JUMPDEST PUSH2 0x1879 JUMP JUMPDEST PUSH1 0x40 MLOAD PUSH2 0x36D SWAP3 SWAP2 SWAP1 PUSH2 0x362A JUMP JUMPDEST PUSH1 0x40 MLOAD DUP1 SWAP2 SUB SWAP1 RETURN JUMPDEST PUSH2 0x390 PUSH1 0x4 DUP1 CALLDATASIZE SUB DUP2 ADD SWAP1 PUSH2 0x38B SWAP2 SWAP1 PUSH2 0x35AF JUMP JUMPDEST PUSH2 0x195C JUMP JUMPDEST PUSH1 0x40 MLOAD PUSH2 0x39F SWAP4 SWAP3 SWAP2 SWAP1 PUSH2 0x3653 JUMP JUMPDEST PUSH1 0x40 MLOAD DUP1 SWAP2 SUB SWAP1 RETURN JUMPDEST CALLVALUE DUP1 ISZERO PUSH2 0x3B4 JUMPI PUSH1 0x0 DUP1 REVERT JUMPDEST POP PUSH2 0x3CF PUSH1 0x4 DUP1 CALLDATASIZE SUB DUP2 ADD SWAP1 PUSH2 0x3CA SWAP2 SWAP1 PUSH2 0x30E8 JUMP JUMPDEST PUSH2 0x1BE4 JUMP JUMPDEST PUSH1 0x40 MLOAD PUSH2 0x3DC SWAP2 SWAP1 PUSH2 0x314A JUMP JUMPDEST PUSH1 0x40 MLOAD DUP1 SWAP2 SUB SWAP1 RETURN JUMPDEST CALLVALUE DUP1 ISZERO PUSH2 0x3F1 JUMPI PUSH1 0x0 DUP1 REVERT JUMPDEST POP PUSH2 0x3FA PUSH2 0x1BFA JUMP JUMPDEST PUSH1 0x40 MLOAD PUSH2 0x407 SWAP2 SWAP1 PUSH2 0x3699 JUMP JUMPDEST PUSH1 0x40 MLOAD DUP1 SWAP2 SUB SWAP1 RETURN JUMPDEST CALLVALUE DUP1 ISZERO PUSH2 0x41C JUMPI PUSH1 0x0 DUP1 REVERT JUMPDEST POP PUSH2 0x437 PUSH1 0x4 DUP1 CALLDATASIZE SUB DUP2 ADD SWAP1 PUSH2 0x432 SWAP2 SWAP1 PUSH2 0x30E8 JUMP JUMPDEST PUSH2 0x1C1E JUMP JUMPDEST PUSH1 0x40 MLOAD PUSH2 0x444 SWAP2 SWAP1 PUSH2 0x314A JUMP JUMPDEST PUSH1 0x40 MLOAD DUP1 SWAP2 SUB SWAP1 RETURN JUMPDEST CALLVALUE DUP1 ISZERO PUSH2 0x459 JUMPI PUSH1 0x0 DUP1 REVERT JUMPDEST POP PUSH2 0x474 PUSH1 0x4 DUP1 CALLDATASIZE SUB DUP2 ADD SWAP1 PUSH2 0x46F SWAP2 SWAP1 PUSH2 0x36B4 JUMP JUMPDEST PUSH2 0x1C34 JUMP JUMPDEST PUSH1 0x40 MLOAD PUSH2 0x482 SWAP3 SWAP2 SWAP1 PUSH2 0x362A JUMP JUMPDEST PUSH1 0x40 MLOAD DUP1 SWAP2 SUB SWAP1 RETURN JUMPDEST CALLVALUE DUP1 ISZERO PUSH2 0x497 JUMPI PUSH1 0x0 DUP1 REVERT JUMPDEST POP PUSH2 0x4A0 PUSH2 0x1E70 JUMP JUMPDEST PUSH1 0x40 MLOAD PUSH2 0x4AD SWAP2 SWAP1 PUSH2 0x3699 JUMP JUMPDEST PUSH1 0x40 MLOAD DUP1 SWAP2 SUB SWAP1 RETURN JUMPDEST CALLVALUE DUP1 ISZERO PUSH2 0x4C2 JUMPI PUSH1 0x0 DUP1 REVERT JUMPDEST POP PUSH2 0x4DD PUSH1 0x4 DUP1 CALLDATASIZE SUB DUP2 ADD SWAP1 PUSH2 0x4D8 SWAP2 SWAP1 PUSH2 0x3741 JUMP JUMPDEST PUSH2 0x1E94 JUMP JUMPDEST PUSH1 0x40 MLOAD PUSH2 0x4EC SWAP4 SWAP3 SWAP2 SWAP1 PUSH2 0x3653 JUMP JUMPDEST PUSH1 0x40 MLOAD DUP1 SWAP2 SUB SWAP1 RETURN JUMPDEST CALLVALUE DUP1 ISZERO PUSH2 0x501 JUMPI PUSH1 0x0 DUP1 REVERT JUMPDEST POP PUSH2 0x51C PUSH1 0x4 DUP1 CALLDATASIZE SUB DUP2 ADD SWAP1 PUSH2 0x517 SWAP2 SWAP1 PUSH2 0x34CB JUMP JUMPDEST PUSH2 0x1F91 JUMP JUMPDEST PUSH1 0x40 MLOAD PUSH2 0x529 SWAP2 SWAP1 PUSH2 0x335A JUMP JUMPDEST PUSH1 0x40 MLOAD DUP1 SWAP2 SUB SWAP1 RETURN JUMPDEST PUSH1 0x0 PUSH2 0x53F DUP5 DUP5 DUP5 PUSH2 0x1FC6 JUMP JUMPDEST SWAP1 POP SWAP4 SWAP3 POP POP POP JUMP JUMPDEST PUSH1 0x60 PUSH32 0x0 PUSH20 0xFFFFFFFFFFFFFFFFFFFFFFFFFFFFFFFFFFFFFFFF AND DUP5 DUP5 PUSH1 0x0 DUP2 DUP2 LT PUSH2 0x595 JUMPI PUSH2 0x594 PUSH2 0x37E3 JUMP JUMPDEST JUMPDEST SWAP1 POP PUSH1 0x20 MUL ADD PUSH1 0x20 DUP2 ADD SWAP1 PUSH2 0x5AA SWAP2 SWAP1 PUSH2 0x3812 JUMP JUMPDEST PUSH20 0xFFFFFFFFFFFFFFFFFFFFFFFFFFFFFFFFFFFFFFFF AND EQ PUSH2 0x600 JUMPI PUSH1 0x40 MLOAD PUSH32 0x8C379A000000000000000000000000000000000000000000000000000000000 DUP2 MSTORE PUSH1 0x4 ADD PUSH2 0x5F7 SWAP1 PUSH2 0x389C JUMP JUMPDEST PUSH1 0x40 MLOAD DUP1 SWAP2 SUB SWAP1 REVERT JUMPDEST PUSH2 0x66C PUSH32 0x0 DUP7 DUP7 DUP7 DUP1 DUP1 PUSH1 0x20 MUL PUSH1 0x20 ADD PUSH1 0x40 MLOAD SWAP1 DUP2 ADD PUSH1 0x40 MSTORE DUP1 SWAP4 SWAP3 SWAP2 SWAP1 DUP2 DUP2 MSTORE PUSH1 0x20 ADD DUP4 DUP4 PUSH1 0x20 MUL DUP1 DUP3 DUP5 CALLDATACOPY PUSH1 0x0 DUP2 DUP5 ADD MSTORE PUSH1 0x1F NOT PUSH1 0x1F DUP3 ADD AND SWAP1 POP DUP1 DUP4 ADD SWAP3 POP POP POP POP POP POP POP PUSH2 0x20B0 JUMP JUMPDEST SWAP1 POP CALLVALUE DUP2 PUSH1 0x0 DUP2 MLOAD DUP2 LT PUSH2 0x683 JUMPI PUSH2 0x682 PUSH2 0x37E3 JUMP JUMPDEST JUMPDEST PUSH1 0x20 MUL PUSH1 0x20 ADD ADD MLOAD GT ISZERO PUSH2 0x6CC JUMPI PUSH1 0x40 MLOAD PUSH32 0x8C379A000000000000000000000000000000000000000000000000000000000 DUP2 MSTORE PUSH1 0x4 ADD PUSH2 0x6C3 SWAP1 PUSH2 0x392E JUMP JUMPDEST PUSH1 0x40 MLOAD DUP1 SWAP2 SUB SWAP1 REVERT JUMPDEST PUSH32 0x0 PUSH20 0xFFFFFFFFFFFFFFFFFFFFFFFFFFFFFFFFFFFFFFFF AND PUSH4 0xD0E30DB0 DUP3 PUSH1 0x0 DUP2 MLOAD DUP2 LT PUSH2 0x71C JUMPI PUSH2 0x71B PUSH2 0x37E3 JUMP JUMPDEST JUMPDEST PUSH1 0x20 MUL PUSH1 0x20 ADD ADD MLOAD PUSH1 0x40 MLOAD DUP3 PUSH4 0xFFFFFFFF AND PUSH1 0xE0 SHL DUP2 MSTORE PUSH1 0x4 ADD PUSH1 0x0 PUSH1 0x40 MLOAD DUP1 DUP4 SUB DUP2 DUP6 DUP9 DUP1 EXTCODESIZE ISZERO DUP1 ISZERO PUSH2 0x74F JUMPI PUSH1 0x0 DUP1 REVERT JUMPDEST POP GAS CALL ISZERO DUP1 ISZERO PUSH2 0x763 JUMPI RETURNDATASIZE PUSH1 0x0 DUP1 RETURNDATACOPY RETURNDATASIZE PUSH1 0x0 REVERT JUMPDEST POP POP POP POP POP PUSH32 0x0 PUSH20 0xFFFFFFFFFFFFFFFFFFFFFFFFFFFFFFFFFFFFFFFF AND PUSH4 0xA9059CBB PUSH2 0x81F PUSH32 0x0 DUP8 DUP8 PUSH1 0x0 DUP2 DUP2 LT PUSH2 0x7DC JUMPI PUSH2 0x7DB PUSH2 0x37E3 JUMP JUMPDEST JUMPDEST SWAP1 POP PUSH1 0x20 MUL ADD PUSH1 0x20 DUP2 ADD SWAP1 PUSH2 0x7F1 SWAP2 SWAP1 PUSH2 0x3812 JUMP JUMPDEST DUP9 DUP9 PUSH1 0x1 DUP2 DUP2 LT PUSH2 0x805 JUMPI PUSH2 0x804 PUSH2 0x37E3 JUMP JUMPDEST JUMPDEST SWAP1 POP PUSH1 0x20 MUL ADD PUSH1 0x20 DUP2 ADD SWAP1 PUSH2 0x81A SWAP2 SWAP1 PUSH2 0x3812 JUMP JUMPDEST PUSH2 0x224B JUMP JUMPDEST DUP4 PUSH1 0x0 DUP2 MLOAD DUP2 LT PUSH2 0x833 JUMPI PUSH2 0x832 PUSH2 0x37E3 JUMP JUMPDEST JUMPDEST PUSH1 0x20 MUL PUSH1 0x20 ADD ADD MLOAD PUSH1 0x40 MLOAD DUP4 PUSH4 0xFFFFFFFF AND PUSH1 0xE0 SHL DUP2 MSTORE PUSH1 0x4 ADD PUSH2 0x858 SWAP3 SWAP2 SWAP1 PUSH2 0x394E JUMP JUMPDEST PUSH1 0x20 PUSH1 0x40 MLOAD DUP1 DUP4 SUB DUP2 PUSH1 0x0 DUP8 DUP1 EXTCODESIZE ISZERO DUP1 ISZERO PUSH2 0x872 JUMPI PUSH1 0x0 DUP1 REVERT JUMPDEST POP GAS CALL ISZERO DUP1 ISZERO PUSH2 0x886 JUMPI RETURNDATASIZE PUSH1 0x0 DUP1 RETURNDATACOPY RETURNDATASIZE PUSH1 0x0 REVERT JUMPDEST POP POP POP POP PUSH1 0x40 MLOAD RETURNDATASIZE PUSH1 0x1F NOT PUSH1 0x1F DUP3 ADD AND DUP3 ADD DUP1 PUSH1 0x40 MSTORE POP DUP2 ADD SWAP1 PUSH2 0x8AA SWAP2 SWAP1 PUSH2 0x39AF JUMP JUMPDEST PUSH2 0x8B7 JUMPI PUSH2 0x8B6 PUSH2 0x306F JUMP JUMPDEST JUMPDEST PUSH2 0x903 DUP2 DUP6 DUP6 DUP1 DUP1 PUSH1 0x20 MUL PUSH1 0x20 ADD PUSH1 0x40 MLOAD SWAP1 DUP2 ADD PUSH1 0x40 MSTORE DUP1 SWAP4 SWAP3 SWAP2 SWAP1 DUP2 DUP2 MSTORE PUSH1 0x20 ADD DUP4 DUP4 PUSH1 0x20 MUL DUP1 DUP3 DUP5 CALLDATACOPY PUSH1 0x0 DUP2 DUP5 ADD MSTORE PUSH1 0x1F NOT PUSH1 0x1F DUP3 ADD AND SWAP1 POP DUP1 DUP4 ADD SWAP3 POP POP POP POP POP POP POP DUP5 PUSH2 0x22BD JUMP JUMPDEST DUP1 PUSH1 0x0 DUP2 MLOAD DUP2 LT PUSH2 0x917 JUMPI PUSH2 0x916 PUSH2 0x37E3 JUMP JUMPDEST JUMPDEST PUSH1 0x20 MUL PUSH1 0x20 ADD ADD MLOAD CALLVALUE GT ISZERO PUSH2 0x957 JUMPI PUSH2 0x956 CALLER DUP3 PUSH1 0x0 DUP2 MLOAD DUP2 LT PUSH2 0x93E JUMPI PUSH2 0x93D PUSH2 0x37E3 JUMP JUMPDEST JUMPDEST PUSH1 0x20 MUL PUSH1 0x20 ADD ADD MLOAD CALLVALUE PUSH2 0x951 SWAP2 SWAP1 PUSH2 0x3A0B JUMP JUMPDEST PUSH2 0x24C7 JUMP JUMPDEST JUMPDEST SWAP5 SWAP4 POP POP POP POP JUMP JUMPDEST PUSH1 0x60 PUSH32 0x0 PUSH20 0xFFFFFFFFFFFFFFFFFFFFFFFFFFFFFFFFFFFFFFFF AND DUP5 DUP5 PUSH1 0x0 DUP2 DUP2 LT PUSH2 0x9AC JUMPI PUSH2 0x9AB PUSH2 0x37E3 JUMP JUMPDEST JUMPDEST SWAP1 POP PUSH1 0x20 MUL ADD PUSH1 0x20 DUP2 ADD SWAP1 PUSH2 0x9C1 SWAP2 SWAP1 PUSH2 0x3812 JUMP JUMPDEST PUSH20 0xFFFFFFFFFFFFFFFFFFFFFFFFFFFFFFFFFFFFFFFF AND EQ PUSH2 0xA17 JUMPI PUSH1 0x40 MLOAD PUSH32 0x8C379A000000000000000000000000000000000000000000000000000000000 DUP2 MSTORE PUSH1 0x4 ADD PUSH2 0xA0E SWAP1 PUSH2 0x389C JUMP JUMPDEST PUSH1 0x40 MLOAD DUP1 SWAP2 SUB SWAP1 REVERT JUMPDEST PUSH2 0xA83 PUSH32 0x0 CALLVALUE DUP7 DUP7 DUP1 DUP1 PUSH1 0x20 MUL PUSH1 0x20 ADD PUSH1 0x40 MLOAD SWAP1 DUP2 ADD PUSH1 0x40 MSTORE DUP1 SWAP4 SWAP3 SWAP2 SWAP1 DUP2 DUP2 MSTORE PUSH1 0x20 ADD DUP4 DUP4 PUSH1 0x20 MUL DUP1 DUP3 DUP5 CALLDATACOPY PUSH1 0x0 DUP2 DUP5 ADD MSTORE PUSH1 0x1F NOT PUSH1 0x1F DUP3 ADD AND SWAP1 POP DUP1 DUP4 ADD SWAP3 POP POP POP POP POP POP POP PUSH2 0x25C7 JUMP JUMPDEST SWAP1 POP DUP5 DUP2 PUSH1 0x1 DUP4 MLOAD PUSH2 0xA95 SWAP2 SWAP1 PUSH2 0x3A0B JUMP JUMPDEST DUP2 MLOAD DUP2 LT PUSH2 0xAA6 JUMPI PUSH2 0xAA5 PUSH2 0x37E3 JUMP JUMPDEST JUMPDEST PUSH1 0x20 MUL PUSH1 0x20 ADD ADD MLOAD LT ISZERO PUSH2 0xAEF JUMPI PUSH1 0x40 MLOAD PUSH32 0x8C379A000000000000000000000000000000000000000000000000000000000 DUP2 MSTORE PUSH1 0x4 ADD PUSH2 0xAE6 SWAP1 PUSH2 0x3AB1 JUMP JUMPDEST PUSH1 0x40 MLOAD DUP1 SWAP2 SUB SWAP1 REVERT JUMPDEST PUSH32 0x0 PUSH20 0xFFFFFFFFFFFFFFFFFFFFFFFFFFFFFFFFFFFFFFFF AND PUSH4 0xD0E30DB0 DUP3 PUSH1 0x0 DUP2 MLOAD DUP2 LT PUSH2 0xB3F JUMPI PUSH2 0xB3E PUSH2 0x37E3 JUMP JUMPDEST JUMPDEST PUSH1 0x20 MUL PUSH1 0x20 ADD ADD MLOAD PUSH1 0x40 MLOAD DUP3 PUSH4 0xFFFFFFFF AND PUSH1 0xE0 SHL DUP2 MSTORE PUSH1 0x4 ADD PUSH1 0x0 PUSH1 0x40 MLOAD DUP1 DUP4 SUB DUP2 DUP6 DUP9 DUP1 EXTCODESIZE ISZERO DUP1 ISZERO PUSH2 0xB72 JUMPI PUSH1 0x0 DUP1 REVERT JUMPDEST POP GAS CALL ISZERO DUP1 ISZERO PUSH2 0xB86 JUMPI RETURNDATASIZE PUSH1 0x0 DUP1 RETURNDATACOPY RETURNDATASIZE PUSH1 0x0 REVERT JUMPDEST POP POP POP POP POP PUSH32 0x0 PUSH20 0xFFFFFFFFFFFFFFFFFFFFFFFFFFFFFFFFFFFFFFFF AND PUSH4 0xA9059CBB PUSH2 0xC42 PUSH32 0x0 DUP8 DUP8 PUSH1 0x0 DUP2 DUP2 LT PUSH2 0xBFF JUMPI PUSH2 0xBFE PUSH2 0x37E3 JUMP JUMPDEST JUMPDEST SWAP1 POP PUSH1 0x20 MUL ADD PUSH1 0x20 DUP2 ADD SWAP1 PUSH2 0xC14 SWAP2 SWAP1 PUSH2 0x3812 JUMP JUMPDEST DUP9 DUP9 PUSH1 0x1 DUP2 DUP2 LT PUSH2 0xC28 JUMPI PUSH2 0xC27 PUSH2 0x37E3 JUMP JUMPDEST JUMPDEST SWAP1 POP PUSH1 0x20 MUL ADD PUSH1 0x20 DUP2 ADD SWAP1 PUSH2 0xC3D SWAP2 SWAP1 PUSH2 0x3812 JUMP JUMPDEST PUSH2 0x224B JUMP JUMPDEST DUP4 PUSH1 0x0 DUP2 MLOAD DUP2 LT PUSH2 0xC56 JUMPI PUSH2 0xC55 PUSH2 0x37E3 JUMP JUMPDEST JUMPDEST PUSH1 0x20 MUL PUSH1 0x20 ADD ADD MLOAD PUSH1 0x40 MLOAD DUP4 PUSH4 0xFFFFFFFF AND PUSH1 0xE0 SHL DUP2 MSTORE PUSH1 0x4 ADD PUSH2 0xC7B SWAP3 SWAP2 SWAP1 PUSH2 0x394E JUMP JUMPDEST PUSH1 0x20 PUSH1 0x40 MLOAD DUP1 DUP4 SUB DUP2 PUSH1 0x0 DUP8 DUP1 EXTCODESIZE ISZERO DUP1 ISZERO PUSH2 0xC95 JUMPI PUSH1 0x0 DUP1 REVERT JUMPDEST POP GAS CALL ISZERO DUP1 ISZERO PUSH2 0xCA9 JUMPI RETURNDATASIZE PUSH1 0x0 DUP1 RETURNDATACOPY RETURNDATASIZE PUSH1 0x0 REVERT JUMPDEST POP POP POP POP PUSH1 0x40 MLOAD RETURNDATASIZE PUSH1 0x1F NOT PUSH1 0x1F DUP3 ADD AND DUP3 ADD DUP1 PUSH1 0x40 MSTORE POP DUP2 ADD SWAP1 PUSH2 0xCCD SWAP2 SWAP1 PUSH2 0x39AF JUMP JUMPDEST PUSH2 0xCDA JUMPI PUSH2 0xCD9 PUSH2 0x306F JUMP JUMPDEST JUMPDEST PUSH2 0xD26 DUP2 DUP6 DUP6 DUP1 DUP1 PUSH1 0x20 MUL PUSH1 0x20 ADD PUSH1 0x40 MLOAD SWAP1 DUP2 ADD PUSH1 0x40 MSTORE DUP1 SWAP4 SWAP3 SWAP2 SWAP1 DUP2 DUP2 MSTORE PUSH1 0x20 ADD DUP4 DUP4 PUSH1 0x20 MUL DUP1 DUP3 DUP5 CALLDATACOPY PUSH1 0x0 DUP2 DUP5 ADD MSTORE PUSH1 0x1F NOT PUSH1 0x1F DUP3 ADD AND SWAP1 POP DUP1 DUP4 ADD SWAP3 POP POP POP POP POP POP POP DUP5 PUSH2 0x22BD JUMP JUMPDEST SWAP5 SWAP4 POP POP POP POP JUMP JUMPDEST PUSH1 0x60 PUSH2 0xD5B PUSH32 0x0 DUP5 DUP5 PUSH2 0x20B0 JUMP JUMPDEST SWAP1 POP SWAP3 SWAP2 POP POP JUMP JUMPDEST PUSH1 0x60 PUSH32 0x0 PUSH20 0xFFFFFFFFFFFFFFFFFFFFFFFFFFFFFFFFFFFFFFFF AND DUP5 DUP5 PUSH1 0x1 DUP8 DUP8 SWAP1 POP PUSH2 0xDAE SWAP2 SWAP1 PUSH2 0x3A0B JUMP JUMPDEST DUP2 DUP2 LT PUSH2 0xDBE JUMPI PUSH2 0xDBD PUSH2 0x37E3 JUMP JUMPDEST JUMPDEST SWAP1 POP PUSH1 0x20 MUL ADD PUSH1 0x20 DUP2 ADD SWAP1 PUSH2 0xDD3 SWAP2 SWAP1 PUSH2 0x3812 JUMP JUMPDEST PUSH20 0xFFFFFFFFFFFFFFFFFFFFFFFFFFFFFFFFFFFFFFFF AND EQ PUSH2 0xE29 JUMPI PUSH1 0x40 MLOAD PUSH32 0x8C379A000000000000000000000000000000000000000000000000000000000 DUP2 MSTORE PUSH1 0x4 ADD PUSH2 0xE20 SWAP1 PUSH2 0x389C JUMP JUMPDEST PUSH1 0x40 MLOAD DUP1 SWAP2 SUB SWAP1 REVERT JUMPDEST PUSH2 0xE95 PUSH32 0x0 DUP8 DUP7 DUP7 DUP1 DUP1 PUSH1 0x20 MUL PUSH1 0x20 ADD PUSH1 0x40 MLOAD SWAP1 DUP2 ADD PUSH1 0x40 MSTORE DUP1 SWAP4 SWAP3 SWAP2 SWAP1 DUP2 DUP2 MSTORE PUSH1 0x20 ADD DUP4 DUP4 PUSH1 0x20 MUL DUP1 DUP3 DUP5 CALLDATACOPY PUSH1 0x0 DUP2 DUP5 ADD MSTORE PUSH1 0x1F NOT PUSH1 0x1F DUP3 ADD AND SWAP1 POP DUP1 DUP4 ADD SWAP3 POP POP POP POP POP POP POP PUSH2 0x25C7 JUMP JUMPDEST SWAP1 POP DUP5 DUP2 PUSH1 0x1 DUP4 MLOAD PUSH2 0xEA7 SWAP2 SWAP1 PUSH2 0x3A0B JUMP JUMPDEST DUP2 MLOAD DUP2 LT PUSH2 0xEB8 JUMPI PUSH2 0xEB7 PUSH2 0x37E3 JUMP JUMPDEST JUMPDEST PUSH1 0x20 MUL PUSH1 0x20 ADD ADD MLOAD LT ISZERO PUSH2 0xF01 JUMPI PUSH1 0x40 MLOAD PUSH32 0x8C379A000000000000000000000000000000000000000000000000000000000 DUP2 MSTORE PUSH1 0x4 ADD PUSH2 0xEF8 SWAP1 PUSH2 0x3AB1 JUMP JUMPDEST PUSH1 0x40 MLOAD DUP1 SWAP2 SUB SWAP1 REVERT JUMPDEST PUSH2 0xFCA DUP5 DUP5 PUSH1 0x0 DUP2 DUP2 LT PUSH2 0xF18 JUMPI PUSH2 0xF17 PUSH2 0x37E3 JUMP JUMPDEST JUMPDEST SWAP1 POP PUSH1 0x20 MUL ADD PUSH1 0x20 DUP2 ADD SWAP1 PUSH2 0xF2D SWAP2 SWAP1 PUSH2 0x3812 JUMP JUMPDEST CALLER PUSH2 0xFA9 PUSH32 0x0 DUP9 DUP9 PUSH1 0x0 DUP2 DUP2 LT PUSH2 0xF66 JUMPI PUSH2 0xF65 PUSH2 0x37E3 JUMP JUMPDEST JUMPDEST SWAP1 POP PUSH1 0x20 MUL ADD PUSH1 0x20 DUP2 ADD SWAP1 PUSH2 0xF7B SWAP2 SWAP1 PUSH2 0x3812 JUMP JUMPDEST DUP10 DUP10 PUSH1 0x1 DUP2 DUP2 LT PUSH2 0xF8F JUMPI PUSH2 0xF8E PUSH2 0x37E3 JUMP JUMPDEST JUMPDEST SWAP1 POP PUSH1 0x20 MUL ADD PUSH1 0x20 DUP2 ADD SWAP1 PUSH2 0xFA4 SWAP2 SWAP1 PUSH2 0x3812 JUMP JUMPDEST PUSH2 0x224B JUMP JUMPDEST DUP5 PUSH1 0x0 DUP2 MLOAD DUP2 LT PUSH2 0xFBD JUMPI PUSH2 0xFBC PUSH2 0x37E3 JUMP JUMPDEST JUMPDEST PUSH1 0x20 MUL PUSH1 0x20 ADD ADD MLOAD PUSH2 0x2752 JUMP JUMPDEST PUSH2 0x1016 DUP2 DUP6 DUP6 DUP1 DUP1 PUSH1 0x20 MUL PUSH1 0x20 ADD PUSH1 0x40 MLOAD SWAP1 DUP2 ADD PUSH1 0x40 MSTORE DUP1 SWAP4 SWAP3 SWAP2 SWAP1 DUP2 DUP2 MSTORE PUSH1 0x20 ADD DUP4 DUP4 PUSH1 0x20 MUL DUP1 DUP3 DUP5 CALLDATACOPY PUSH1 0x0 DUP2 DUP5 ADD MSTORE PUSH1 0x1F NOT PUSH1 0x1F DUP3 ADD AND SWAP1 POP DUP1 DUP4 ADD SWAP3 POP POP POP POP POP POP POP ADDRESS PUSH2 0x22BD JUMP JUMPDEST PUSH32 0x0 PUSH20 0xFFFFFFFFFFFFFFFFFFFFFFFFFFFFFFFFFFFFFFFF AND PUSH4 0x2E1A7D4D DUP3 PUSH1 0x1 DUP5 MLOAD PUSH2 0x1061 SWAP2 SWAP1 PUSH2 0x3A0B JUMP JUMPDEST DUP2 MLOAD DUP2 LT PUSH2 0x1072 JUMPI PUSH2 0x1071 PUSH2 0x37E3 JUMP JUMPDEST JUMPDEST PUSH1 0x20 MUL PUSH1 0x20 ADD ADD MLOAD PUSH1 0x40 MLOAD DUP3 PUSH4 0xFFFFFFFF AND PUSH1 0xE0 SHL DUP2 MSTORE PUSH1 0x4 ADD PUSH2 0x1096 SWAP2 SWAP1 PUSH2 0x314A JUMP JUMPDEST PUSH1 0x0 PUSH1 0x40 MLOAD DUP1 DUP4 SUB DUP2 PUSH1 0x0 DUP8 DUP1 EXTCODESIZE ISZERO DUP1 ISZERO PUSH2 0x10B0 JUMPI PUSH1 0x0 DUP1 REVERT JUMPDEST POP GAS CALL ISZERO DUP1 ISZERO PUSH2 0x10C4 JUMPI RETURNDATASIZE PUSH1 0x0 DUP1 RETURNDATACOPY RETURNDATASIZE PUSH1 0x0 REVERT JUMPDEST POP POP POP POP PUSH2 0x10F9 DUP3 DUP3 PUSH1 0x1 DUP5 MLOAD PUSH2 0x10DB SWAP2 SWAP1 PUSH2 0x3A0B JUMP JUMPDEST DUP2 MLOAD DUP2 LT PUSH2 0x10EC JUMPI PUSH2 0x10EB PUSH2 0x37E3 JUMP JUMPDEST JUMPDEST PUSH1 0x20 MUL PUSH1 0x20 ADD ADD MLOAD PUSH2 0x24C7 JUMP JUMPDEST SWAP6 SWAP5 POP POP POP POP POP JUMP JUMPDEST PUSH1 0x60 PUSH32 0x0 PUSH20 0xFFFFFFFFFFFFFFFFFFFFFFFFFFFFFFFFFFFFFFFF AND DUP5 DUP5 PUSH1 0x1 DUP8 DUP8 SWAP1 POP PUSH2 0x114D SWAP2 SWAP1 PUSH2 0x3A0B JUMP JUMPDEST DUP2 DUP2 LT PUSH2 0x115D JUMPI PUSH2 0x115C PUSH2 0x37E3 JUMP JUMPDEST JUMPDEST SWAP1 POP PUSH1 0x20 MUL ADD PUSH1 0x20 DUP2 ADD SWAP1 PUSH2 0x1172 SWAP2 SWAP1 PUSH2 0x3812 JUMP JUMPDEST PUSH20 0xFFFFFFFFFFFFFFFFFFFFFFFFFFFFFFFFFFFFFFFF AND EQ PUSH2 0x11C8 JUMPI PUSH1 0x40 MLOAD PUSH32 0x8C379A000000000000000000000000000000000000000000000000000000000 DUP2 MSTORE PUSH1 0x4 ADD PUSH2 0x11BF SWAP1 PUSH2 0x389C JUMP JUMPDEST PUSH1 0x40 MLOAD DUP1 SWAP2 SUB SWAP1 REVERT JUMPDEST PUSH2 0x1234 PUSH32 0x0 DUP8 DUP7 DUP7 DUP1 DUP1 PUSH1 0x20 MUL PUSH1 0x20 ADD PUSH1 0x40 MLOAD SWAP1 DUP2 ADD PUSH1 0x40 MSTORE DUP1 SWAP4 SWAP3 SWAP2 SWAP1 DUP2 DUP2 MSTORE PUSH1 0x20 ADD DUP4 DUP4 PUSH1 0x20 MUL DUP1 DUP3 DUP5 CALLDATACOPY PUSH1 0x0 DUP2 DUP5 ADD MSTORE PUSH1 0x1F NOT PUSH1 0x1F DUP3 ADD AND SWAP1 POP DUP1 DUP4 ADD SWAP3 POP POP POP POP POP POP POP PUSH2 0x20B0 JUMP JUMPDEST SWAP1 POP DUP5 DUP2 PUSH1 0x0 DUP2 MLOAD DUP2 LT PUSH2 0x124B JUMPI PUSH2 0x124A PUSH2 0x37E3 JUMP JUMPDEST JUMPDEST PUSH1 0x20 MUL PUSH1 0x20 ADD ADD MLOAD GT ISZERO PUSH2 0x1294 JUMPI PUSH1 0x40 MLOAD PUSH32 0x8C379A000000000000000000000000000000000000000000000000000000000 DUP2 MSTORE PUSH1 0x4 ADD PUSH2 0x128B SWAP1 PUSH2 0x392E JUMP JUMPDEST PUSH1 0x40 MLOAD DUP1 SWAP2 SUB SWAP1 REVERT JUMPDEST PUSH2 0x135D DUP5 DUP5 PUSH1 0x0 DUP2 DUP2 LT PUSH2 0x12AB JUMPI PUSH2 0x12AA PUSH2 0x37E3 JUMP JUMPDEST JUMPDEST SWAP1 POP PUSH1 0x20 MUL ADD PUSH1 0x20 DUP2 ADD SWAP1 PUSH2 0x12C0 SWAP2 SWAP1 PUSH2 0x3812 JUMP JUMPDEST CALLER PUSH2 0x133C PUSH32 0x0 DUP9 DUP9 PUSH1 0x0 DUP2 DUP2 LT PUSH2 0x12F9 JUMPI PUSH2 0x12F8 PUSH2 0x37E3 JUMP JUMPDEST JUMPDEST SWAP1 POP PUSH1 0x20 MUL ADD PUSH1 0x20 DUP2 ADD SWAP1 PUSH2 0x130E SWAP2 SWAP1 PUSH2 0x3812 JUMP JUMPDEST DUP10 DUP10 PUSH1 0x1 DUP2 DUP2 LT PUSH2 0x1322 JUMPI PUSH2 0x1321 PUSH2 0x37E3 JUMP JUMPDEST JUMPDEST SWAP1 POP PUSH1 0x20 MUL ADD PUSH1 0x20 DUP2 ADD SWAP1 PUSH2 0x1337 SWAP2 SWAP1 PUSH2 0x3812 JUMP JUMPDEST PUSH2 0x224B JUMP JUMPDEST DUP5 PUSH1 0x0 DUP2 MLOAD DUP2 LT PUSH2 0x1350 JUMPI PUSH2 0x134F PUSH2 0x37E3 JUMP JUMPDEST JUMPDEST PUSH1 0x20 MUL PUSH1 0x20 ADD ADD MLOAD PUSH2 0x2752 JUMP JUMPDEST PUSH2 0x13A9 DUP2 DUP6 DUP6 DUP1 DUP1 PUSH1 0x20 MUL PUSH1 0x20 ADD PUSH1 0x40 MLOAD SWAP1 DUP2 ADD PUSH1 0x40 MSTORE DUP1 SWAP4 SWAP3 SWAP2 SWAP1 DUP2 DUP2 MSTORE PUSH1 0x20 ADD DUP4 DUP4 PUSH1 0x20 MUL DUP1 DUP3 DUP5 CALLDATACOPY PUSH1 0x0 DUP2 DUP5 ADD MSTORE PUSH1 0x1F NOT PUSH1 0x1F DUP3 ADD AND SWAP1 POP DUP1 DUP4 ADD SWAP3 POP POP POP POP POP POP POP ADDRESS PUSH2 0x22BD JUMP JUMPDEST PUSH32 0x0 PUSH20 0xFFFFFFFFFFFFFFFFFFFFFFFFFFFFFFFFFFFFFFFF AND PUSH4 0x2E1A7D4D DUP3 PUSH1 0x1 DUP5 MLOAD PUSH2 0x13F4 SWAP2 SWAP1 PUSH2 0x3A0B JUMP JUMPDEST DUP2 MLOAD DUP2 LT PUSH2 0x1405 JUMPI PUSH2 0x1404 PUSH2 0x37E3 JUMP JUMPDEST JUMPDEST PUSH1 0x20 MUL PUSH1 0x20 ADD ADD MLOAD PUSH1 0x40 MLOAD DUP3 PUSH4 0xFFFFFFFF AND PUSH1 0xE0 SHL DUP2 MSTORE PUSH1 0x4 ADD PUSH2 0x1429 SWAP2 SWAP1 PUSH2 0x314A JUMP JUMPDEST PUSH1 0x0 PUSH1 0x40 MLOAD DUP1 DUP4 SUB DUP2 PUSH1 0x0 DUP8 DUP1 EXTCODESIZE ISZERO DUP1 ISZERO PUSH2 0x1443 JUMPI PUSH1 0x0 DUP1 REVERT JUMPDEST POP GAS CALL ISZERO DUP1 ISZERO PUSH2 0x1457 JUMPI RETURNDATASIZE PUSH1 0x0 DUP1 RETURNDATACOPY RETURNDATASIZE PUSH1 0x0 REVERT JUMPDEST POP POP POP POP PUSH2 0x148C DUP3 DUP3 PUSH1 0x1 DUP5 MLOAD PUSH2 0x146E SWAP2 SWAP1 PUSH2 0x3A0B JUMP JUMPDEST DUP2 MLOAD DUP2 LT PUSH2 0x147F JUMPI PUSH2 0x147E PUSH2 0x37E3 JUMP JUMPDEST JUMPDEST PUSH1 0x20 MUL PUSH1 0x20 ADD ADD MLOAD PUSH2 0x24C7 JUMP JUMPDEST SWAP6 SWAP5 POP POP POP POP POP JUMP JUMPDEST PUSH1 0x60 PUSH2 0x1503 PUSH32 0x0 DUP8 DUP7 DUP7 DUP1 DUP1 PUSH1 0x20 MUL PUSH1 0x20 ADD PUSH1 0x40 MLOAD SWAP1 DUP2 ADD PUSH1 0x40 MSTORE DUP1 SWAP4 SWAP3 SWAP2 SWAP1 DUP2 DUP2 MSTORE PUSH1 0x20 ADD DUP4 DUP4 PUSH1 0x20 MUL DUP1 DUP3 DUP5 CALLDATACOPY PUSH1 0x0 DUP2 DUP5 ADD MSTORE PUSH1 0x1F NOT PUSH1 0x1F DUP3 ADD AND SWAP1 POP DUP1 DUP4 ADD SWAP3 POP POP POP POP POP POP POP PUSH2 0x20B0 JUMP JUMPDEST SWAP1 POP DUP5 DUP2 PUSH1 0x0 DUP2 MLOAD DUP2 LT PUSH2 0x151A JUMPI PUSH2 0x1519 PUSH2 0x37E3 JUMP JUMPDEST JUMPDEST PUSH1 0x20 MUL PUSH1 0x20 ADD ADD MLOAD GT ISZERO PUSH2 0x1563 JUMPI PUSH1 0x40 MLOAD PUSH32 0x8C379A000000000000000000000000000000000000000000000000000000000 DUP2 MSTORE PUSH1 0x4 ADD PUSH2 0x155A SWAP1 PUSH2 0x392E JUMP JUMPDEST PUSH1 0x40 MLOAD DUP1 SWAP2 SUB SWAP1 REVERT JUMPDEST PUSH2 0x162C DUP5 DUP5 PUSH1 0x0 DUP2 DUP2 LT PUSH2 0x157A JUMPI PUSH2 0x1579 PUSH2 0x37E3 JUMP JUMPDEST JUMPDEST SWAP1 POP PUSH1 0x20 MUL ADD PUSH1 0x20 DUP2 ADD SWAP1 PUSH2 0x158F SWAP2 SWAP1 PUSH2 0x3812 JUMP JUMPDEST CALLER PUSH2 0x160B PUSH32 0x0 DUP9 DUP9 PUSH1 0x0 DUP2 DUP2 LT PUSH2 0x15C8 JUMPI PUSH2 0x15C7 PUSH2 0x37E3 JUMP JUMPDEST JUMPDEST SWAP1 POP PUSH1 0x20 MUL ADD PUSH1 0x20 DUP2 ADD SWAP1 PUSH2 0x15DD SWAP2 SWAP1 PUSH2 0x3812 JUMP JUMPDEST DUP10 DUP10 PUSH1 0x1 DUP2 DUP2 LT PUSH2 0x15F1 JUMPI PUSH2 0x15F0 PUSH2 0x37E3 JUMP JUMPDEST JUMPDEST SWAP1 POP PUSH1 0x20 MUL ADD PUSH1 0x20 DUP2 ADD SWAP1 PUSH2 0x1606 SWAP2 SWAP1 PUSH2 0x3812 JUMP JUMPDEST PUSH2 0x224B JUMP JUMPDEST DUP5 PUSH1 0x0 DUP2 MLOAD DUP2 LT PUSH2 0x161F JUMPI PUSH2 0x161E PUSH2 0x37E3 JUMP JUMPDEST JUMPDEST PUSH1 0x20 MUL PUSH1 0x20 ADD ADD MLOAD PUSH2 0x2752 JUMP JUMPDEST PUSH2 0x1678 DUP2 DUP6 DUP6 DUP1 DUP1 PUSH1 0x20 MUL PUSH1 0x20 ADD PUSH1 0x40 MLOAD SWAP1 DUP2 ADD PUSH1 0x40 MSTORE DUP1 SWAP4 SWAP3 SWAP2 SWAP1 DUP2 DUP2 MSTORE PUSH1 0x20 ADD DUP4 DUP4 PUSH1 0x20 MUL DUP1 DUP3 DUP5 CALLDATACOPY PUSH1 0x0 DUP2 DUP5 ADD MSTORE PUSH1 0x1F NOT PUSH1 0x1F DUP3 ADD AND SWAP1 POP DUP1 DUP4 ADD SWAP3 POP POP POP POP POP POP POP DUP5 PUSH2 0x22BD JUMP JUMPDEST SWAP6 SWAP5 POP POP POP POP POP JUMP JUMPDEST PUSH1 0x60 PUSH2 0x16EF PUSH32 0x0 DUP8 DUP7 DUP7 DUP1 DUP1 PUSH1 0x20 MUL PUSH1 0x20 ADD PUSH1 0x40 MLOAD SWAP1 DUP2 ADD PUSH1 0x40 MSTORE DUP1 SWAP4 SWAP3 SWAP2 SWAP1 DUP2 DUP2 MSTORE PUSH1 0x20 ADD DUP4 DUP4 PUSH1 0x20 MUL DUP1 DUP3 DUP5 CALLDATACOPY PUSH1 0x0 DUP2 DUP5 ADD MSTORE PUSH1 0x1F NOT PUSH1 0x1F DUP3 ADD AND SWAP1 POP DUP1 DUP4 ADD SWAP3 POP POP POP POP POP POP POP PUSH2 0x25C7 JUMP JUMPDEST SWAP1 POP DUP5 DUP2 PUSH1 0x1 DUP4 MLOAD PUSH2 0x1701 SWAP2 SWAP1 PUSH2 0x3A0B JUMP JUMPDEST DUP2 MLOAD DUP2 LT PUSH2 0x1712 JUMPI PUSH2 0x1711 PUSH2 0x37E3 JUMP JUMPDEST JUMPDEST PUSH1 0x20 MUL PUSH1 0x20 ADD ADD MLOAD LT ISZERO PUSH2 0x175B JUMPI PUSH1 0x40 MLOAD PUSH32 0x8C379A000000000000000000000000000000000000000000000000000000000 DUP2 MSTORE PUSH1 0x4 ADD PUSH2 0x1752 SWAP1 PUSH2 0x3AB1 JUMP JUMPDEST PUSH1 0x40 MLOAD DUP1 SWAP2 SUB SWAP1 REVERT JUMPDEST PUSH2 0x1824 DUP5 DUP5 PUSH1 0x0 DUP2 DUP2 LT PUSH2 0x1772 JUMPI PUSH2 0x1771 PUSH2 0x37E3 JUMP JUMPDEST JUMPDEST SWAP1 POP PUSH1 0x20 MUL ADD PUSH1 0x20 DUP2 ADD SWAP1 PUSH2 0x1787 SWAP2 SWAP1 PUSH2 0x3812 JUMP JUMPDEST CALLER PUSH2 0x1803 PUSH32 0x0 DUP9 DUP9 PUSH1 0x0 DUP2 DUP2 LT PUSH2 0x17C0 JUMPI PUSH2 0x17BF PUSH2 0x37E3 JUMP JUMPDEST JUMPDEST SWAP1 POP PUSH1 0x20 MUL ADD PUSH1 0x20 DUP2 ADD SWAP1 PUSH2 0x17D5 SWAP2 SWAP1 PUSH2 0x3812 JUMP JUMPDEST DUP10 DUP10 PUSH1 0x1 DUP2 DUP2 LT PUSH2 0x17E9 JUMPI PUSH2 0x17E8 PUSH2 0x37E3 JUMP JUMPDEST JUMPDEST SWAP1 POP PUSH1 0x20 MUL ADD PUSH1 0x20 DUP2 ADD SWAP1 PUSH2 0x17FE SWAP2 SWAP1 PUSH2 0x3812 JUMP JUMPDEST PUSH2 0x224B JUMP JUMPDEST DUP5 PUSH1 0x0 DUP2 MLOAD DUP2 LT PUSH2 0x1817 JUMPI PUSH2 0x1816 PUSH2 0x37E3 JUMP JUMPDEST JUMPDEST PUSH1 0x20 MUL PUSH1 0x20 ADD ADD MLOAD PUSH2 0x2752 JUMP JUMPDEST PUSH2 0x1870 DUP2 DUP6 DUP6 DUP1 DUP1 PUSH1 0x20 MUL PUSH1 0x20 ADD PUSH1 0x40 MLOAD SWAP1 DUP2 ADD PUSH1 0x40 MSTORE DUP1 SWAP4 SWAP3 SWAP2 SWAP1 DUP2 DUP2 MSTORE PUSH1 0x20 ADD DUP4 DUP4 PUSH1 0x20 MUL DUP1 DUP3 DUP5 CALLDATACOPY PUSH1 0x0 DUP2 DUP5 ADD MSTORE PUSH1 0x1F NOT PUSH1 0x1F DUP3 ADD AND SWAP1 POP DUP1 DUP4 ADD SWAP3 POP POP POP POP POP POP POP DUP5 PUSH2 0x22BD JUMP JUMPDEST SWAP6 SWAP5 POP POP POP POP POP JUMP JUMPDEST PUSH1 0x0 DUP1 PUSH2 0x18AA DUP8 PUSH32 0x0 DUP9 DUP9 DUP9 ADDRESS PUSH2 0x1C34 JUMP JUMPDEST DUP1 SWAP3 POP DUP2 SWAP4 POP POP POP PUSH2 0x18BD DUP8 DUP5 DUP5 PUSH2 0x288B JUMP JUMPDEST PUSH32 0x0 PUSH20 0xFFFFFFFFFFFFFFFFFFFFFFFFFFFFFFFFFFFFFFFF AND PUSH4 0x2E1A7D4D DUP3 PUSH1 0x40 MLOAD DUP3 PUSH4 0xFFFFFFFF AND PUSH1 0xE0 SHL DUP2 MSTORE PUSH1 0x4 ADD PUSH2 0x1916 SWAP2 SWAP1 PUSH2 0x314A JUMP JUMPDEST PUSH1 0x0 PUSH1 0x40 MLOAD DUP1 DUP4 SUB DUP2 PUSH1 0x0 DUP8 DUP1 EXTCODESIZE ISZERO DUP1 ISZERO PUSH2 0x1930 JUMPI PUSH1 0x0 DUP1 REVERT JUMPDEST POP GAS CALL ISZERO DUP1 ISZERO PUSH2 0x1944 JUMPI RETURNDATASIZE PUSH1 0x0 DUP1 RETURNDATACOPY RETURNDATASIZE PUSH1 0x0 REVERT JUMPDEST POP POP POP POP PUSH2 0x1952 DUP4 DUP3 PUSH2 0x24C7 JUMP JUMPDEST SWAP6 POP SWAP6 SWAP4 POP POP POP POP JUMP JUMPDEST PUSH1 0x0 DUP1 PUSH1 0x0 PUSH2 0x198F DUP9 PUSH32 0x0 DUP10 CALLVALUE DUP11 DUP11 PUSH2 0x29C1 JUMP JUMPDEST DUP1 SWAP4 POP DUP2 SWAP5 POP POP POP PUSH1 0x0 PUSH2 0x19E4 PUSH32 0x0 DUP11 PUSH32 0x0 PUSH2 0x224B JUMP JUMPDEST SWAP1 POP PUSH2 0x19F2 DUP10 CALLER DUP4 DUP8 PUSH2 0x2752 JUMP JUMPDEST PUSH32 0x0 PUSH20 0xFFFFFFFFFFFFFFFFFFFFFFFFFFFFFFFFFFFFFFFF AND PUSH4 0xD0E30DB0 DUP5 PUSH1 0x40 MLOAD DUP3 PUSH4 0xFFFFFFFF AND PUSH1 0xE0 SHL DUP2 MSTORE PUSH1 0x4 ADD PUSH1 0x0 PUSH1 0x40 MLOAD DUP1 DUP4 SUB DUP2 DUP6 DUP9 DUP1 EXTCODESIZE ISZERO DUP1 ISZERO PUSH2 0x1A5A JUMPI PUSH1 0x0 DUP1 REVERT JUMPDEST POP GAS CALL ISZERO DUP1 ISZERO PUSH2 0x1A6E JUMPI RETURNDATASIZE PUSH1 0x0 DUP1 RETURNDATACOPY RETURNDATASIZE PUSH1 0x0 REVERT JUMPDEST POP POP POP POP POP PUSH32 0x0 PUSH20 0xFFFFFFFFFFFFFFFFFFFFFFFFFFFFFFFFFFFFFFFF AND PUSH4 0xA9059CBB DUP3 DUP6 PUSH1 0x40 MLOAD DUP4 PUSH4 0xFFFFFFFF AND PUSH1 0xE0 SHL DUP2 MSTORE PUSH1 0x4 ADD PUSH2 0x1ACE SWAP3 SWAP2 SWAP1 PUSH2 0x394E JUMP JUMPDEST PUSH1 0x20 PUSH1 0x40 MLOAD DUP1 DUP4 SUB DUP2 PUSH1 0x0 DUP8 DUP1 EXTCODESIZE ISZERO DUP1 ISZERO PUSH2 0x1AE8 JUMPI PUSH1 0x0 DUP1 REVERT JUMPDEST POP GAS CALL ISZERO DUP1 ISZERO PUSH2 0x1AFC JUMPI RETURNDATASIZE PUSH1 0x0 DUP1 RETURNDATACOPY RETURNDATASIZE PUSH1 0x0 REVERT JUMPDEST POP POP POP POP PUSH1 0x40 MLOAD RETURNDATASIZE PUSH1 0x1F NOT PUSH1 0x1F DUP3 ADD AND DUP3 ADD DUP1 PUSH1 0x40 MSTORE POP DUP2 ADD SWAP1 PUSH2 0x1B20 SWAP2 SWAP1 PUSH2 0x39AF JUMP JUMPDEST PUSH2 0x1B2D JUMPI PUSH2 0x1B2C PUSH2 0x306F JUMP JUMPDEST JUMPDEST DUP1 PUSH20 0xFFFFFFFFFFFFFFFFFFFFFFFFFFFFFFFFFFFFFFFF AND PUSH4 0x6A627842 DUP7 PUSH1 0x40 MLOAD DUP3 PUSH4 0xFFFFFFFF AND PUSH1 0xE0 SHL DUP2 MSTORE PUSH1 0x4 ADD PUSH2 0x1B66 SWAP2 SWAP1 PUSH2 0x3699 JUMP JUMPDEST PUSH1 0x20 PUSH1 0x40 MLOAD DUP1 DUP4 SUB DUP2 PUSH1 0x0 DUP8 DUP1 EXTCODESIZE ISZERO DUP1 ISZERO PUSH2 0x1B80 JUMPI PUSH1 0x0 DUP1 REVERT JUMPDEST POP GAS CALL ISZERO DUP1 ISZERO PUSH2 0x1B94 JUMPI RETURNDATASIZE PUSH1 0x0 DUP1 RETURNDATACOPY RETURNDATASIZE PUSH1 0x0 REVERT JUMPDEST POP POP POP POP PUSH1 0x40 MLOAD RETURNDATASIZE PUSH1 0x1F NOT PUSH1 0x1F DUP3 ADD AND DUP3 ADD DUP1 PUSH1 0x40 MSTORE POP DUP2 ADD SWAP1 PUSH2 0x1BB8 SWAP2 SWAP1 PUSH2 0x3AE6 JUMP JUMPDEST SWAP2 POP DUP3 CALLVALUE GT ISZERO PUSH2 0x1BD8 JUMPI PUSH2 0x1BD7 CALLER DUP5 CALLVALUE PUSH2 0x1BD2 SWAP2 SWAP1 PUSH2 0x3A0B JUMP JUMPDEST PUSH2 0x24C7 JUMP JUMPDEST JUMPDEST POP SWAP6 POP SWAP6 POP SWAP6 SWAP3 POP POP POP JUMP JUMPDEST PUSH1 0x0 PUSH2 0x1BF1 DUP5 DUP5 DUP5 PUSH2 0x2C8E JUMP JUMPDEST SWAP1 POP SWAP4 SWAP3 POP POP POP JUMP JUMPDEST PUSH32 0x0 DUP2 JUMP JUMPDEST PUSH1 0x0 PUSH2 0x1C2B DUP5 DUP5 DUP5 PUSH2 0x2D7E JUMP JUMPDEST SWAP1 POP SWAP4 SWAP3 POP POP POP JUMP JUMPDEST PUSH1 0x0 DUP1 PUSH1 0x0 PUSH2 0x1C64 PUSH32 0x0 DUP11 DUP11 PUSH2 0x224B JUMP JUMPDEST SWAP1 POP DUP1 PUSH20 0xFFFFFFFFFFFFFFFFFFFFFFFFFFFFFFFFFFFFFFFF AND PUSH4 0x23B872DD CALLER DUP4 DUP11 PUSH1 0x40 MLOAD DUP5 PUSH4 0xFFFFFFFF AND PUSH1 0xE0 SHL DUP2 MSTORE PUSH1 0x4 ADD PUSH2 0x1CA3 SWAP4 SWAP3 SWAP2 SWAP1 PUSH2 0x3B13 JUMP JUMPDEST PUSH1 0x20 PUSH1 0x40 MLOAD DUP1 DUP4 SUB DUP2 PUSH1 0x0 DUP8 DUP1 EXTCODESIZE ISZERO DUP1 ISZERO PUSH2 0x1CBD JUMPI PUSH1 0x0 DUP1 REVERT JUMPDEST POP GAS CALL ISZERO DUP1 ISZERO PUSH2 0x1CD1 JUMPI RETURNDATASIZE PUSH1 0x0 DUP1 RETURNDATACOPY RETURNDATASIZE PUSH1 0x0 REVERT JUMPDEST POP POP POP POP PUSH1 0x40 MLOAD RETURNDATASIZE PUSH1 0x1F NOT PUSH1 0x1F DUP3 ADD AND DUP3 ADD DUP1 PUSH1 0x40 MSTORE POP DUP2 ADD SWAP1 PUSH2 0x1CF5 SWAP2 SWAP1 PUSH2 0x39AF JUMP JUMPDEST POP PUSH1 0x0 DUP1 DUP3 PUSH20 0xFFFFFFFFFFFFFFFFFFFFFFFFFFFFFFFFFFFFFFFF AND PUSH4 0x89AFCB44 DUP8 PUSH1 0x40 MLOAD DUP3 PUSH4 0xFFFFFFFF AND PUSH1 0xE0 SHL DUP2 MSTORE PUSH1 0x4 ADD PUSH2 0x1D32 SWAP2 SWAP1 PUSH2 0x3699 JUMP JUMPDEST PUSH1 0x40 DUP1 MLOAD DUP1 DUP4 SUB DUP2 PUSH1 0x0 DUP8 DUP1 EXTCODESIZE ISZERO DUP1 ISZERO PUSH2 0x1D4B JUMPI PUSH1 0x0 DUP1 REVERT JUMPDEST POP GAS CALL ISZERO DUP1 ISZERO PUSH2 0x1D5F JUMPI RETURNDATASIZE PUSH1 0x0 DUP1 RETURNDATACOPY RETURNDATASIZE PUSH1 0x0 REVERT JUMPDEST POP POP POP POP PUSH1 0x40 MLOAD RETURNDATASIZE PUSH1 0x1F NOT PUSH1 0x1F DUP3 ADD AND DUP3 ADD DUP1 PUSH1 0x40 MSTORE POP DUP2 ADD SWAP1 PUSH2 0x1D83 SWAP2 SWAP1 PUSH2 0x3B4A JUMP JUMPDEST SWAP2 POP SWAP2 POP PUSH1 0x0 PUSH2 0x1D93 DUP13 DUP13 PUSH2 0x2E31 JUMP JUMPDEST POP SWAP1 POP DUP1 PUSH20 0xFFFFFFFFFFFFFFFFFFFFFFFFFFFFFFFFFFFFFFFF AND DUP13 PUSH20 0xFFFFFFFFFFFFFFFFFFFFFFFFFFFFFFFFFFFFFFFF AND EQ PUSH2 0x1DD0 JUMPI DUP2 DUP4 PUSH2 0x1DD3 JUMP JUMPDEST DUP3 DUP3 JUMPDEST DUP1 SWAP7 POP DUP2 SWAP8 POP POP POP DUP9 DUP7 LT ISZERO PUSH2 0x1E1E JUMPI PUSH1 0x40 MLOAD PUSH32 0x8C379A000000000000000000000000000000000000000000000000000000000 DUP2 MSTORE PUSH1 0x4 ADD PUSH2 0x1E15 SWAP1 PUSH2 0x3BFC JUMP JUMPDEST PUSH1 0x40 MLOAD DUP1 SWAP2 SUB SWAP1 REVERT JUMPDEST DUP8 DUP6 LT ISZERO PUSH2 0x1E61 JUMPI PUSH1 0x40 MLOAD PUSH32 0x8C379A000000000000000000000000000000000000000000000000000000000 DUP2 MSTORE PUSH1 0x4 ADD PUSH2 0x1E58 SWAP1 PUSH2 0x3C8E JUMP JUMPDEST PUSH1 0x40 MLOAD DUP1 SWAP2 SUB SWAP1 REVERT JUMPDEST POP POP POP POP SWAP7 POP SWAP7 SWAP5 POP POP POP POP POP JUMP JUMPDEST PUSH32 0x0 DUP2 JUMP JUMPDEST PUSH1 0x0 DUP1 PUSH1 0x0 PUSH2 0x1EA7 DUP11 DUP11 DUP11 DUP11 DUP11 DUP11 PUSH2 0x29C1 JUMP JUMPDEST DUP1 SWAP4 POP DUP2 SWAP5 POP POP POP PUSH1 0x0 PUSH2 0x1EDC PUSH32 0x0 DUP13 DUP13 PUSH2 0x224B JUMP JUMPDEST SWAP1 POP PUSH2 0x1EEA DUP12 CALLER DUP4 DUP8 PUSH2 0x2752 JUMP JUMPDEST PUSH2 0x1EF6 DUP11 CALLER DUP4 DUP7 PUSH2 0x2752 JUMP JUMPDEST DUP1 PUSH20 0xFFFFFFFFFFFFFFFFFFFFFFFFFFFFFFFFFFFFFFFF AND PUSH4 0x6A627842 DUP7 PUSH1 0x40 MLOAD DUP3 PUSH4 0xFFFFFFFF AND PUSH1 0xE0 SHL DUP2 MSTORE PUSH1 0x4 ADD PUSH2 0x1F2F SWAP2 SWAP1 PUSH2 0x3699 JUMP JUMPDEST PUSH1 0x20 PUSH1 0x40 MLOAD DUP1 DUP4 SUB DUP2 PUSH1 0x0 DUP8 DUP1 EXTCODESIZE ISZERO DUP1 ISZERO PUSH2 0x1F49 JUMPI PUSH1 0x0 DUP1 REVERT JUMPDEST POP GAS CALL ISZERO DUP1 ISZERO PUSH2 0x1F5D JUMPI RETURNDATASIZE PUSH1 0x0 DUP1 RETURNDATACOPY RETURNDATASIZE PUSH1 0x0 REVERT JUMPDEST POP POP POP POP PUSH1 0x40 MLOAD RETURNDATASIZE PUSH1 0x1F NOT PUSH1 0x1F DUP3 ADD AND DUP3 ADD DUP1 PUSH1 0x40 MSTORE POP DUP2 ADD SWAP1 PUSH2 0x1F81 SWAP2 SWAP1 PUSH2 0x3AE6 JUMP JUMPDEST SWAP2 POP POP SWAP8 POP SWAP8 POP SWAP8 SWAP5 POP POP POP POP POP JUMP JUMPDEST PUSH1 0x60 PUSH2 0x1FBE PUSH32 0x0 DUP5 DUP5 PUSH2 0x25C7 JUMP JUMPDEST SWAP1 POP SWAP3 SWAP2 POP POP JUMP JUMPDEST PUSH1 0x0 DUP1 DUP5 GT PUSH2 0x200A JUMPI PUSH1 0x40 MLOAD PUSH32 0x8C379A000000000000000000000000000000000000000000000000000000000 DUP2 MSTORE PUSH1 0x4 ADD PUSH2 0x2001 SWAP1 PUSH2 0x3D20 JUMP JUMPDEST PUSH1 0x40 MLOAD DUP1 SWAP2 SUB SWAP1 REVERT JUMPDEST PUSH1 0x0 DUP4 GT DUP1 ISZERO PUSH2 0x201A JUMPI POP PUSH1 0x0 DUP3 GT JUMPDEST PUSH2 0x2059 JUMPI PUSH1 0x40 MLOAD PUSH32 0x8C379A000000000000000000000000000000000000000000000000000000000 DUP2 MSTORE PUSH1 0x4 ADD PUSH2 0x2050 SWAP1 PUSH2 0x3DB2 JUMP JUMPDEST PUSH1 0x40 MLOAD DUP1 SWAP2 SUB SWAP1 REVERT JUMPDEST PUSH1 0x0 PUSH2 0x3E5 DUP6 PUSH2 0x2069 SWAP2 SWAP1 PUSH2 0x3DD2 JUMP JUMPDEST SWAP1 POP PUSH1 0x0 DUP4 DUP3 PUSH2 0x2079 SWAP2 SWAP1 PUSH2 0x3DD2 JUMP JUMPDEST SWAP1 POP PUSH1 0x0 DUP3 PUSH2 0x3E8 DUP8 PUSH2 0x208C SWAP2 SWAP1 PUSH2 0x3DD2 JUMP JUMPDEST PUSH2 0x2096 SWAP2 SWAP1 PUSH2 0x3E2C JUMP JUMPDEST SWAP1 POP DUP1 DUP3 PUSH2 0x20A4 SWAP2 SWAP1 PUSH2 0x3EB1 JUMP JUMPDEST SWAP4 POP POP POP POP SWAP4 SWAP3 POP POP POP JUMP JUMPDEST PUSH1 0x60 PUSH1 0x2 DUP3 MLOAD LT ISZERO PUSH2 0x20F7 JUMPI PUSH1 0x40 MLOAD PUSH32 0x8C379A000000000000000000000000000000000000000000000000000000000 DUP2 MSTORE PUSH1 0x4 ADD PUSH2 0x20EE SWAP1 PUSH2 0x3F2E JUMP JUMPDEST PUSH1 0x40 MLOAD DUP1 SWAP2 SUB SWAP1 REVERT JUMPDEST DUP2 MLOAD PUSH8 0xFFFFFFFFFFFFFFFF DUP2 GT ISZERO PUSH2 0x2112 JUMPI PUSH2 0x2111 PUSH2 0x338D JUMP JUMPDEST JUMPDEST PUSH1 0x40 MLOAD SWAP1 DUP1 DUP3 MSTORE DUP1 PUSH1 0x20 MUL PUSH1 0x20 ADD DUP3 ADD PUSH1 0x40 MSTORE DUP1 ISZERO PUSH2 0x2140 JUMPI DUP2 PUSH1 0x20 ADD PUSH1 0x20 DUP3 MUL DUP1 CALLDATASIZE DUP4 CALLDATACOPY DUP1 DUP3 ADD SWAP2 POP POP SWAP1 POP JUMPDEST POP SWAP1 POP DUP3 DUP2 PUSH1 0x1 DUP4 MLOAD PUSH2 0x2153 SWAP2 SWAP1 PUSH2 0x3A0B JUMP JUMPDEST DUP2 MLOAD DUP2 LT PUSH2 0x2164 JUMPI PUSH2 0x2163 PUSH2 0x37E3 JUMP JUMPDEST JUMPDEST PUSH1 0x20 MUL PUSH1 0x20 ADD ADD DUP2 DUP2 MSTORE POP POP PUSH1 0x0 PUSH1 0x1 DUP4 MLOAD PUSH2 0x2180 SWAP2 SWAP1 PUSH2 0x3A0B JUMP JUMPDEST SWAP1 POP JUMPDEST PUSH1 0x0 DUP2 GT ISZERO PUSH2 0x2243 JUMPI PUSH1 0x0 DUP1 PUSH2 0x21DA DUP8 DUP7 PUSH1 0x1 DUP7 PUSH2 0x21A1 SWAP2 SWAP1 PUSH2 0x3A0B JUMP JUMPDEST DUP2 MLOAD DUP2 LT PUSH2 0x21B2 JUMPI PUSH2 0x21B1 PUSH2 0x37E3 JUMP JUMPDEST JUMPDEST PUSH1 0x20 MUL PUSH1 0x20 ADD ADD MLOAD DUP8 DUP7 DUP2 MLOAD DUP2 LT PUSH2 0x21CD JUMPI PUSH2 0x21CC PUSH2 0x37E3 JUMP JUMPDEST JUMPDEST PUSH1 0x20 MUL PUSH1 0x20 ADD ADD MLOAD PUSH2 0x2F5F JUMP JUMPDEST SWAP2 POP SWAP2 POP PUSH2 0x2203 DUP5 DUP5 DUP2 MLOAD DUP2 LT PUSH2 0x21F4 JUMPI PUSH2 0x21F3 PUSH2 0x37E3 JUMP JUMPDEST JUMPDEST PUSH1 0x20 MUL PUSH1 0x20 ADD ADD MLOAD DUP4 DUP4 PUSH2 0x2C8E JUMP JUMPDEST DUP5 PUSH1 0x1 DUP6 PUSH2 0x2211 SWAP2 SWAP1 PUSH2 0x3A0B JUMP JUMPDEST DUP2 MLOAD DUP2 LT PUSH2 0x2222 JUMPI PUSH2 0x2221 PUSH2 0x37E3 JUMP JUMPDEST JUMPDEST PUSH1 0x20 MUL PUSH1 0x20 ADD ADD DUP2 DUP2 MSTORE POP POP POP POP DUP1 DUP1 PUSH2 0x223B SWAP1 PUSH2 0x3F4E JUMP JUMPDEST SWAP2 POP POP PUSH2 0x2183 JUMP JUMPDEST POP SWAP4 SWAP3 POP POP POP JUMP JUMPDEST PUSH1 0x0 DUP1 PUSH1 0x0 PUSH2 0x225A DUP6 DUP6 PUSH2 0x2E31 JUMP JUMPDEST SWAP2 POP SWAP2 POP DUP6 DUP3 DUP3 PUSH1 0x40 MLOAD PUSH1 0x20 ADD PUSH2 0x2272 SWAP3 SWAP2 SWAP1 PUSH2 0x3FC0 JUMP JUMPDEST PUSH1 0x40 MLOAD PUSH1 0x20 DUP2 DUP4 SUB SUB DUP2 MSTORE SWAP1 PUSH1 0x40 MSTORE DUP1 MLOAD SWAP1 PUSH1 0x20 ADD KECCAK256 PUSH1 0x40 MLOAD PUSH1 0x20 ADD PUSH2 0x2299 SWAP3 SWAP2 SWAP1 PUSH2 0x40BA JUMP JUMPDEST PUSH1 0x40 MLOAD PUSH1 0x20 DUP2 DUP4 SUB SUB DUP2 MSTORE SWAP1 PUSH1 0x40 MSTORE DUP1 MLOAD SWAP1 PUSH1 0x20 ADD KECCAK256 PUSH1 0x0 SHR SWAP3 POP POP POP SWAP4 SWAP3 POP POP POP JUMP JUMPDEST PUSH1 0x0 JUMPDEST PUSH1 0x1 DUP4 MLOAD PUSH2 0x22CE SWAP2 SWAP1 PUSH2 0x3A0B JUMP JUMPDEST DUP2 LT ISZERO PUSH2 0x24C1 JUMPI PUSH1 0x0 DUP1 DUP5 DUP4 DUP2 MLOAD DUP2 LT PUSH2 0x22EB JUMPI PUSH2 0x22EA PUSH2 0x37E3 JUMP JUMPDEST JUMPDEST PUSH1 0x20 MUL PUSH1 0x20 ADD ADD MLOAD DUP6 PUSH1 0x1 DUP6 PUSH2 0x2301 SWAP2 SWAP1 PUSH2 0x3E2C JUMP JUMPDEST DUP2 MLOAD DUP2 LT PUSH2 0x2312 JUMPI PUSH2 0x2311 PUSH2 0x37E3 JUMP JUMPDEST JUMPDEST PUSH1 0x20 MUL PUSH1 0x20 ADD ADD MLOAD SWAP2 POP SWAP2 POP PUSH1 0x0 PUSH2 0x232A DUP4 DUP4 PUSH2 0x2E31 JUMP JUMPDEST POP SWAP1 POP PUSH1 0x0 DUP8 PUSH1 0x1 DUP7 PUSH2 0x233D SWAP2 SWAP1 PUSH2 0x3E2C JUMP JUMPDEST DUP2 MLOAD DUP2 LT PUSH2 0x234E JUMPI PUSH2 0x234D PUSH2 0x37E3 JUMP JUMPDEST JUMPDEST PUSH1 0x20 MUL PUSH1 0x20 ADD ADD MLOAD SWAP1 POP PUSH1 0x0 DUP1 DUP4 PUSH20 0xFFFFFFFFFFFFFFFFFFFFFFFFFFFFFFFFFFFFFFFF AND DUP7 PUSH20 0xFFFFFFFFFFFFFFFFFFFFFFFFFFFFFFFFFFFFFFFF AND EQ PUSH2 0x2396 JUMPI DUP3 PUSH1 0x0 PUSH2 0x239A JUMP JUMPDEST PUSH1 0x0 DUP4 JUMPDEST SWAP2 POP SWAP2 POP PUSH1 0x0 PUSH1 0x2 DUP11 MLOAD PUSH2 0x23AE SWAP2 SWAP1 PUSH2 0x3A0B JUMP JUMPDEST DUP9 LT PUSH2 0x23BA JUMPI DUP9 PUSH2 0x240C JUMP JUMPDEST PUSH2 0x240B PUSH32 0x0 DUP8 DUP13 PUSH1 0x2 DUP13 PUSH2 0x23ED SWAP2 SWAP1 PUSH2 0x3E2C JUMP JUMPDEST DUP2 MLOAD DUP2 LT PUSH2 0x23FE JUMPI PUSH2 0x23FD PUSH2 0x37E3 JUMP JUMPDEST JUMPDEST PUSH1 0x20 MUL PUSH1 0x20 ADD ADD MLOAD PUSH2 0x224B JUMP JUMPDEST JUMPDEST SWAP1 POP PUSH2 0x2439 PUSH32 0x0 DUP9 DUP9 PUSH2 0x224B JUMP JUMPDEST PUSH20 0xFFFFFFFFFFFFFFFFFFFFFFFFFFFFFFFFFFFFFFFF AND PUSH4 0x6D9A640A DUP5 DUP5 DUP5 PUSH1 0x40 MLOAD DUP5 PUSH4 0xFFFFFFFF AND PUSH1 0xE0 SHL DUP2 MSTORE PUSH1 0x4 ADD PUSH2 0x2475 SWAP4 SWAP3 SWAP2 SWAP1 PUSH2 0x40FC JUMP JUMPDEST PUSH1 0x0 PUSH1 0x40 MLOAD DUP1 DUP4 SUB DUP2 PUSH1 0x0 DUP8 DUP1 EXTCODESIZE ISZERO DUP1 ISZERO PUSH2 0x248F JUMPI PUSH1 0x0 DUP1 REVERT JUMPDEST POP GAS CALL ISZERO DUP1 ISZERO PUSH2 0x24A3 JUMPI RETURNDATASIZE PUSH1 0x0 DUP1 RETURNDATACOPY RETURNDATASIZE PUSH1 0x0 REVERT JUMPDEST POP POP POP POP POP POP POP POP POP POP POP DUP1 DUP1 PUSH2 0x24B9 SWAP1 PUSH2 0x4133 JUMP JUMPDEST SWAP2 POP POP PUSH2 0x22C0 JUMP JUMPDEST POP POP POP POP JUMP JUMPDEST PUSH1 0x0 DUP3 PUSH20 0xFFFFFFFFFFFFFFFFFFFFFFFFFFFFFFFFFFFFFFFF AND DUP3 PUSH1 0x0 PUSH8 0xFFFFFFFFFFFFFFFF DUP2 GT ISZERO PUSH2 0x24FC JUMPI PUSH2 0x24FB PUSH2 0x338D JUMP JUMPDEST JUMPDEST PUSH1 0x40 MLOAD SWAP1 DUP1 DUP3 MSTORE DUP1 PUSH1 0x1F ADD PUSH1 0x1F NOT AND PUSH1 0x20 ADD DUP3 ADD PUSH1 0x40 MSTORE DUP1 ISZERO PUSH2 0x252E JUMPI DUP2 PUSH1 0x20 ADD PUSH1 0x1 DUP3 MUL DUP1 CALLDATASIZE DUP4 CALLDATACOPY DUP1 DUP3 ADD SWAP2 POP POP SWAP1 POP JUMPDEST POP PUSH1 0x40 MLOAD PUSH2 0x253C SWAP2 SWAP1 PUSH2 0x41F6 JUMP JUMPDEST PUSH1 0x0 PUSH1 0x40 MLOAD DUP1 DUP4 SUB DUP2 DUP6 DUP8 GAS CALL SWAP3 POP POP POP RETURNDATASIZE DUP1 PUSH1 0x0 DUP2 EQ PUSH2 0x2579 JUMPI PUSH1 0x40 MLOAD SWAP2 POP PUSH1 0x1F NOT PUSH1 0x3F RETURNDATASIZE ADD AND DUP3 ADD PUSH1 0x40 MSTORE RETURNDATASIZE DUP3 MSTORE RETURNDATASIZE PUSH1 0x0 PUSH1 0x20 DUP5 ADD RETURNDATACOPY PUSH2 0x257E JUMP JUMPDEST PUSH1 0x60 SWAP2 POP JUMPDEST POP POP SWAP1 POP DUP1 PUSH2 0x25C2 JUMPI PUSH1 0x40 MLOAD PUSH32 0x8C379A000000000000000000000000000000000000000000000000000000000 DUP2 MSTORE PUSH1 0x4 ADD PUSH2 0x25B9 SWAP1 PUSH2 0x427F JUMP JUMPDEST PUSH1 0x40 MLOAD DUP1 SWAP2 SUB SWAP1 REVERT JUMPDEST POP POP POP JUMP JUMPDEST PUSH1 0x60 PUSH1 0x2 DUP3 MLOAD LT ISZERO PUSH2 0x260E JUMPI PUSH1 0x40 MLOAD PUSH32 0x8C379A000000000000000000000000000000000000000000000000000000000 DUP2 MSTORE PUSH1 0x4 ADD PUSH2 0x2605 SWAP1 PUSH2 0x3F2E JUMP JUMPDEST PUSH1 0x40 MLOAD DUP1 SWAP2 SUB SWAP1 REVERT JUMPDEST DUP2 MLOAD PUSH8 0xFFFFFFFFFFFFFFFF DUP2 GT ISZERO PUSH2 0x2629 JUMPI PUSH2 0x2628 PUSH2 0x338D JUMP JUMPDEST JUMPDEST PUSH1 0x40 MLOAD SWAP1 DUP1 DUP3 MSTORE DUP1 PUSH1 0x20 MUL PUSH1 0x20 ADD DUP3 ADD PUSH1 0x40 MSTORE DUP1 ISZERO PUSH2 0x2657 JUMPI DUP2 PUSH1 0x20 ADD PUSH1 0x20 DUP3 MUL DUP1 CALLDATASIZE DUP4 CALLDATACOPY DUP1 DUP3 ADD SWAP2 POP POP SWAP1 POP JUMPDEST POP SWAP1 POP DUP3 DUP2 PUSH1 0x0 DUP2 MLOAD DUP2 LT PUSH2 0x266F JUMPI PUSH2 0x266E PUSH2 0x37E3 JUMP JUMPDEST JUMPDEST PUSH1 0x20 MUL PUSH1 0x20 ADD ADD DUP2 DUP2 MSTORE POP POP PUSH1 0x0 JUMPDEST PUSH1 0x1 DUP4 MLOAD PUSH2 0x268C SWAP2 SWAP1 PUSH2 0x3A0B JUMP JUMPDEST DUP2 LT ISZERO PUSH2 0x274A JUMPI PUSH1 0x0 DUP1 PUSH2 0x26E1 DUP8 DUP7 DUP6 DUP2 MLOAD DUP2 LT PUSH2 0x26AD JUMPI PUSH2 0x26AC PUSH2 0x37E3 JUMP JUMPDEST JUMPDEST PUSH1 0x20 MUL PUSH1 0x20 ADD ADD MLOAD DUP8 PUSH1 0x1 DUP8 PUSH2 0x26C3 SWAP2 SWAP1 PUSH2 0x3E2C JUMP JUMPDEST DUP2 MLOAD DUP2 LT PUSH2 0x26D4 JUMPI PUSH2 0x26D3 PUSH2 0x37E3 JUMP JUMPDEST JUMPDEST PUSH1 0x20 MUL PUSH1 0x20 ADD ADD MLOAD PUSH2 0x2F5F JUMP JUMPDEST SWAP2 POP SWAP2 POP PUSH2 0x270A DUP5 DUP5 DUP2 MLOAD DUP2 LT PUSH2 0x26FB JUMPI PUSH2 0x26FA PUSH2 0x37E3 JUMP JUMPDEST JUMPDEST PUSH1 0x20 MUL PUSH1 0x20 ADD ADD MLOAD DUP4 DUP4 PUSH2 0x1FC6 JUMP JUMPDEST DUP5 PUSH1 0x1 DUP6 PUSH2 0x2718 SWAP2 SWAP1 PUSH2 0x3E2C JUMP JUMPDEST DUP2 MLOAD DUP2 LT PUSH2 0x2729 JUMPI PUSH2 0x2728 PUSH2 0x37E3 JUMP JUMPDEST JUMPDEST PUSH1 0x20 MUL PUSH1 0x20 ADD ADD DUP2 DUP2 MSTORE POP POP POP POP DUP1 DUP1 PUSH2 0x2742 SWAP1 PUSH2 0x4133 JUMP JUMPDEST SWAP2 POP POP PUSH2 0x267E JUMP JUMPDEST POP SWAP4 SWAP3 POP POP POP JUMP JUMPDEST PUSH1 0x0 DUP1 DUP6 PUSH20 0xFFFFFFFFFFFFFFFFFFFFFFFFFFFFFFFFFFFFFFFF AND PUSH4 0x23B872DD DUP7 DUP7 DUP7 PUSH1 0x40 MLOAD PUSH1 0x24 ADD PUSH2 0x2786 SWAP4 SWAP3 SWAP2 SWAP1 PUSH2 0x3B13 JUMP JUMPDEST PUSH1 0x40 MLOAD PUSH1 0x20 DUP2 DUP4 SUB SUB DUP2 MSTORE SWAP1 PUSH1 0x40 MSTORE SWAP1 PUSH1 0xE0 SHL PUSH1 0x20 DUP3 ADD DUP1 MLOAD PUSH28 0xFFFFFFFFFFFFFFFFFFFFFFFFFFFFFFFFFFFFFFFFFFFFFFFFFFFFFFFF DUP4 DUP2 DUP4 AND OR DUP4 MSTORE POP POP POP POP PUSH1 0x40 MLOAD PUSH2 0x27D4 SWAP2 SWAP1 PUSH2 0x41F6 JUMP JUMPDEST PUSH1 0x0 PUSH1 0x40 MLOAD DUP1 DUP4 SUB DUP2 PUSH1 0x0 DUP7 GAS CALL SWAP2 POP POP RETURNDATASIZE DUP1 PUSH1 0x0 DUP2 EQ PUSH2 0x2811 JUMPI PUSH1 0x40 MLOAD SWAP2 POP PUSH1 0x1F NOT PUSH1 0x3F RETURNDATASIZE ADD AND DUP3 ADD PUSH1 0x40 MSTORE RETURNDATASIZE DUP3 MSTORE RETURNDATASIZE PUSH1 0x0 PUSH1 0x20 DUP5 ADD RETURNDATACOPY PUSH2 0x2816 JUMP JUMPDEST PUSH1 0x60 SWAP2 POP JUMPDEST POP SWAP2 POP SWAP2 POP DUP2 DUP1 ISZERO PUSH2 0x2844 JUMPI POP PUSH1 0x0 DUP2 MLOAD EQ DUP1 PUSH2 0x2843 JUMPI POP DUP1 DUP1 PUSH1 0x20 ADD SWAP1 MLOAD DUP2 ADD SWAP1 PUSH2 0x2842 SWAP2 SWAP1 PUSH2 0x39AF JUMP JUMPDEST JUMPDEST JUMPDEST PUSH2 0x2883 JUMPI PUSH1 0x40 MLOAD PUSH32 0x8C379A000000000000000000000000000000000000000000000000000000000 DUP2 MSTORE PUSH1 0x4 ADD PUSH2 0x287A SWAP1 PUSH2 0x4311 JUMP JUMPDEST PUSH1 0x40 MLOAD DUP1 SWAP2 SUB SWAP1 REVERT JUMPDEST POP POP POP POP POP POP JUMP JUMPDEST PUSH1 0x0 DUP1 DUP5 PUSH20 0xFFFFFFFFFFFFFFFFFFFFFFFFFFFFFFFFFFFFFFFF AND PUSH4 0xA9059CBB DUP6 DUP6 PUSH1 0x40 MLOAD PUSH1 0x24 ADD PUSH2 0x28BD SWAP3 SWAP2 SWAP1 PUSH2 0x394E JUMP JUMPDEST PUSH1 0x40 MLOAD PUSH1 0x20 DUP2 DUP4 SUB SUB DUP2 MSTORE SWAP1 PUSH1 0x40 MSTORE SWAP1 PUSH1 0xE0 SHL PUSH1 0x20 DUP3 ADD DUP1 MLOAD PUSH28 0xFFFFFFFFFFFFFFFFFFFFFFFFFFFFFFFFFFFFFFFFFFFFFFFFFFFFFFFF DUP4 DUP2 DUP4 AND OR DUP4 MSTORE POP POP POP POP PUSH1 0x40 MLOAD PUSH2 0x290B SWAP2 SWAP1 PUSH2 0x41F6 JUMP JUMPDEST PUSH1 0x0 PUSH1 0x40 MLOAD DUP1 DUP4 SUB DUP2 PUSH1 0x0 DUP7 GAS CALL SWAP2 POP POP RETURNDATASIZE DUP1 PUSH1 0x0 DUP2 EQ PUSH2 0x2948 JUMPI PUSH1 0x40 MLOAD SWAP2 POP PUSH1 0x1F NOT PUSH1 0x3F RETURNDATASIZE ADD AND DUP3 ADD PUSH1 0x40 MSTORE RETURNDATASIZE DUP3 MSTORE RETURNDATASIZE PUSH1 0x0 PUSH1 0x20 DUP5 ADD RETURNDATACOPY PUSH2 0x294D JUMP JUMPDEST PUSH1 0x60 SWAP2 POP JUMPDEST POP SWAP2 POP SWAP2 POP DUP2 DUP1 ISZERO PUSH2 0x297B JUMPI POP PUSH1 0x0 DUP2 MLOAD EQ DUP1 PUSH2 0x297A JUMPI POP DUP1 DUP1 PUSH1 0x20 ADD SWAP1 MLOAD DUP2 ADD SWAP1 PUSH2 0x2979 SWAP2 SWAP1 PUSH2 0x39AF JUMP JUMPDEST JUMPDEST JUMPDEST PUSH2 0x29BA JUMPI PUSH1 0x40 MLOAD PUSH32 0x8C379A000000000000000000000000000000000000000000000000000000000 DUP2 MSTORE PUSH1 0x4 ADD PUSH2 0x29B1 SWAP1 PUSH2 0x43A3 JUMP JUMPDEST PUSH1 0x40 MLOAD DUP1 SWAP2 SUB SWAP1 REVERT JUMPDEST POP POP POP POP POP JUMP JUMPDEST PUSH1 0x0 DUP1 PUSH1 0x0 PUSH20 0xFFFFFFFFFFFFFFFFFFFFFFFFFFFFFFFFFFFFFFFF AND PUSH32 0x0 PUSH20 0xFFFFFFFFFFFFFFFFFFFFFFFFFFFFFFFFFFFFFFFF AND PUSH4 0xE6A43905 DUP11 DUP11 PUSH1 0x40 MLOAD DUP4 PUSH4 0xFFFFFFFF AND PUSH1 0xE0 SHL DUP2 MSTORE PUSH1 0x4 ADD PUSH2 0x2A37 SWAP3 SWAP2 SWAP1 PUSH2 0x43C3 JUMP JUMPDEST PUSH1 0x20 PUSH1 0x40 MLOAD DUP1 DUP4 SUB DUP2 DUP7 DUP1 EXTCODESIZE ISZERO DUP1 ISZERO PUSH2 0x2A4F JUMPI PUSH1 0x0 DUP1 REVERT JUMPDEST POP GAS STATICCALL ISZERO DUP1 ISZERO PUSH2 0x2A63 JUMPI RETURNDATASIZE PUSH1 0x0 DUP1 RETURNDATACOPY RETURNDATASIZE PUSH1 0x0 REVERT JUMPDEST POP POP POP POP PUSH1 0x40 MLOAD RETURNDATASIZE PUSH1 0x1F NOT PUSH1 0x1F DUP3 ADD AND DUP3 ADD DUP1 PUSH1 0x40 MSTORE POP DUP2 ADD SWAP1 PUSH2 0x2A87 SWAP2 SWAP1 PUSH2 0x4401 JUMP JUMPDEST PUSH20 0xFFFFFFFFFFFFFFFFFFFFFFFFFFFFFFFFFFFFFFFF AND EQ ISZERO PUSH2 0x2B52 JUMPI PUSH32 0x0 PUSH20 0xFFFFFFFFFFFFFFFFFFFFFFFFFFFFFFFFFFFFFFFF AND PUSH4 0xC9C65396 DUP10 DUP10 PUSH1 0x40 MLOAD DUP4 PUSH4 0xFFFFFFFF AND PUSH1 0xE0 SHL DUP2 MSTORE PUSH1 0x4 ADD PUSH2 0x2AFE SWAP3 SWAP2 SWAP1 PUSH2 0x43C3 JUMP JUMPDEST PUSH1 0x20 PUSH1 0x40 MLOAD DUP1 DUP4 SUB DUP2 PUSH1 0x0 DUP8 DUP1 EXTCODESIZE ISZERO DUP1 ISZERO PUSH2 0x2B18 JUMPI PUSH1 0x0 DUP1 REVERT JUMPDEST POP GAS CALL ISZERO DUP1 ISZERO PUSH2 0x2B2C JUMPI RETURNDATASIZE PUSH1 0x0 DUP1 RETURNDATACOPY RETURNDATASIZE PUSH1 0x0 REVERT JUMPDEST POP POP POP POP PUSH1 0x40 MLOAD RETURNDATASIZE PUSH1 0x1F NOT PUSH1 0x1F DUP3 ADD AND DUP3 ADD DUP1 PUSH1 0x40 MSTORE POP DUP2 ADD SWAP1 PUSH2 0x2B50 SWAP2 SWAP1 PUSH2 0x4401 JUMP JUMPDEST POP JUMPDEST PUSH1 0x0 DUP1 PUSH2 0x2B80 PUSH32 0x0 DUP12 DUP12 PUSH2 0x2F5F JUMP JUMPDEST SWAP2 POP SWAP2 POP PUSH1 0x0 DUP3 EQ DUP1 ISZERO PUSH2 0x2B94 JUMPI POP PUSH1 0x0 DUP2 EQ JUMPDEST ISZERO PUSH2 0x2BA8 JUMPI DUP8 DUP8 DUP1 SWAP5 POP DUP2 SWAP6 POP POP POP PUSH2 0x2C81 JUMP JUMPDEST PUSH1 0x0 PUSH2 0x2BB5 DUP10 DUP5 DUP5 PUSH2 0x2D7E JUMP JUMPDEST SWAP1 POP DUP8 DUP2 GT PUSH2 0x2C10 JUMPI DUP6 DUP2 LT ISZERO PUSH2 0x2C01 JUMPI PUSH1 0x40 MLOAD PUSH32 0x8C379A000000000000000000000000000000000000000000000000000000000 DUP2 MSTORE PUSH1 0x4 ADD PUSH2 0x2BF8 SWAP1 PUSH2 0x3C8E JUMP JUMPDEST PUSH1 0x40 MLOAD DUP1 SWAP2 SUB SWAP1 REVERT JUMPDEST DUP9 DUP2 DUP1 SWAP6 POP DUP2 SWAP7 POP POP POP PUSH2 0x2C7F JUMP JUMPDEST PUSH1 0x0 PUSH2 0x2C1D DUP10 DUP5 DUP7 PUSH2 0x2D7E JUMP JUMPDEST SWAP1 POP DUP10 DUP2 GT ISZERO PUSH2 0x2C30 JUMPI PUSH2 0x2C2F PUSH2 0x306F JUMP JUMPDEST JUMPDEST DUP8 DUP2 LT ISZERO PUSH2 0x2C73 JUMPI PUSH1 0x40 MLOAD PUSH32 0x8C379A000000000000000000000000000000000000000000000000000000000 DUP2 MSTORE PUSH1 0x4 ADD PUSH2 0x2C6A SWAP1 PUSH2 0x3BFC JUMP JUMPDEST PUSH1 0x40 MLOAD DUP1 SWAP2 SUB SWAP1 REVERT JUMPDEST DUP1 DUP10 DUP1 SWAP7 POP DUP2 SWAP8 POP POP POP POP JUMPDEST POP JUMPDEST POP POP SWAP7 POP SWAP7 SWAP5 POP POP POP POP POP JUMP JUMPDEST PUSH1 0x0 DUP1 DUP5 GT PUSH2 0x2CD2 JUMPI PUSH1 0x40 MLOAD PUSH32 0x8C379A000000000000000000000000000000000000000000000000000000000 DUP2 MSTORE PUSH1 0x4 ADD PUSH2 0x2CC9 SWAP1 PUSH2 0x44A0 JUMP JUMPDEST PUSH1 0x40 MLOAD DUP1 SWAP2 SUB SWAP1 REVERT JUMPDEST PUSH1 0x0 DUP4 GT DUP1 ISZERO PUSH2 0x2CE2 JUMPI POP PUSH1 0x0 DUP3 GT JUMPDEST PUSH2 0x2D21 JUMPI PUSH1 0x40 MLOAD PUSH32 0x8C379A000000000000000000000000000000000000000000000000000000000 DUP2 MSTORE PUSH1 0x4 ADD PUSH2 0x2D18 SWAP1 PUSH2 0x3DB2 JUMP JUMPDEST PUSH1 0x40 MLOAD DUP1 SWAP2 SUB SWAP1 REVERT JUMPDEST PUSH1 0x0 PUSH2 0x3E8 DUP6 DUP6 PUSH2 0x2D32 SWAP2 SWAP1 PUSH2 0x3DD2 JUMP JUMPDEST PUSH2 0x2D3C SWAP2 SWAP1 PUSH2 0x3DD2 JUMP JUMPDEST SWAP1 POP PUSH1 0x0 PUSH2 0x3E5 DUP7 DUP6 PUSH2 0x2D4F SWAP2 SWAP1 PUSH2 0x3A0B JUMP JUMPDEST PUSH2 0x2D59 SWAP2 SWAP1 PUSH2 0x3DD2 JUMP JUMPDEST SWAP1 POP PUSH1 0x1 DUP2 DUP4 PUSH2 0x2D69 SWAP2 SWAP1 PUSH2 0x3EB1 JUMP JUMPDEST PUSH2 0x2D73 SWAP2 SWAP1 PUSH2 0x3E2C JUMP JUMPDEST SWAP3 POP POP POP SWAP4 SWAP3 POP POP POP JUMP JUMPDEST PUSH1 0x0 DUP1 DUP5 GT PUSH2 0x2DC2 JUMPI PUSH1 0x40 MLOAD PUSH32 0x8C379A000000000000000000000000000000000000000000000000000000000 DUP2 MSTORE PUSH1 0x4 ADD PUSH2 0x2DB9 SWAP1 PUSH2 0x4532 JUMP JUMPDEST PUSH1 0x40 MLOAD DUP1 SWAP2 SUB SWAP1 REVERT JUMPDEST PUSH1 0x0 DUP4 GT DUP1 ISZERO PUSH2 0x2DD2 JUMPI POP PUSH1 0x0 DUP3 GT JUMPDEST PUSH2 0x2E11 JUMPI PUSH1 0x40 MLOAD PUSH32 0x8C379A000000000000000000000000000000000000000000000000000000000 DUP2 MSTORE PUSH1 0x4 ADD PUSH2 0x2E08 SWAP1 PUSH2 0x3DB2 JUMP JUMPDEST PUSH1 0x40 MLOAD DUP1 SWAP2 SUB SWAP1 REVERT JUMPDEST DUP3 DUP3 DUP6 PUSH2 0x2E1E SWAP2 SWAP1 PUSH2 0x3DD2 JUMP JUMPDEST PUSH2 0x2E28 SWAP2 SWAP1 PUSH2 0x3EB1 JUMP JUMPDEST SWAP1 POP SWAP4 SWAP3 POP POP POP JUMP JUMPDEST PUSH1 0x0 DUP1 DUP3 PUSH20 0xFFFFFFFFFFFFFFFFFFFFFFFFFFFFFFFFFFFFFFFF AND DUP5 PUSH20 0xFFFFFFFFFFFFFFFFFFFFFFFFFFFFFFFFFFFFFFFF AND EQ ISZERO PUSH2 0x2EA3 JUMPI PUSH1 0x40 MLOAD PUSH32 0x8C379A000000000000000000000000000000000000000000000000000000000 DUP2 MSTORE PUSH1 0x4 ADD PUSH2 0x2E9A SWAP1 PUSH2 0x45C4 JUMP JUMPDEST PUSH1 0x40 MLOAD DUP1 SWAP2 SUB SWAP1 REVERT JUMPDEST DUP3 PUSH20 0xFFFFFFFFFFFFFFFFFFFFFFFFFFFFFFFFFFFFFFFF AND DUP5 PUSH20 0xFFFFFFFFFFFFFFFFFFFFFFFFFFFFFFFFFFFFFFFF AND LT PUSH2 0x2EDD JUMPI DUP3 DUP5 PUSH2 0x2EE0 JUMP JUMPDEST DUP4 DUP4 JUMPDEST DUP1 SWAP3 POP DUP2 SWAP4 POP POP POP PUSH1 0x0 PUSH20 0xFFFFFFFFFFFFFFFFFFFFFFFFFFFFFFFFFFFFFFFF AND DUP3 PUSH20 0xFFFFFFFFFFFFFFFFFFFFFFFFFFFFFFFFFFFFFFFF AND EQ ISZERO PUSH2 0x2F58 JUMPI PUSH1 0x40 MLOAD PUSH32 0x8C379A000000000000000000000000000000000000000000000000000000000 DUP2 MSTORE PUSH1 0x4 ADD PUSH2 0x2F4F SWAP1 PUSH2 0x4630 JUMP JUMPDEST PUSH1 0x40 MLOAD DUP1 SWAP2 SUB SWAP1 REVERT JUMPDEST SWAP3 POP SWAP3 SWAP1 POP JUMP JUMPDEST PUSH1 0x0 DUP1 PUSH1 0x0 PUSH2 0x2F6E DUP6 DUP6 PUSH2 0x2E31 JUMP JUMPDEST POP SWAP1 POP PUSH1 0x0 DUP1 PUSH2 0x2F7F DUP9 DUP9 DUP9 PUSH2 0x224B JUMP JUMPDEST PUSH20 0xFFFFFFFFFFFFFFFFFFFFFFFFFFFFFFFFFFFFFFFF AND PUSH4 0x902F1AC PUSH1 0x40 MLOAD DUP2 PUSH4 0xFFFFFFFF AND PUSH1 0xE0 SHL DUP2 MSTORE PUSH1 0x4 ADD PUSH1 0x40 DUP1 MLOAD DUP1 DUP4 SUB DUP2 DUP7 DUP1 EXTCODESIZE ISZERO DUP1 ISZERO PUSH2 0x2FC3 JUMPI PUSH1 0x0 DUP1 REVERT JUMPDEST POP GAS STATICCALL ISZERO DUP1 ISZERO PUSH2 0x2FD7 JUMPI RETURNDATASIZE PUSH1 0x0 DUP1 RETURNDATACOPY RETURNDATASIZE PUSH1 0x0 REVERT JUMPDEST POP POP POP POP PUSH1 0x40 MLOAD RETURNDATASIZE PUSH1 0x1F NOT PUSH1 0x1F DUP3 ADD AND DUP3 ADD DUP1 PUSH1 0x40 MSTORE POP DUP2 ADD SWAP1 PUSH2 0x2FFB SWAP2 SWAP1 PUSH2 0x4696 JUMP JUMPDEST PUSH14 0xFFFFFFFFFFFFFFFFFFFFFFFFFFFF AND SWAP2 POP PUSH14 0xFFFFFFFFFFFFFFFFFFFFFFFFFFFF AND SWAP2 POP DUP3 PUSH20 0xFFFFFFFFFFFFFFFFFFFFFFFFFFFFFFFFFFFFFFFF AND DUP8 PUSH20 0xFFFFFFFFFFFFFFFFFFFFFFFFFFFFFFFFFFFFFFFF AND EQ PUSH2 0x3059 JUMPI DUP1 DUP3 PUSH2 0x305C JUMP JUMPDEST DUP2 DUP2 JUMPDEST DUP1 SWAP6 POP DUP2 SWAP7 POP POP POP POP POP POP SWAP4 POP SWAP4 SWAP2 POP POP JUMP JUMPDEST PUSH32 0x4E487B7100000000000000000000000000000000000000000000000000000000 PUSH1 0x0 MSTORE PUSH1 0x1 PUSH1 0x4 MSTORE PUSH1 0x24 PUSH1 0x0 REVERT JUMPDEST PUSH1 0x0 PUSH1 0x40 MLOAD SWAP1 POP SWAP1 JUMP JUMPDEST PUSH1 0x0 DUP1 REVERT JUMPDEST PUSH1 0x0 DUP1 REVERT JUMPDEST PUSH1 0x0 DUP2 SWAP1 POP SWAP2 SWAP1 POP JUMP JUMPDEST PUSH2 0x30C5 DUP2 PUSH2 0x30B2 JUMP JUMPDEST DUP2 EQ PUSH2 0x30D0 JUMPI PUSH1 0x0 DUP1 REVERT JUMPDEST POP JUMP JUMPDEST PUSH1 0x0 DUP2 CALLDATALOAD SWAP1 POP PUSH2 0x30E2 DUP2 PUSH2 0x30BC JUMP JUMPDEST SWAP3 SWAP2 POP POP JUMP JUMPDEST PUSH1 0x0 DUP1 PUSH1 0x0 PUSH1 0x60 DUP5 DUP7 SUB SLT ISZERO PUSH2 0x3101 JUMPI PUSH2 0x3100 PUSH2 0x30A8 JUMP JUMPDEST JUMPDEST PUSH1 0x0 PUSH2 0x310F DUP7 DUP3 DUP8 ADD PUSH2 0x30D3 JUMP JUMPDEST SWAP4 POP POP PUSH1 0x20 PUSH2 0x3120 DUP7 DUP3 DUP8 ADD PUSH2 0x30D3 JUMP JUMPDEST SWAP3 POP POP PUSH1 0x40 PUSH2 0x3131 DUP7 DUP3 DUP8 ADD PUSH2 0x30D3 JUMP JUMPDEST SWAP2 POP POP SWAP3 POP SWAP3 POP SWAP3 JUMP JUMPDEST PUSH2 0x3144 DUP2 PUSH2 0x30B2 JUMP JUMPDEST DUP3 MSTORE POP POP JUMP JUMPDEST PUSH1 0x0 PUSH1 0x20 DUP3 ADD SWAP1 POP PUSH2 0x315F PUSH1 0x0 DUP4 ADD DUP5 PUSH2 0x313B JUMP JUMPDEST SWAP3 SWAP2 POP POP JUMP JUMPDEST PUSH1 0x0 DUP1 REVERT JUMPDEST PUSH1 0x0 DUP1 REVERT JUMPDEST PUSH1 0x0 DUP1 REVERT JUMPDEST PUSH1 0x0 DUP1 DUP4 PUSH1 0x1F DUP5 ADD SLT PUSH2 0x318A JUMPI PUSH2 0x3189 PUSH2 0x3165 JUMP JUMPDEST JUMPDEST DUP3 CALLDATALOAD SWAP1 POP PUSH8 0xFFFFFFFFFFFFFFFF DUP2 GT ISZERO PUSH2 0x31A7 JUMPI PUSH2 0x31A6 PUSH2 0x316A JUMP JUMPDEST JUMPDEST PUSH1 0x20 DUP4 ADD SWAP2 POP DUP4 PUSH1 0x20 DUP3 MUL DUP4 ADD GT ISZERO PUSH2 0x31C3 JUMPI PUSH2 0x31C2 PUSH2 0x316F JUMP JUMPDEST JUMPDEST SWAP3 POP SWAP3 SWAP1 POP JUMP JUMPDEST PUSH1 0x0 PUSH20 0xFFFFFFFFFFFFFFFFFFFFFFFFFFFFFFFFFFFFFFFF DUP3 AND SWAP1 POP SWAP2 SWAP1 POP JUMP JUMPDEST PUSH1 0x0 PUSH2 0x31F5 DUP3 PUSH2 0x31CA JUMP JUMPDEST SWAP1 POP SWAP2 SWAP1 POP JUMP JUMPDEST PUSH2 0x3205 DUP2 PUSH2 0x31EA JUMP JUMPDEST DUP2 EQ PUSH2 0x3210 JUMPI PUSH1 0x0 DUP1 REVERT JUMPDEST POP JUMP JUMPDEST PUSH1 0x0 DUP2 CALLDATALOAD SWAP1 POP PUSH2 0x3222 DUP2 PUSH2 0x31FC JUMP JUMPDEST SWAP3 SWAP2 POP POP JUMP JUMPDEST PUSH1 0x0 DUP1 PUSH1 0x0 DUP1 PUSH1 0x60 DUP6 DUP8 SUB SLT ISZERO PUSH2 0x3242 JUMPI PUSH2 0x3241 PUSH2 0x30A8 JUMP JUMPDEST JUMPDEST PUSH1 0x0 PUSH2 0x3250 DUP8 DUP3 DUP9 ADD PUSH2 0x30D3 JUMP JUMPDEST SWAP5 POP POP PUSH1 0x20 DUP6 ADD CALLDATALOAD PUSH8 0xFFFFFFFFFFFFFFFF DUP2 GT ISZERO PUSH2 0x3271 JUMPI PUSH2 0x3270 PUSH2 0x30AD JUMP JUMPDEST JUMPDEST PUSH2 0x327D DUP8 DUP3 DUP9 ADD PUSH2 0x3174 JUMP JUMPDEST SWAP4 POP SWAP4 POP POP PUSH1 0x40 PUSH2 0x3290 DUP8 DUP3 DUP9 ADD PUSH2 0x3213 JUMP JUMPDEST SWAP2 POP POP SWAP3 SWAP6 SWAP2 SWAP5 POP SWAP3 POP JUMP JUMPDEST PUSH1 0x0 DUP2 MLOAD SWAP1 POP SWAP2 SWAP1 POP JUMP JUMPDEST PUSH1 0x0 DUP3 DUP3 MSTORE PUSH1 0x20 DUP3 ADD SWAP1 POP SWAP3 SWAP2 POP POP JUMP JUMPDEST PUSH1 0x0 DUP2 SWAP1 POP PUSH1 0x20 DUP3 ADD SWAP1 POP SWAP2 SWAP1 POP JUMP JUMPDEST PUSH2 0x32D1 DUP2 PUSH2 0x30B2 JUMP JUMPDEST DUP3 MSTORE POP POP JUMP JUMPDEST PUSH1 0x0 PUSH2 0x32E3 DUP4 DUP4 PUSH2 0x32C8 JUMP JUMPDEST PUSH1 0x20 DUP4 ADD SWAP1 POP SWAP3 SWAP2 POP POP JUMP JUMPDEST PUSH1 0x0 PUSH1 0x20 DUP3 ADD SWAP1 POP SWAP2 SWAP1 POP JUMP JUMPDEST PUSH1 0x0 PUSH2 0x3307 DUP3 PUSH2 0x329C JUMP JUMPDEST PUSH2 0x3311 DUP2 DUP6 PUSH2 0x32A7 JUMP JUMPDEST SWAP4 POP PUSH2 0x331C DUP4 PUSH2 0x32B8 JUMP JUMPDEST DUP1 PUSH1 0x0 JUMPDEST DUP4 DUP2 LT ISZERO PUSH2 0x334D JUMPI DUP2 MLOAD PUSH2 0x3334 DUP9 DUP3 PUSH2 0x32D7 JUMP JUMPDEST SWAP8 POP PUSH2 0x333F DUP4 PUSH2 0x32EF JUMP JUMPDEST SWAP3 POP POP PUSH1 0x1 DUP2 ADD SWAP1 POP PUSH2 0x3320 JUMP JUMPDEST POP DUP6 SWAP4 POP POP POP POP SWAP3 SWAP2 POP POP JUMP JUMPDEST PUSH1 0x0 PUSH1 0x20 DUP3 ADD SWAP1 POP DUP2 DUP2 SUB PUSH1 0x0 DUP4 ADD MSTORE PUSH2 0x3374 DUP2 DUP5 PUSH2 0x32FC JUMP JUMPDEST SWAP1 POP SWAP3 SWAP2 POP POP JUMP JUMPDEST PUSH1 0x0 PUSH1 0x1F NOT PUSH1 0x1F DUP4 ADD AND SWAP1 POP SWAP2 SWAP1 POP JUMP JUMPDEST PUSH32 0x4E487B7100000000000000000000000000000000000000000000000000000000 PUSH1 0x0 MSTORE PUSH1 0x41 PUSH1 0x4 MSTORE PUSH1 0x24 PUSH1 0x0 REVERT JUMPDEST PUSH2 0x33C5 DUP3 PUSH2 0x337C JUMP JUMPDEST DUP2 ADD DUP2 DUP2 LT PUSH8 0xFFFFFFFFFFFFFFFF DUP3 GT OR ISZERO PUSH2 0x33E4 JUMPI PUSH2 0x33E3 PUSH2 0x338D JUMP JUMPDEST JUMPDEST DUP1 PUSH1 0x40 MSTORE POP POP POP JUMP JUMPDEST PUSH1 0x0 PUSH2 0x33F7 PUSH2 0x309E JUMP JUMPDEST SWAP1 POP PUSH2 0x3403 DUP3 DUP3 PUSH2 0x33BC JUMP JUMPDEST SWAP2 SWAP1 POP JUMP JUMPDEST PUSH1 0x0 PUSH8 0xFFFFFFFFFFFFFFFF DUP3 GT ISZERO PUSH2 0x3423 JUMPI PUSH2 0x3422 PUSH2 0x338D JUMP JUMPDEST JUMPDEST PUSH1 0x20 DUP3 MUL SWAP1 POP PUSH1 0x20 DUP2 ADD SWAP1 POP SWAP2 SWAP1 POP JUMP JUMPDEST PUSH1 0x0 PUSH2 0x3447 PUSH2 0x3442 DUP5 PUSH2 0x3408 JUMP JUMPDEST PUSH2 0x33ED JUMP JUMPDEST SWAP1 POP DUP1 DUP4 DUP3 MSTORE PUSH1 0x20 DUP3 ADD SWAP1 POP PUSH1 0x20 DUP5 MUL DUP4 ADD DUP6 DUP2 GT ISZERO PUSH2 0x346A JUMPI PUSH2 0x3469 PUSH2 0x316F JUMP JUMPDEST JUMPDEST DUP4 JUMPDEST DUP2 DUP2 LT ISZERO PUSH2 0x3493 JUMPI DUP1 PUSH2 0x347F DUP9 DUP3 PUSH2 0x3213 JUMP JUMPDEST DUP5 MSTORE PUSH1 0x20 DUP5 ADD SWAP4 POP POP PUSH1 0x20 DUP2 ADD SWAP1 POP PUSH2 0x346C JUMP JUMPDEST POP POP POP SWAP4 SWAP3 POP POP POP JUMP JUMPDEST PUSH1 0x0 DUP3 PUSH1 0x1F DUP4 ADD SLT PUSH2 0x34B2 JUMPI PUSH2 0x34B1 PUSH2 0x3165 JUMP JUMPDEST JUMPDEST DUP2 CALLDATALOAD PUSH2 0x34C2 DUP5 DUP3 PUSH1 0x20 DUP7 ADD PUSH2 0x3434 JUMP JUMPDEST SWAP2 POP POP SWAP3 SWAP2 POP POP JUMP JUMPDEST PUSH1 0x0 DUP1 PUSH1 0x40 DUP4 DUP6 SUB SLT ISZERO PUSH2 0x34E2 JUMPI PUSH2 0x34E1 PUSH2 0x30A8 JUMP JUMPDEST JUMPDEST PUSH1 0x0 PUSH2 0x34F0 DUP6 DUP3 DUP7 ADD PUSH2 0x30D3 JUMP JUMPDEST SWAP3 POP POP PUSH1 0x20 DUP4 ADD CALLDATALOAD PUSH8 0xFFFFFFFFFFFFFFFF DUP2 GT ISZERO PUSH2 0x3511 JUMPI PUSH2 0x3510 PUSH2 0x30AD JUMP JUMPDEST JUMPDEST PUSH2 0x351D DUP6 DUP3 DUP7 ADD PUSH2 0x349D JUMP JUMPDEST SWAP2 POP POP SWAP3 POP SWAP3 SWAP1 POP JUMP JUMPDEST PUSH1 0x0 DUP1 PUSH1 0x0 DUP1 PUSH1 0x0 PUSH1 0x80 DUP7 DUP9 SUB SLT ISZERO PUSH2 0x3543 JUMPI PUSH2 0x3542 PUSH2 0x30A8 JUMP JUMPDEST JUMPDEST PUSH1 0x0 PUSH2 0x3551 DUP9 DUP3 DUP10 ADD PUSH2 0x30D3 JUMP JUMPDEST SWAP6 POP POP PUSH1 0x20 PUSH2 0x3562 DUP9 DUP3 DUP10 ADD PUSH2 0x30D3 JUMP JUMPDEST SWAP5 POP POP PUSH1 0x40 DUP7 ADD CALLDATALOAD PUSH8 0xFFFFFFFFFFFFFFFF DUP2 GT ISZERO PUSH2 0x3583 JUMPI PUSH2 0x3582 PUSH2 0x30AD JUMP JUMPDEST JUMPDEST PUSH2 0x358F DUP9 DUP3 DUP10 ADD PUSH2 0x3174 JUMP JUMPDEST SWAP4 POP SWAP4 POP POP PUSH1 0x60 PUSH2 0x35A2 DUP9 DUP3 DUP10 ADD PUSH2 0x3213 JUMP JUMPDEST SWAP2 POP POP SWAP3 SWAP6 POP SWAP3 SWAP6 SWAP1 SWAP4 POP JUMP JUMPDEST PUSH1 0x0 DUP1 PUSH1 0x0 DUP1 PUSH1 0x0 PUSH1 0xA0 DUP7 DUP9 SUB SLT ISZERO PUSH2 0x35CB JUMPI PUSH2 0x35CA PUSH2 0x30A8 JUMP JUMPDEST JUMPDEST PUSH1 0x0 PUSH2 0x35D9 DUP9 DUP3 DUP10 ADD PUSH2 0x3213 JUMP JUMPDEST SWAP6 POP POP PUSH1 0x20 PUSH2 0x35EA DUP9 DUP3 DUP10 ADD PUSH2 0x30D3 JUMP JUMPDEST SWAP5 POP POP PUSH1 0x40 PUSH2 0x35FB DUP9 DUP3 DUP10 ADD PUSH2 0x30D3 JUMP JUMPDEST SWAP4 POP POP PUSH1 0x60 PUSH2 0x360C DUP9 DUP3 DUP10 ADD PUSH2 0x30D3 JUMP JUMPDEST SWAP3 POP POP PUSH1 0x80 PUSH2 0x361D DUP9 DUP3 DUP10 ADD PUSH2 0x3213 JUMP JUMPDEST SWAP2 POP POP SWAP3 SWAP6 POP SWAP3 SWAP6 SWAP1 SWAP4 POP JUMP JUMPDEST PUSH1 0x0 PUSH1 0x40 DUP3 ADD SWAP1 POP PUSH2 0x363F PUSH1 0x0 DUP4 ADD DUP6 PUSH2 0x313B JUMP JUMPDEST PUSH2 0x364C PUSH1 0x20 DUP4 ADD DUP5 PUSH2 0x313B JUMP JUMPDEST SWAP4 SWAP3 POP POP POP JUMP JUMPDEST PUSH1 0x0 PUSH1 0x60 DUP3 ADD SWAP1 POP PUSH2 0x3668 PUSH1 0x0 DUP4 ADD DUP7 PUSH2 0x313B JUMP JUMPDEST PUSH2 0x3675 PUSH1 0x20 DUP4 ADD DUP6 PUSH2 0x313B JUMP JUMPDEST PUSH2 0x3682 PUSH1 0x40 DUP4 ADD DUP5 PUSH2 0x313B JUMP JUMPDEST SWAP5 SWAP4 POP POP POP POP JUMP JUMPDEST PUSH2 0x3693 DUP2 PUSH2 0x31EA JUMP JUMPDEST DUP3 MSTORE POP POP JUMP JUMPDEST PUSH1 0x0 PUSH1 0x20 DUP3 ADD SWAP1 POP PUSH2 0x36AE PUSH1 0x0 DUP4 ADD DUP5 PUSH2 0x368A JUMP JUMPDEST SWAP3 SWAP2 POP POP JUMP JUMPDEST PUSH1 0x0 DUP1 PUSH1 0x0 DUP1 PUSH1 0x0 DUP1 PUSH1 0xC0 DUP8 DUP10 SUB SLT ISZERO PUSH2 0x36D1 JUMPI PUSH2 0x36D0 PUSH2 0x30A8 JUMP JUMPDEST JUMPDEST PUSH1 0x0 PUSH2 0x36DF DUP10 DUP3 DUP11 ADD PUSH2 0x3213 JUMP JUMPDEST SWAP7 POP POP PUSH1 0x20 PUSH2 0x36F0 DUP10 DUP3 DUP11 ADD PUSH2 0x3213 JUMP JUMPDEST SWAP6 POP POP PUSH1 0x40 PUSH2 0x3701 DUP10 DUP3 DUP11 ADD PUSH2 0x30D3 JUMP JUMPDEST SWAP5 POP POP PUSH1 0x60 PUSH2 0x3712 DUP10 DUP3 DUP11 ADD PUSH2 0x30D3 JUMP JUMPDEST SWAP4 POP POP PUSH1 0x80 PUSH2 0x3723 DUP10 DUP3 DUP11 ADD PUSH2 0x30D3 JUMP JUMPDEST SWAP3 POP POP PUSH1 0xA0 PUSH2 0x3734 DUP10 DUP3 DUP11 ADD PUSH2 0x3213 JUMP JUMPDEST SWAP2 POP POP SWAP3 SWAP6 POP SWAP3 SWAP6 POP SWAP3 SWAP6 JUMP JUMPDEST PUSH1 0x0 DUP1 PUSH1 0x0 DUP1 PUSH1 0x0 DUP1 PUSH1 0x0 PUSH1 0xE0 DUP9 DUP11 SUB SLT ISZERO PUSH2 0x3760 JUMPI PUSH2 0x375F PUSH2 0x30A8 JUMP JUMPDEST JUMPDEST PUSH1 0x0 PUSH2 0x376E DUP11 DUP3 DUP12 ADD PUSH2 0x3213 JUMP JUMPDEST SWAP8 POP POP PUSH1 0x20 PUSH2 0x377F DUP11 DUP3 DUP12 ADD PUSH2 0x3213 JUMP JUMPDEST SWAP7 POP POP PUSH1 0x40 PUSH2 0x3790 DUP11 DUP3 DUP12 ADD PUSH2 0x30D3 JUMP JUMPDEST SWAP6 POP POP PUSH1 0x60 PUSH2 0x37A1 DUP11 DUP3 DUP12 ADD PUSH2 0x30D3 JUMP JUMPDEST SWAP5 POP POP PUSH1 0x80 PUSH2 0x37B2 DUP11 DUP3 DUP12 ADD PUSH2 0x30D3 JUMP JUMPDEST SWAP4 POP POP PUSH1 0xA0 PUSH2 0x37C3 DUP11 DUP3 DUP12 ADD PUSH2 0x30D3 JUMP JUMPDEST SWAP3 POP POP PUSH1 0xC0 PUSH2 0x37D4 DUP11 DUP3 DUP12 ADD PUSH2 0x3213 JUMP JUMPDEST SWAP2 POP POP SWAP3 SWAP6 SWAP9 SWAP2 SWAP5 SWAP8 POP SWAP3 SWAP6 POP JUMP JUMPDEST PUSH32 0x4E487B7100000000000000000000000000000000000000000000000000000000 PUSH1 0x0 MSTORE PUSH1 0x32 PUSH1 0x4 MSTORE PUSH1 0x24 PUSH1 0x0 REVERT JUMPDEST PUSH1 0x0 PUSH1 0x20 DUP3 DUP5 SUB SLT ISZERO PUSH2 0x3828 JUMPI PUSH2 0x3827 PUSH2 0x30A8 JUMP JUMPDEST JUMPDEST PUSH1 0x0 PUSH2 0x3836 DUP5 DUP3 DUP6 ADD PUSH2 0x3213 JUMP JUMPDEST SWAP2 POP POP SWAP3 SWAP2 POP POP JUMP JUMPDEST PUSH1 0x0 DUP3 DUP3 MSTORE PUSH1 0x20 DUP3 ADD SWAP1 POP SWAP3 SWAP2 POP POP JUMP JUMPDEST PUSH32 0x556E69737761705632526F757465723A20494E56414C49445F50415448000000 PUSH1 0x0 DUP3 ADD MSTORE POP JUMP JUMPDEST PUSH1 0x0 PUSH2 0x3886 PUSH1 0x1D DUP4 PUSH2 0x383F JUMP JUMPDEST SWAP2 POP PUSH2 0x3891 DUP3 PUSH2 0x3850 JUMP JUMPDEST PUSH1 0x20 DUP3 ADD SWAP1 POP SWAP2 SWAP1 POP JUMP JUMPDEST PUSH1 0x0 PUSH1 0x20 DUP3 ADD SWAP1 POP DUP2 DUP2 SUB PUSH1 0x0 DUP4 ADD MSTORE PUSH2 0x38B5 DUP2 PUSH2 0x3879 JUMP JUMPDEST SWAP1 POP SWAP2 SWAP1 POP JUMP JUMPDEST PUSH32 0x556E69737761705632526F757465723A204558434553534956455F494E505554 PUSH1 0x0 DUP3 ADD MSTORE PUSH32 0x5F414D4F554E5400000000000000000000000000000000000000000000000000 PUSH1 0x20 DUP3 ADD MSTORE POP JUMP JUMPDEST PUSH1 0x0 PUSH2 0x3918 PUSH1 0x27 DUP4 PUSH2 0x383F JUMP JUMPDEST SWAP2 POP PUSH2 0x3923 DUP3 PUSH2 0x38BC JUMP JUMPDEST PUSH1 0x40 DUP3 ADD SWAP1 POP SWAP2 SWAP1 POP JUMP JUMPDEST PUSH1 0x0 PUSH1 0x20 DUP3 ADD SWAP1 POP DUP2 DUP2 SUB PUSH1 0x0 DUP4 ADD MSTORE PUSH2 0x3947 DUP2 PUSH2 0x390B JUMP JUMPDEST SWAP1 POP SWAP2 SWAP1 POP JUMP JUMPDEST PUSH1 0x0 PUSH1 0x40 DUP3 ADD SWAP1 POP PUSH2 0x3963 PUSH1 0x0 DUP4 ADD DUP6 PUSH2 0x368A JUMP JUMPDEST PUSH2 0x3970 PUSH1 0x20 DUP4 ADD DUP5 PUSH2 0x313B JUMP JUMPDEST SWAP4 SWAP3 POP POP POP JUMP JUMPDEST PUSH1 0x0 DUP2 ISZERO ISZERO SWAP1 POP SWAP2 SWAP1 POP JUMP JUMPDEST PUSH2 0x398C DUP2 PUSH2 0x3977 JUMP JUMPDEST DUP2 EQ PUSH2 0x3997 JUMPI PUSH1 0x0 DUP1 REVERT JUMPDEST POP JUMP JUMPDEST PUSH1 0x0 DUP2 MLOAD SWAP1 POP PUSH2 0x39A9 DUP2 PUSH2 0x3983 JUMP JUMPDEST SWAP3 SWAP2 POP POP JUMP JUMPDEST PUSH1 0x0 PUSH1 0x20 DUP3 DUP5 SUB SLT ISZERO PUSH2 0x39C5 JUMPI PUSH2 0x39C4 PUSH2 0x30A8 JUMP JUMPDEST JUMPDEST PUSH1 0x0 PUSH2 0x39D3 DUP5 DUP3 DUP6 ADD PUSH2 0x399A JUMP JUMPDEST SWAP2 POP POP SWAP3 SWAP2 POP POP JUMP JUMPDEST PUSH32 0x4E487B7100000000000000000000000000000000000000000000000000000000 PUSH1 0x0 MSTORE PUSH1 0x11 PUSH1 0x4 MSTORE PUSH1 0x24 PUSH1 0x0 REVERT JUMPDEST PUSH1 0x0 PUSH2 0x3A16 DUP3 PUSH2 0x30B2 JUMP JUMPDEST SWAP2 POP PUSH2 0x3A21 DUP4 PUSH2 0x30B2 JUMP JUMPDEST SWAP3 POP DUP3 DUP3 LT ISZERO PUSH2 0x3A34 JUMPI PUSH2 0x3A33 PUSH2 0x39DC JUMP JUMPDEST JUMPDEST DUP3 DUP3 SUB SWAP1 POP SWAP3 SWAP2 POP POP JUMP JUMPDEST PUSH32 0x556E69737761705632526F757465723A20494E53554646494349454E545F4F55 PUSH1 0x0 DUP3 ADD MSTORE PUSH32 0x545055545F414D4F554E54000000000000000000000000000000000000000000 PUSH1 0x20 DUP3 ADD MSTORE POP JUMP JUMPDEST PUSH1 0x0 PUSH2 0x3A9B PUSH1 0x2B DUP4 PUSH2 0x383F JUMP JUMPDEST SWAP2 POP PUSH2 0x3AA6 DUP3 PUSH2 0x3A3F JUMP JUMPDEST PUSH1 0x40 DUP3 ADD SWAP1 POP SWAP2 SWAP1 POP JUMP JUMPDEST PUSH1 0x0 PUSH1 0x20 DUP3 ADD SWAP1 POP DUP2 DUP2 SUB PUSH1 0x0 DUP4 ADD MSTORE PUSH2 0x3ACA DUP2 PUSH2 0x3A8E JUMP JUMPDEST SWAP1 POP SWAP2 SWAP1 POP JUMP JUMPDEST PUSH1 0x0 DUP2 MLOAD SWAP1 POP PUSH2 0x3AE0 DUP2 PUSH2 0x30BC JUMP JUMPDEST SWAP3 SWAP2 POP POP JUMP JUMPDEST PUSH1 0x0 PUSH1 0x20 DUP3 DUP5 SUB SLT ISZERO PUSH2 0x3AFC JUMPI PUSH2 0x3AFB PUSH2 0x30A8 JUMP JUMPDEST JUMPDEST PUSH1 0x0 PUSH2 0x3B0A DUP5 DUP3 DUP6 ADD PUSH2 0x3AD1 JUMP JUMPDEST SWAP2 POP POP SWAP3 SWAP2 POP POP JUMP JUMPDEST PUSH1 0x0 PUSH1 0x60 DUP3 ADD SWAP1 POP PUSH2 0x3B28 PUSH1 0x0 DUP4 ADD DUP7 PUSH2 0x368A JUMP JUMPDEST PUSH2 0x3B35 PUSH1 0x20 DUP4 ADD DUP6 PUSH2 0x368A JUMP JUMPDEST PUSH2 0x3B42 PUSH1 0x40 DUP4 ADD DUP5 PUSH2 0x313B JUMP JUMPDEST SWAP5 SWAP4 POP POP POP POP JUMP JUMPDEST PUSH1 0x0 DUP1 PUSH1 0x40 DUP4 DUP6 SUB SLT ISZERO PUSH2 0x3B61 JUMPI PUSH2 0x3B60 PUSH2 0x30A8 JUMP JUMPDEST JUMPDEST PUSH1 0x0 PUSH2 0x3B6F DUP6 DUP3 DUP7 ADD PUSH2 0x3AD1 JUMP JUMPDEST SWAP3 POP POP PUSH1 0x20 PUSH2 0x3B80 DUP6 DUP3 DUP7 ADD PUSH2 0x3AD1 JUMP JUMPDEST SWAP2 POP POP SWAP3 POP SWAP3 SWAP1 POP JUMP JUMPDEST PUSH32 0x556E69737761705632526F757465723A20494E53554646494349454E545F415F PUSH1 0x0 DUP3 ADD MSTORE PUSH32 0x414D4F554E540000000000000000000000000000000000000000000000000000 PUSH1 0x20 DUP3 ADD MSTORE POP JUMP JUMPDEST PUSH1 0x0 PUSH2 0x3BE6 PUSH1 0x26 DUP4 PUSH2 0x383F JUMP JUMPDEST SWAP2 POP PUSH2 0x3BF1 DUP3 PUSH2 0x3B8A JUMP JUMPDEST PUSH1 0x40 DUP3 ADD SWAP1 POP SWAP2 SWAP1 POP JUMP JUMPDEST PUSH1 0x0 PUSH1 0x20 DUP3 ADD SWAP1 POP DUP2 DUP2 SUB PUSH1 0x0 DUP4 ADD MSTORE PUSH2 0x3C15 DUP2 PUSH2 0x3BD9 JUMP JUMPDEST SWAP1 POP SWAP2 SWAP1 POP JUMP JUMPDEST PUSH32 0x556E69737761705632526F757465723A20494E53554646494349454E545F425F PUSH1 0x0 DUP3 ADD MSTORE PUSH32 0x414D4F554E540000000000000000000000000000000000000000000000000000 PUSH1 0x20 DUP3 ADD MSTORE POP JUMP JUMPDEST PUSH1 0x0 PUSH2 0x3C78 PUSH1 0x26 DUP4 PUSH2 0x383F JUMP JUMPDEST SWAP2 POP PUSH2 0x3C83 DUP3 PUSH2 0x3C1C JUMP JUMPDEST PUSH1 0x40 DUP3 ADD SWAP1 POP SWAP2 SWAP1 POP JUMP JUMPDEST PUSH1 0x0 PUSH1 0x20 DUP3 ADD SWAP1 POP DUP2 DUP2 SUB PUSH1 0x0 DUP4 ADD MSTORE PUSH2 0x3CA7 DUP2 PUSH2 0x3C6B JUMP JUMPDEST SWAP1 POP SWAP2 SWAP1 POP JUMP JUMPDEST PUSH32 0x556E697377617056324C6962726172793A20494E53554646494349454E545F49 PUSH1 0x0 DUP3 ADD MSTORE PUSH32 0x4E5055545F414D4F554E54000000000000000000000000000000000000000000 PUSH1 0x20 DUP3 ADD MSTORE POP JUMP JUMPDEST PUSH1 0x0 PUSH2 0x3D0A PUSH1 0x2B DUP4 PUSH2 0x383F JUMP JUMPDEST SWAP2 POP PUSH2 0x3D15 DUP3 PUSH2 0x3CAE JUMP JUMPDEST PUSH1 0x40 DUP3 ADD SWAP1 POP SWAP2 SWAP1 POP JUMP JUMPDEST PUSH1 0x0 PUSH1 0x20 DUP3 ADD SWAP1 POP DUP2 DUP2 SUB PUSH1 0x0 DUP4 ADD MSTORE PUSH2 0x3D39 DUP2 PUSH2 0x3CFD JUMP JUMPDEST SWAP1 POP SWAP2 SWAP1 POP JUMP JUMPDEST PUSH32 0x556E697377617056324C6962726172793A20494E53554646494349454E545F4C PUSH1 0x0 DUP3 ADD MSTORE PUSH32 0x4951554944495459000000000000000000000000000000000000000000000000 PUSH1 0x20 DUP3 ADD MSTORE POP JUMP JUMPDEST PUSH1 0x0 PUSH2 0x3D9C PUSH1 0x28 DUP4 PUSH2 0x383F JUMP JUMPDEST SWAP2 POP PUSH2 0x3DA7 DUP3 PUSH2 0x3D40 JUMP JUMPDEST PUSH1 0x40 DUP3 ADD SWAP1 POP SWAP2 SWAP1 POP JUMP JUMPDEST PUSH1 0x0 PUSH1 0x20 DUP3 ADD SWAP1 POP DUP2 DUP2 SUB PUSH1 0x0 DUP4 ADD MSTORE PUSH2 0x3DCB DUP2 PUSH2 0x3D8F JUMP JUMPDEST SWAP1 POP SWAP2 SWAP1 POP JUMP JUMPDEST PUSH1 0x0 PUSH2 0x3DDD DUP3 PUSH2 0x30B2 JUMP JUMPDEST SWAP2 POP PUSH2 0x3DE8 DUP4 PUSH2 0x30B2 JUMP JUMPDEST SWAP3 POP DUP2 PUSH32 0xFFFFFFFFFFFFFFFFFFFFFFFFFFFFFFFFFFFFFFFFFFFFFFFFFFFFFFFFFFFFFFFF DIV DUP4 GT DUP3 ISZERO ISZERO AND ISZERO PUSH2 0x3E21 JUMPI PUSH2 0x3E20 PUSH2 0x39DC JUMP JUMPDEST JUMPDEST DUP3 DUP3 MUL SWAP1 POP SWAP3 SWAP2 POP POP JUMP JUMPDEST PUSH1 0x0 PUSH2 0x3E37 DUP3 PUSH2 0x30B2 JUMP JUMPDEST SWAP2 POP PUSH2 0x3E42 DUP4 PUSH2 0x30B2 JUMP JUMPDEST SWAP3 POP DUP3 PUSH32 0xFFFFFFFFFFFFFFFFFFFFFFFFFFFFFFFFFFFFFFFFFFFFFFFFFFFFFFFFFFFFFFFF SUB DUP3 GT ISZERO PUSH2 0x3E77 JUMPI PUSH2 0x3E76 PUSH2 0x39DC JUMP JUMPDEST JUMPDEST DUP3 DUP3 ADD SWAP1 POP SWAP3 SWAP2 POP POP JUMP JUMPDEST PUSH32 0x4E487B7100000000000000000000000000000000000000000000000000000000 PUSH1 0x0 MSTORE PUSH1 0x12 PUSH1 0x4 MSTORE PUSH1 0x24 PUSH1 0x0 REVERT JUMPDEST PUSH1 0x0 PUSH2 0x3EBC DUP3 PUSH2 0x30B2 JUMP JUMPDEST SWAP2 POP PUSH2 0x3EC7 DUP4 PUSH2 0x30B2 JUMP JUMPDEST SWAP3 POP DUP3 PUSH2 0x3ED7 JUMPI PUSH2 0x3ED6 PUSH2 0x3E82 JUMP JUMPDEST JUMPDEST DUP3 DUP3 DIV SWAP1 POP SWAP3 SWAP2 POP POP JUMP JUMPDEST PUSH32 0x556E697377617056324C6962726172793A20494E56414C49445F504154480000 PUSH1 0x0 DUP3 ADD MSTORE POP JUMP JUMPDEST PUSH1 0x0 PUSH2 0x3F18 PUSH1 0x1E DUP4 PUSH2 0x383F JUMP JUMPDEST SWAP2 POP PUSH2 0x3F23 DUP3 PUSH2 0x3EE2 JUMP JUMPDEST PUSH1 0x20 DUP3 ADD SWAP1 POP SWAP2 SWAP1 POP JUMP JUMPDEST PUSH1 0x0 PUSH1 0x20 DUP3 ADD SWAP1 POP DUP2 DUP2 SUB PUSH1 0x0 DUP4 ADD MSTORE PUSH2 0x3F47 DUP2 PUSH2 0x3F0B JUMP JUMPDEST SWAP1 POP SWAP2 SWAP1 POP JUMP JUMPDEST PUSH1 0x0 PUSH2 0x3F59 DUP3 PUSH2 0x30B2 JUMP JUMPDEST SWAP2 POP PUSH1 0x0 DUP3 EQ ISZERO PUSH2 0x3F6D JUMPI PUSH2 0x3F6C PUSH2 0x39DC JUMP JUMPDEST JUMPDEST PUSH1 0x1 DUP3 SUB SWAP1 POP SWAP2 SWAP1 POP JUMP JUMPDEST PUSH1 0x0 DUP2 PUSH1 0x60 SHL SWAP1 POP SWAP2 SWAP1 POP JUMP JUMPDEST PUSH1 0x0 PUSH2 0x3F90 DUP3 PUSH2 0x3F78 JUMP JUMPDEST SWAP1 POP SWAP2 SWAP1 POP JUMP JUMPDEST PUSH1 0x0 PUSH2 0x3FA2 DUP3 PUSH2 0x3F85 JUMP JUMPDEST SWAP1 POP SWAP2 SWAP1 POP JUMP JUMPDEST PUSH2 0x3FBA PUSH2 0x3FB5 DUP3 PUSH2 0x31EA JUMP JUMPDEST PUSH2 0x3F97 JUMP JUMPDEST DUP3 MSTORE POP POP JUMP JUMPDEST PUSH1 0x0 PUSH2 0x3FCC DUP3 DUP6 PUSH2 0x3FA9 JUMP JUMPDEST PUSH1 0x14 DUP3 ADD SWAP2 POP PUSH2 0x3FDC DUP3 DUP5 PUSH2 0x3FA9 JUMP JUMPDEST PUSH1 0x14 DUP3 ADD SWAP2 POP DUP2 SWAP1 POP SWAP4 SWAP3 POP POP POP JUMP JUMPDEST PUSH1 0x0 DUP2 SWAP1 POP SWAP3 SWAP2 POP POP JUMP JUMPDEST PUSH32 0xFF00000000000000000000000000000000000000000000000000000000000000 PUSH1 0x0 DUP3 ADD MSTORE POP JUMP JUMPDEST PUSH1 0x0 PUSH2 0x402D PUSH1 0x1 DUP4 PUSH2 0x3FEC JUMP JUMPDEST SWAP2 POP PUSH2 0x4038 DUP3 PUSH2 0x3FF7 JUMP JUMPDEST PUSH1 0x1 DUP3 ADD SWAP1 POP SWAP2 SWAP1 POP JUMP JUMPDEST PUSH1 0x0 DUP2 SWAP1 POP SWAP2 SWAP1 POP JUMP JUMPDEST PUSH1 0x0 DUP2 SWAP1 POP SWAP2 SWAP1 POP JUMP JUMPDEST PUSH2 0x4068 PUSH2 0x4063 DUP3 PUSH2 0x4043 JUMP JUMPDEST PUSH2 0x404D JUMP JUMPDEST DUP3 MSTORE POP POP JUMP JUMPDEST PUSH32 0x521BF869263C9263D9BA1F6250147964A5AA25775FA6B99ED02EA8D69CB820AB PUSH1 0x0 DUP3 ADD MSTORE POP JUMP JUMPDEST PUSH1 0x0 PUSH2 0x40A4 PUSH1 0x20 DUP4 PUSH2 0x3FEC JUMP JUMPDEST SWAP2 POP PUSH2 0x40AF DUP3 PUSH2 0x406E JUMP JUMPDEST PUSH1 0x20 DUP3 ADD SWAP1 POP SWAP2 SWAP1 POP JUMP JUMPDEST PUSH1 0x0 PUSH2 0x40C5 DUP3 PUSH2 0x4020 JUMP JUMPDEST SWAP2 POP PUSH2 0x40D1 DUP3 DUP6 PUSH2 0x3FA9 JUMP JUMPDEST PUSH1 0x14 DUP3 ADD SWAP2 POP PUSH2 0x40E1 DUP3 DUP5 PUSH2 0x4057 JUMP JUMPDEST PUSH1 0x20 DUP3 ADD SWAP2 POP PUSH2 0x40F0 DUP3 PUSH2 0x4097 JUMP JUMPDEST SWAP2 POP DUP2 SWAP1 POP SWAP4 SWAP3 POP POP POP JUMP JUMPDEST PUSH1 0x0 PUSH1 0x60 DUP3 ADD SWAP1 POP PUSH2 0x4111 PUSH1 0x0 DUP4 ADD DUP7 PUSH2 0x313B JUMP JUMPDEST PUSH2 0x411E PUSH1 0x20 DUP4 ADD DUP6 PUSH2 0x313B JUMP JUMPDEST PUSH2 0x412B PUSH1 0x40 DUP4 ADD DUP5 PUSH2 0x368A JUMP JUMPDEST SWAP5 SWAP4 POP POP POP POP JUMP JUMPDEST PUSH1 0x0 PUSH2 0x413E DUP3 PUSH2 0x30B2 JUMP JUMPDEST SWAP2 POP PUSH32 0xFFFFFFFFFFFFFFFFFFFFFFFFFFFFFFFFFFFFFFFFFFFFFFFFFFFFFFFFFFFFFFFF DUP3 EQ ISZERO PUSH2 0x4171 JUMPI PUSH2 0x4170 PUSH2 0x39DC JUMP JUMPDEST JUMPDEST PUSH1 0x1 DUP3 ADD SWAP1 POP SWAP2 SWAP1 POP JUMP JUMPDEST PUSH1 0x0 DUP2 MLOAD SWAP1 POP SWAP2 SWAP1 POP JUMP JUMPDEST PUSH1 0x0 DUP2 SWAP1 POP SWAP3 SWAP2 POP POP JUMP JUMPDEST PUSH1 0x0 JUMPDEST DUP4 DUP2 LT ISZERO PUSH2 0x41B0 JUMPI DUP1 DUP3 ADD MLOAD DUP2 DUP5 ADD MSTORE PUSH1 0x20 DUP2 ADD SWAP1 POP PUSH2 0x4195 JUMP JUMPDEST DUP4 DUP2 GT ISZERO PUSH2 0x41BF JUMPI PUSH1 0x0 DUP5 DUP5 ADD MSTORE JUMPDEST POP POP POP POP JUMP JUMPDEST PUSH1 0x0 PUSH2 0x41D0 DUP3 PUSH2 0x417C JUMP JUMPDEST PUSH2 0x41DA DUP2 DUP6 PUSH2 0x4187 JUMP JUMPDEST SWAP4 POP PUSH2 0x41EA DUP2 DUP6 PUSH1 0x20 DUP7 ADD PUSH2 0x4192 JUMP JUMPDEST DUP1 DUP5 ADD SWAP2 POP POP SWAP3 SWAP2 POP POP JUMP JUMPDEST PUSH1 0x0 PUSH2 0x4202 DUP3 DUP5 PUSH2 0x41C5 JUMP JUMPDEST SWAP2 POP DUP2 SWAP1 POP SWAP3 SWAP2 POP POP JUMP JUMPDEST PUSH32 0x5472616E7366657248656C7065723A3A736166655472616E736665724554483A PUSH1 0x0 DUP3 ADD MSTORE PUSH32 0x20455448207472616E73666572206661696C6564000000000000000000000000 PUSH1 0x20 DUP3 ADD MSTORE POP JUMP JUMPDEST PUSH1 0x0 PUSH2 0x4269 PUSH1 0x34 DUP4 PUSH2 0x383F JUMP JUMPDEST SWAP2 POP PUSH2 0x4274 DUP3 PUSH2 0x420D JUMP JUMPDEST PUSH1 0x40 DUP3 ADD SWAP1 POP SWAP2 SWAP1 POP JUMP JUMPDEST PUSH1 0x0 PUSH1 0x20 DUP3 ADD SWAP1 POP DUP2 DUP2 SUB PUSH1 0x0 DUP4 ADD MSTORE PUSH2 0x4298 DUP2 PUSH2 0x425C JUMP JUMPDEST SWAP1 POP SWAP2 SWAP1 POP JUMP JUMPDEST PUSH32 0x5472616E7366657248656C7065723A3A7472616E7366657246726F6D3A207472 PUSH1 0x0 DUP3 ADD MSTORE PUSH32 0x616E7366657246726F6D206661696C6564000000000000000000000000000000 PUSH1 0x20 DUP3 ADD MSTORE POP JUMP JUMPDEST PUSH1 0x0 PUSH2 0x42FB PUSH1 0x31 DUP4 PUSH2 0x383F JUMP JUMPDEST SWAP2 POP PUSH2 0x4306 DUP3 PUSH2 0x429F JUMP JUMPDEST PUSH1 0x40 DUP3 ADD SWAP1 POP SWAP2 SWAP1 POP JUMP JUMPDEST PUSH1 0x0 PUSH1 0x20 DUP3 ADD SWAP1 POP DUP2 DUP2 SUB PUSH1 0x0 DUP4 ADD MSTORE PUSH2 0x432A DUP2 PUSH2 0x42EE JUMP JUMPDEST SWAP1 POP SWAP2 SWAP1 POP JUMP JUMPDEST PUSH32 0x5472616E7366657248656C7065723A3A736166655472616E736665723A207472 PUSH1 0x0 DUP3 ADD MSTORE PUSH32 0x616E73666572206661696C656400000000000000000000000000000000000000 PUSH1 0x20 DUP3 ADD MSTORE POP JUMP JUMPDEST PUSH1 0x0 PUSH2 0x438D PUSH1 0x2D DUP4 PUSH2 0x383F JUMP JUMPDEST SWAP2 POP PUSH2 0x4398 DUP3 PUSH2 0x4331 JUMP JUMPDEST PUSH1 0x40 DUP3 ADD SWAP1 POP SWAP2 SWAP1 POP JUMP JUMPDEST PUSH1 0x0 PUSH1 0x20 DUP3 ADD SWAP1 POP DUP2 DUP2 SUB PUSH1 0x0 DUP4 ADD MSTORE PUSH2 0x43BC DUP2 PUSH2 0x4380 JUMP JUMPDEST SWAP1 POP SWAP2 SWAP1 POP JUMP JUMPDEST PUSH1 0x0 PUSH1 0x40 DUP3 ADD SWAP1 POP PUSH2 0x43D8 PUSH1 0x0 DUP4 ADD DUP6 PUSH2 0x368A JUMP JUMPDEST PUSH2 0x43E5 PUSH1 0x20 DUP4 ADD DUP5 PUSH2 0x368A JUMP JUMPDEST SWAP4 SWAP3 POP POP POP JUMP JUMPDEST PUSH1 0x0 DUP2 MLOAD SWAP1 POP PUSH2 0x43FB DUP2 PUSH2 0x31FC JUMP JUMPDEST SWAP3 SWAP2 POP POP JUMP JUMPDEST PUSH1 0x0 PUSH1 0x20 DUP3 DUP5 SUB SLT ISZERO PUSH2 0x4417 JUMPI PUSH2 0x4416 PUSH2 0x30A8 JUMP JUMPDEST JUMPDEST PUSH1 0x0 PUSH2 0x4425 DUP5 DUP3 DUP6 ADD PUSH2 0x43EC JUMP JUMPDEST SWAP2 POP POP SWAP3 SWAP2 POP POP JUMP JUMPDEST PUSH32 0x556E697377617056324C6962726172793A20494E53554646494349454E545F4F PUSH1 0x0 DUP3 ADD MSTORE PUSH32 0x55545055545F414D4F554E540000000000000000000000000000000000000000 PUSH1 0x20 DUP3 ADD MSTORE POP JUMP JUMPDEST PUSH1 0x0 PUSH2 0x448A PUSH1 0x2C DUP4 PUSH2 0x383F JUMP JUMPDEST SWAP2 POP PUSH2 0x4495 DUP3 PUSH2 0x442E JUMP JUMPDEST PUSH1 0x40 DUP3 ADD SWAP1 POP SWAP2 SWAP1 POP JUMP JUMPDEST PUSH1 0x0 PUSH1 0x20 DUP3 ADD SWAP1 POP DUP2 DUP2 SUB PUSH1 0x0 DUP4 ADD MSTORE PUSH2 0x44B9 DUP2 PUSH2 0x447D JUMP JUMPDEST SWAP1 POP SWAP2 SWAP1 POP JUMP JUMPDEST PUSH32 0x556E697377617056324C6962726172793A20494E53554646494349454E545F41 PUSH1 0x0 DUP3 ADD MSTORE PUSH32 0x4D4F554E54000000000000000000000000000000000000000000000000000000 PUSH1 0x20 DUP3 ADD MSTORE POP JUMP JUMPDEST PUSH1 0x0 PUSH2 0x451C PUSH1 0x25 DUP4 PUSH2 0x383F JUMP JUMPDEST SWAP2 POP PUSH2 0x4527 DUP3 PUSH2 0x44C0 JUMP JUMPDEST PUSH1 0x40 DUP3 ADD SWAP1 POP SWAP2 SWAP1 POP JUMP JUMPDEST PUSH1 0x0 PUSH1 0x20 DUP3 ADD SWAP1 POP DUP2 DUP2 SUB PUSH1 0x0 DUP4 ADD MSTORE PUSH2 0x454B DUP2 PUSH2 0x450F JUMP JUMPDEST SWAP1 POP SWAP2 SWAP1 POP JUMP JUMPDEST PUSH32 0x556E697377617056324C6962726172793A204944454E544943414C5F41444452 PUSH1 0x0 DUP3 ADD MSTORE PUSH32 0x4553534553000000000000000000000000000000000000000000000000000000 PUSH1 0x20 DUP3 ADD MSTORE POP JUMP JUMPDEST PUSH1 0x0 PUSH2 0x45AE PUSH1 0x25 DUP4 PUSH2 0x383F JUMP JUMPDEST SWAP2 POP PUSH2 0x45B9 DUP3 PUSH2 0x4552 JUMP JUMPDEST PUSH1 0x40 DUP3 ADD SWAP1 POP SWAP2 SWAP1 POP JUMP JUMPDEST PUSH1 0x0 PUSH1 0x20 DUP3 ADD SWAP1 POP DUP2 DUP2 SUB PUSH1 0x0 DUP4 ADD MSTORE PUSH2 0x45DD DUP2 PUSH2 0x45A1 JUMP JUMPDEST SWAP1 POP SWAP2 SWAP1 POP JUMP JUMPDEST PUSH32 0x556E697377617056324C6962726172793A205A45524F5F414444524553530000 PUSH1 0x0 DUP3 ADD MSTORE POP JUMP JUMPDEST PUSH1 0x0 PUSH2 0x461A PUSH1 0x1E DUP4 PUSH2 0x383F JUMP JUMPDEST SWAP2 POP PUSH2 0x4625 DUP3 PUSH2 0x45E4 JUMP JUMPDEST PUSH1 0x20 DUP3 ADD SWAP1 POP SWAP2 SWAP1 POP JUMP JUMPDEST PUSH1 0x0 PUSH1 0x20 DUP3 ADD SWAP1 POP DUP2 DUP2 SUB PUSH1 0x0 DUP4 ADD MSTORE PUSH2 0x4649 DUP2 PUSH2 0x460D JUMP JUMPDEST SWAP1 POP SWAP2 SWAP1 POP JUMP JUMPDEST PUSH1 0x0 PUSH14 0xFFFFFFFFFFFFFFFFFFFFFFFFFFFF DUP3 AND SWAP1 POP SWAP2 SWAP1 POP JUMP JUMPDEST PUSH2 0x4673 DUP2 PUSH2 0x4650 JUMP JUMPDEST DUP2 EQ PUSH2 0x467E JUMPI PUSH1 0x0 DUP1 REVERT JUMPDEST POP JUMP JUMPDEST PUSH1 0x0 DUP2 MLOAD SWAP1 POP PUSH2 0x4690 DUP2 PUSH2 0x466A JUMP JUMPDEST SWAP3 SWAP2 POP POP JUMP JUMPDEST PUSH1 0x0 DUP1 PUSH1 0x40 DUP4 DUP6 SUB SLT ISZERO PUSH2 0x46AD JUMPI PUSH2 0x46AC PUSH2 0x30A8 JUMP JUMPDEST JUMPDEST PUSH1 0x0 PUSH2 0x46BB DUP6 DUP3 DUP7 ADD PUSH2 0x4681 JUMP JUMPDEST SWAP3 POP POP PUSH1 0x20 PUSH2 0x46CC DUP6 DUP3 DUP7 ADD PUSH2 0x4681 JUMP JUMPDEST SWAP2 POP POP SWAP3 POP SWAP3 SWAP1 POP JUMP INVALID LOG2 PUSH5 0x6970667358 0x22 SLT KECCAK256 LOG3 SWAP7 PUSH32 0x24E912D64D4F941E7BA6E1499CD5265B611736BF1CCDB9CC6EA5E5993864736F PUSH13 0x63430008080033000000000000 "
        },
        "methodIdentifiers": {
          "WETH()": "ad5c4648",
          "addLiquidity(address,address,uint256,uint256,uint256,uint256,address)": "ca3d6539",
          "addLiquidityETH(address,uint256,uint256,uint256,address)": "77215790",
          "factory()": "c45a0155",
          "getAmountIn(uint256,uint256,uint256)": "85f8c259",
          "getAmountOut(uint256,uint256,uint256)": "054d50d4",
          "getAmountsIn(uint256,address[])": "1f00ca74",
          "getAmountsOut(uint256,address[])": "d06ca61f",
          "quote(uint256,uint256,uint256)": "ad615dec",
          "removeLiquidity(address,address,uint256,uint256,uint256,address)": "c0e3ee6b",
          "removeLiquidityETH(address,uint256,uint256,uint256,address)": "6587e4ce",
          "swapETHForExactTokens(uint256,address[],address)": "10086982",
          "swapExactETHForTokens(uint256,address[],address)": "12c6442f",
          "swapExactTokensForETH(uint256,uint256,address[],address)": "363db5c6",
          "swapExactTokensForTokens(uint256,uint256,address[],address)": "472b43f3",
          "swapTokensForExactETH(uint256,uint256,address[],address)": "3e8877ed",
          "swapTokensForExactTokens(uint256,uint256,address[],address)": "42712a67"
        }
      }
    }
  }
}